{
  "_format": "hh-sol-artifact-1",
  "contractName": "DAO",
  "sourceName": "blockchain/contracts/CharityDAO_V1.sol",
  "abi": [
    {
      "inputs": [],
      "stateMutability": "nonpayable",
      "type": "constructor"
    },
    {
      "anonymous": false,
      "inputs": [
        {
          "indexed": false,
          "internalType": "string",
          "name": "message",
          "type": "string"
        }
      ],
      "name": "ThanksMessage",
      "type": "event"
    },
    {
      "stateMutability": "payable",
      "type": "fallback"
    },
    {
      "inputs": [
        {
          "internalType": "address",
          "name": "_member",
          "type": "address"
        }
      ],
      "name": "addGovOfficial",
      "outputs": [],
      "stateMutability": "nonpayable",
      "type": "function"
    },
    {
      "inputs": [
        {
          "internalType": "uint256",
          "name": "",
          "type": "uint256"
        }
      ],
      "name": "allProposals",
      "outputs": [
        {
          "internalType": "uint256",
          "name": "proposalID",
          "type": "uint256"
        },
        {
          "internalType": "string",
          "name": "proposalName",
          "type": "string"
        },
        {
          "internalType": "string",
          "name": "proposalDesc",
          "type": "string"
        },
        {
          "internalType": "address",
          "name": "proposer",
          "type": "address"
        },
        {
          "internalType": "uint256",
          "name": "proposalAmount",
          "type": "uint256"
        },
        {
          "internalType": "uint256",
          "name": "forVotes",
          "type": "uint256"
        },
        {
          "internalType": "uint256",
          "name": "forGovVotes",
          "type": "uint256"
        },
        {
          "internalType": "uint256",
          "name": "againstVotes",
          "type": "uint256"
        },
        {
          "internalType": "uint256",
          "name": "againstGovVotes",
          "type": "uint256"
        },
        {
          "internalType": "uint256",
          "name": "voteDeadline",
          "type": "uint256"
        },
        {
          "internalType": "bool",
          "name": "isValid",
          "type": "bool"
        },
        {
          "internalType": "bool",
          "name": "isPassed",
          "type": "bool"
        }
      ],
      "stateMutability": "view",
      "type": "function"
    },
    {
      "inputs": [
        {
          "internalType": "uint256",
          "name": "_id",
          "type": "uint256"
        }
      ],
      "name": "countVotes",
      "outputs": [],
      "stateMutability": "nonpayable",
      "type": "function"
    },
    {
      "inputs": [],
      "name": "donate",
      "outputs": [],
      "stateMutability": "payable",
      "type": "function"
    },
    {
      "inputs": [
        {
          "internalType": "address",
          "name": "",
          "type": "address"
        }
      ],
      "name": "donationAmount",
      "outputs": [
        {
          "internalType": "uint256",
          "name": "",
          "type": "uint256"
        }
      ],
      "stateMutability": "view",
      "type": "function"
    },
    {
      "inputs": [],
      "name": "getAllProposals",
      "outputs": [
        {
          "components": [
            {
              "internalType": "uint256",
              "name": "proposalID",
              "type": "uint256"
            },
            {
              "internalType": "string",
              "name": "proposalName",
              "type": "string"
            },
            {
              "internalType": "string",
              "name": "proposalDesc",
              "type": "string"
            },
            {
              "internalType": "address",
              "name": "proposer",
              "type": "address"
            },
            {
              "internalType": "uint256",
              "name": "proposalAmount",
              "type": "uint256"
            },
            {
              "internalType": "uint256",
              "name": "forVotes",
              "type": "uint256"
            },
            {
              "internalType": "uint256",
              "name": "forGovVotes",
              "type": "uint256"
            },
            {
              "internalType": "uint256",
              "name": "againstVotes",
              "type": "uint256"
            },
            {
              "internalType": "uint256",
              "name": "againstGovVotes",
              "type": "uint256"
            },
            {
              "internalType": "uint256",
              "name": "voteDeadline",
              "type": "uint256"
            },
            {
              "internalType": "bool",
              "name": "isValid",
              "type": "bool"
            },
            {
              "internalType": "bool",
              "name": "isPassed",
              "type": "bool"
            }
          ],
          "internalType": "struct DAO.Proposal[]",
          "name": "",
          "type": "tuple[]"
        }
      ],
      "stateMutability": "view",
      "type": "function"
    },
    {
      "inputs": [],
      "name": "getBalance",
      "outputs": [
        {
          "internalType": "uint256",
          "name": "",
          "type": "uint256"
        }
      ],
      "stateMutability": "view",
      "type": "function"
    },
    {
      "inputs": [],
      "name": "getMyProposals",
      "outputs": [
        {
          "components": [
            {
              "internalType": "uint256",
              "name": "proposalID",
              "type": "uint256"
            },
            {
              "internalType": "string",
              "name": "proposalName",
              "type": "string"
            },
            {
              "internalType": "string",
              "name": "proposalDesc",
              "type": "string"
            },
            {
              "internalType": "address",
              "name": "proposer",
              "type": "address"
            },
            {
              "internalType": "uint256",
              "name": "proposalAmount",
              "type": "uint256"
            },
            {
              "internalType": "uint256",
              "name": "forVotes",
              "type": "uint256"
            },
            {
              "internalType": "uint256",
              "name": "forGovVotes",
              "type": "uint256"
            },
            {
              "internalType": "uint256",
              "name": "againstVotes",
              "type": "uint256"
            },
            {
              "internalType": "uint256",
              "name": "againstGovVotes",
              "type": "uint256"
            },
            {
              "internalType": "uint256",
              "name": "voteDeadline",
              "type": "uint256"
            },
            {
              "internalType": "bool",
              "name": "isValid",
              "type": "bool"
            },
            {
              "internalType": "bool",
              "name": "isPassed",
              "type": "bool"
            }
          ],
          "internalType": "struct DAO.Proposal[]",
          "name": "",
          "type": "tuple[]"
        }
      ],
      "stateMutability": "view",
      "type": "function"
    },
    {
      "inputs": [
        {
          "internalType": "uint256",
          "name": "_id",
          "type": "uint256"
        }
      ],
      "name": "getProposal",
      "outputs": [
        {
          "components": [
            {
              "internalType": "uint256",
              "name": "proposalID",
              "type": "uint256"
            },
            {
              "internalType": "string",
              "name": "proposalName",
              "type": "string"
            },
            {
              "internalType": "string",
              "name": "proposalDesc",
              "type": "string"
            },
            {
              "internalType": "address",
              "name": "proposer",
              "type": "address"
            },
            {
              "internalType": "uint256",
              "name": "proposalAmount",
              "type": "uint256"
            },
            {
              "internalType": "uint256",
              "name": "forVotes",
              "type": "uint256"
            },
            {
              "internalType": "uint256",
              "name": "forGovVotes",
              "type": "uint256"
            },
            {
              "internalType": "uint256",
              "name": "againstVotes",
              "type": "uint256"
            },
            {
              "internalType": "uint256",
              "name": "againstGovVotes",
              "type": "uint256"
            },
            {
              "internalType": "uint256",
              "name": "voteDeadline",
              "type": "uint256"
            },
            {
              "internalType": "bool",
              "name": "isValid",
              "type": "bool"
            },
            {
              "internalType": "bool",
              "name": "isPassed",
              "type": "bool"
            }
          ],
          "internalType": "struct DAO.Proposal",
          "name": "",
          "type": "tuple"
        }
      ],
      "stateMutability": "view",
      "type": "function"
    },
    {
      "inputs": [
        {
          "internalType": "address",
          "name": "_sender",
          "type": "address"
        }
      ],
      "name": "getProposalByAddress",
      "outputs": [
        {
          "components": [
            {
              "internalType": "uint256",
              "name": "proposalID",
              "type": "uint256"
            },
            {
              "internalType": "string",
              "name": "proposalName",
              "type": "string"
            },
            {
              "internalType": "string",
              "name": "proposalDesc",
              "type": "string"
            },
            {
              "internalType": "address",
              "name": "proposer",
              "type": "address"
            },
            {
              "internalType": "uint256",
              "name": "proposalAmount",
              "type": "uint256"
            },
            {
              "internalType": "uint256",
              "name": "forVotes",
              "type": "uint256"
            },
            {
              "internalType": "uint256",
              "name": "forGovVotes",
              "type": "uint256"
            },
            {
              "internalType": "uint256",
              "name": "againstVotes",
              "type": "uint256"
            },
            {
              "internalType": "uint256",
              "name": "againstGovVotes",
              "type": "uint256"
            },
            {
              "internalType": "uint256",
              "name": "voteDeadline",
              "type": "uint256"
            },
            {
              "internalType": "bool",
              "name": "isValid",
              "type": "bool"
            },
            {
              "internalType": "bool",
              "name": "isPassed",
              "type": "bool"
            }
          ],
          "internalType": "struct DAO.Proposal[]",
          "name": "",
          "type": "tuple[]"
        }
      ],
      "stateMutability": "view",
      "type": "function"
    },
    {
      "inputs": [
        {
          "internalType": "address",
          "name": "",
          "type": "address"
        }
      ],
      "name": "isGovOfficial",
      "outputs": [
        {
          "internalType": "bool",
          "name": "",
          "type": "bool"
        }
      ],
      "stateMutability": "view",
      "type": "function"
    },
    {
      "inputs": [
        {
          "internalType": "string",
          "name": "_proposalName",
          "type": "string"
        },
        {
          "internalType": "string",
          "name": "_proposalDesc",
          "type": "string"
        },
        {
          "internalType": "uint256",
          "name": "amount",
          "type": "uint256"
        }
      ],
      "name": "makeProposal",
      "outputs": [
        {
          "internalType": "bool",
          "name": "",
          "type": "bool"
        }
      ],
      "stateMutability": "payable",
      "type": "function"
    },
    {
      "inputs": [
        {
          "internalType": "address",
          "name": "",
          "type": "address"
        },
        {
          "internalType": "uint256",
          "name": "",
          "type": "uint256"
        }
      ],
      "name": "myProposals",
      "outputs": [
        {
          "internalType": "uint256",
          "name": "proposalID",
          "type": "uint256"
        },
        {
          "internalType": "string",
          "name": "proposalName",
          "type": "string"
        },
        {
          "internalType": "string",
          "name": "proposalDesc",
          "type": "string"
        },
        {
          "internalType": "address",
          "name": "proposer",
          "type": "address"
        },
        {
          "internalType": "uint256",
          "name": "proposalAmount",
          "type": "uint256"
        },
        {
          "internalType": "uint256",
          "name": "forVotes",
          "type": "uint256"
        },
        {
          "internalType": "uint256",
          "name": "forGovVotes",
          "type": "uint256"
        },
        {
          "internalType": "uint256",
          "name": "againstVotes",
          "type": "uint256"
        },
        {
          "internalType": "uint256",
          "name": "againstGovVotes",
          "type": "uint256"
        },
        {
          "internalType": "uint256",
          "name": "voteDeadline",
          "type": "uint256"
        },
        {
          "internalType": "bool",
          "name": "isValid",
          "type": "bool"
        },
        {
          "internalType": "bool",
          "name": "isPassed",
          "type": "bool"
        }
      ],
      "stateMutability": "view",
      "type": "function"
    },
    {
      "inputs": [
        {
          "internalType": "uint256",
          "name": "_id",
          "type": "uint256"
        }
      ],
      "name": "voteAgainst",
      "outputs": [
        {
          "internalType": "bool",
          "name": "value",
          "type": "bool"
        }
      ],
      "stateMutability": "payable",
      "type": "function"
    },
    {
      "inputs": [
        {
          "internalType": "uint256",
          "name": "_id",
          "type": "uint256"
        }
      ],
      "name": "voteFor",
      "outputs": [
        {
          "internalType": "bool",
          "name": "value",
          "type": "bool"
        }
      ],
      "stateMutability": "payable",
      "type": "function"
    },
    {
      "inputs": [
        {
          "internalType": "address",
          "name": "",
          "type": "address"
        },
        {
          "internalType": "uint256",
          "name": "",
          "type": "uint256"
        }
      ],
      "name": "voteStatus",
      "outputs": [
        {
          "internalType": "bool",
          "name": "",
          "type": "bool"
        }
      ],
      "stateMutability": "view",
      "type": "function"
    },
    {
      "inputs": [],
      "name": "wipeBalance",
      "outputs": [],
      "stateMutability": "nonpayable",
      "type": "function"
    },
    {
      "stateMutability": "payable",
      "type": "receive"
    }
  ],
  "bytecode": "0x6080604052600060015534801561001557600080fd5b506001600460003373ffffffffffffffffffffffffffffffffffffffff1673ffffffffffffffffffffffffffffffffffffffff16815260200190815260200160002060006101000a81548160ff0219169083151502179055506137798061007d6000396000f3fe6080604052600436106101025760003560e01c8063750e443a11610095578063a2e7ba9e11610064578063a2e7ba9e1461047a578063ae677d8c146104b7578063c7f758a8146104f4578063cceb68f514610531578063ed88c68e1461055c57610194565b8063750e443a1461039557806386a50535146103c5578063938351b8146103f5578063997afb9d1461043d57610194565b8063380e5e44116100d1578063380e5e44146102c957806348985deb146102f95780636dfba3251461034157806371e8ff011461037e57610194565b8063089433ea1461022157806312065fe01461024a5780631840f0ca1461027557806336ffa9051461029e57610194565b366101945734600360003373ffffffffffffffffffffffffffffffffffffffff1673ffffffffffffffffffffffffffffffffffffffff1681526020019081526020016000206000828254610156919061326e565b925050819055507f3d27d812b049caf41fcc29cadcf63d52ad2b9f285ff79d360653b0a29bd8dbb460405161018a90613083565b60405180910390a1005b34600360003373ffffffffffffffffffffffffffffffffffffffff1673ffffffffffffffffffffffffffffffffffffffff16815260200190815260200160002060008282546101e3919061326e565b925050819055507f3d27d812b049caf41fcc29cadcf63d52ad2b9f285ff79d360653b0a29bd8dbb460405161021790613083565b60405180910390a1005b34801561022d57600080fd5b5061024860048036038101906102439190612a2c565b610566565b005b34801561025657600080fd5b5061025f61064d565b60405161026c9190613125565b60405180910390f35b34801561028157600080fd5b5061029c60048036038101906102979190612b1a565b610655565b005b3480156102aa57600080fd5b506102b3610d92565b6040516102c09190612fc6565b60405180910390f35b6102e360048036038101906102de9190612a91565b611025565b6040516102f09190612fe8565b60405180910390f35b34801561030557600080fd5b50610320600480360381019061031b9190612a55565b6114de565b6040516103389c9b9a99989796959493929190613140565b60405180910390f35b34801561034d57600080fd5b5061036860048036038101906103639190612a55565b6116a5565b6040516103759190612fe8565b60405180910390f35b34801561038a57600080fd5b506103936116d4565b005b6103af60048036038101906103aa9190612b1a565b6117a9565b6040516103bc9190612fe8565b60405180910390f35b6103df60048036038101906103da9190612b1a565b611b40565b6040516103ec9190612fe8565b60405180910390f35b34801561040157600080fd5b5061041c60048036038101906104179190612b1a565b611ed7565b6040516104349c9b9a99989796959493929190613140565b60405180910390f35b34801561044957600080fd5b50610464600480360381019061045f9190612a2c565b612091565b6040516104719190612fc6565b60405180910390f35b34801561048657600080fd5b506104a1600480360381019061049c9190612a2c565b612326565b6040516104ae9190612fe8565b60405180910390f35b3480156104c357600080fd5b506104de60048036038101906104d99190612a2c565b612346565b6040516104eb9190613125565b60405180910390f35b34801561050057600080fd5b5061051b60048036038101906105169190612b1a565b61235e565b6040516105289190613103565b60405180910390f35b34801561053d57600080fd5b506105466125b7565b6040516105539190612fc6565b60405180910390f35b61056461280d565b005b600460003373ffffffffffffffffffffffffffffffffffffffff1673ffffffffffffffffffffffffffffffffffffffff16815260200190815260200160002060009054906101000a900460ff166105f2576040517f08c379a00000000000000000000000000000000000000000000000000000000081526004016105e9906130c3565b60405180910390fd5b6001600460008373ffffffffffffffffffffffffffffffffffffffff1673ffffffffffffffffffffffffffffffffffffffff16815260200190815260200160002060006101000a81548160ff02191690831515021790555050565b600047905090565b60008060008381548110610692577f4e487b7100000000000000000000000000000000000000000000000000000000600052603260045260246000fd5b90600052602060002090600b02016004015447116106e5576040517f08c379a00000000000000000000000000000000000000000000000000000000081526004016106dc906130e3565b60405180910390fd5b6000838154811061071f577f4e487b7100000000000000000000000000000000000000000000000000000000600052603260045260246000fd5b90600052602060002090600b0201600a0160019054906101000a900460ff161561077e576040517f08c379a000000000000000000000000000000000000000000000000000000000815260040161077590613063565b60405180910390fd5b600083815481106107b8577f4e487b7100000000000000000000000000000000000000000000000000000000600052603260045260246000fd5b90600052602060002090600b0201600a0160009054906101000a900460ff1615610817576040517f08c379a000000000000000000000000000000000000000000000000000000000815260040161080e90613043565b60405180910390fd5b60008381548110610851577f4e487b7100000000000000000000000000000000000000000000000000000000600052603260045260246000fd5b90600052602060002090600b0201600701546000848154811061089d577f4e487b7100000000000000000000000000000000000000000000000000000000600052603260045260246000fd5b90600052602060002090600b02016005015411156108c9576007826108c291906132c4565b9150610977565b60008381548110610903577f4e487b7100000000000000000000000000000000000000000000000000000000600052603260045260246000fd5b90600052602060002090600b0201600701546000848154811061094f577f4e487b7100000000000000000000000000000000000000000000000000000000600052603260045260246000fd5b90600052602060002090600b020160050154116109765760078161097391906132c4565b90505b5b600083815481106109b1577f4e487b7100000000000000000000000000000000000000000000000000000000600052603260045260246000fd5b90600052602060002090600b020160080154600084815481106109fd577f4e487b7100000000000000000000000000000000000000000000000000000000600052603260045260246000fd5b90600052602060002090600b0201600601541115610a2957600382610a2291906132c4565b9150610ad7565b60008381548110610a63577f4e487b7100000000000000000000000000000000000000000000000000000000600052603260045260246000fd5b90600052602060002090600b02016008015460008481548110610aaf577f4e487b7100000000000000000000000000000000000000000000000000000000600052603260045260246000fd5b90600052602060002090600b02016006015411610ad657600381610ad391906132c4565b90505b5b8060ff168260ff161115610cc657600160008481548110610b21577f4e487b7100000000000000000000000000000000000000000000000000000000600052603260045260246000fd5b90600052602060002090600b0201600a0160016101000a81548160ff0219169083151502179055506000808481548110610b84577f4e487b7100000000000000000000000000000000000000000000000000000000600052603260045260246000fd5b90600052602060002090600b0201600a0160006101000a81548160ff02191690831515021790555060008381548110610be6577f4e487b7100000000000000000000000000000000000000000000000000000000600052603260045260246000fd5b90600052602060002090600b020160030160009054906101000a900473ffffffffffffffffffffffffffffffffffffffff1673ffffffffffffffffffffffffffffffffffffffff166108fc6064605f60008781548110610c6f577f4e487b7100000000000000000000000000000000000000000000000000000000600052603260045260246000fd5b90600052602060002090600b020160040154610c8b919061332c565b610c9591906132fb565b9081150290604051600060405180830381858888f19350505050158015610cc0573d6000803e3d6000fd5b50610d8d565b6000808481548110610d01577f4e487b7100000000000000000000000000000000000000000000000000000000600052603260045260246000fd5b90600052602060002090600b0201600a0160016101000a81548160ff0219169083151502179055506000808481548110610d64577f4e487b7100000000000000000000000000000000000000000000000000000000600052603260045260246000fd5b90600052602060002090600b0201600a0160006101000a81548160ff0219169083151502179055505b505050565b6060600260003273ffffffffffffffffffffffffffffffffffffffff1673ffffffffffffffffffffffffffffffffffffffff168152602001908152602001600020805480602002602001604051908101604052809291908181526020016000905b8282101561101c57838290600052602060002090600b02016040518061018001604052908160008201548152602001600182018054610e3190613442565b80601f0160208091040260200160405190810160405280929190818152602001828054610e5d90613442565b8015610eaa5780601f10610e7f57610100808354040283529160200191610eaa565b820191906000526020600020905b815481529060010190602001808311610e8d57829003601f168201915b50505050508152602001600282018054610ec390613442565b80601f0160208091040260200160405190810160405280929190818152602001828054610eef90613442565b8015610f3c5780601f10610f1157610100808354040283529160200191610f3c565b820191906000526020600020905b815481529060010190602001808311610f1f57829003601f168201915b505050505081526020016003820160009054906101000a900473ffffffffffffffffffffffffffffffffffffffff1673ffffffffffffffffffffffffffffffffffffffff1673ffffffffffffffffffffffffffffffffffffffff168152602001600482015481526020016005820154815260200160068201548152602001600782015481526020016008820154815260200160098201548152602001600a820160009054906101000a900460ff16151515158152602001600a820160019054906101000a900460ff16151515158152505081526020019060010190610df3565b50505050905090565b600067016345785d8a0000341015611072576040517f08c379a0000000000000000000000000000000000000000000000000000000008152600401611069906130a3565b60405180910390fd5b34600360003373ffffffffffffffffffffffffffffffffffffffff1673ffffffffffffffffffffffffffffffffffffffff16815260200190815260200160002060008282546110c1919061326e565b925050819055506110d061289a565b60015481600001818152505086868080601f016020809104026020016040519081016040528093929190818152602001838380828437600081840152601f19601f82011690508083019250505050505050816020018190525084848080601f016020809104026020016040519081016040528093929190818152602001838380828437600081840152601f19601f8201169050808301925050505050505081604001819052508281608001818152505032816060019073ffffffffffffffffffffffffffffffffffffffff16908173ffffffffffffffffffffffffffffffffffffffff168152505060008160a001818152505060008160e001818152505060f0426111db919061326e565b8161012001818152505060018161014001901515908115158152505060008161016001901515908115158152505060008190806001815401808255809150506001900390600052602060002090600b020160009091909190915060008201518160000155602082015181600101908051906020019061125b929190612915565b506040820151816002019080519060200190611278929190612915565b5060608201518160030160006101000a81548173ffffffffffffffffffffffffffffffffffffffff021916908373ffffffffffffffffffffffffffffffffffffffff1602179055506080820151816004015560a0820151816005015560c0820151816006015560e082015181600701556101008201518160080155610120820151816009015561014082015181600a0160006101000a81548160ff02191690831515021790555061016082015181600a0160016101000a81548160ff0219169083151502179055505050600260003273ffffffffffffffffffffffffffffffffffffffff1673ffffffffffffffffffffffffffffffffffffffff1681526020019081526020016000208190806001815401808255809150506001900390600052602060002090600b02016000909190919091506000820151816000015560208201518160010190805190602001906113d1929190612915565b5060408201518160020190805190602001906113ee929190612915565b5060608201518160030160006101000a81548173ffffffffffffffffffffffffffffffffffffffff021916908373ffffffffffffffffffffffffffffffffffffffff1602179055506080820151816004015560a0820151816005015560c0820151816006015560e082015181600701556101008201518160080155610120820151816009015561014082015181600a0160006101000a81548160ff02191690831515021790555061016082015181600a0160016101000a81548160ff0219169083151502179055505050600160008154809291906114cb90613474565b9190505550600191505095945050505050565b600260205281600052604060002081815481106114fa57600080fd5b90600052602060002090600b02016000915091505080600001549080600101805461152490613442565b80601f016020809104026020016040519081016040528092919081815260200182805461155090613442565b801561159d5780601f106115725761010080835404028352916020019161159d565b820191906000526020600020905b81548152906001019060200180831161158057829003601f168201915b5050505050908060020180546115b290613442565b80601f01602080910402602001604051908101604052809291908181526020018280546115de90613442565b801561162b5780601f106116005761010080835404028352916020019161162b565b820191906000526020600020905b81548152906001019060200180831161160e57829003601f168201915b5050505050908060030160009054906101000a900473ffffffffffffffffffffffffffffffffffffffff169080600401549080600501549080600601549080600701549080600801549080600901549080600a0160009054906101000a900460ff169080600a0160019054906101000a900460ff1690508c565b60056020528160005260406000206020528060005260406000206000915091509054906101000a900460ff1681565b600460003373ffffffffffffffffffffffffffffffffffffffff1673ffffffffffffffffffffffffffffffffffffffff16815260200190815260200160002060009054906101000a900460ff16611760576040517f08c379a000000000000000000000000000000000000000000000000000000000815260040161175790613023565b60405180910390fd5b3373ffffffffffffffffffffffffffffffffffffffff166108fc479081150290604051600060405180830381858888f193505050501580156117a6573d6000803e3d6000fd5b50565b600081426001600083815481106117e9577f4e487b7100000000000000000000000000000000000000000000000000000000600052603260045260246000fd5b90600052602060002090600b0201600901546118059190613386565b101561187c576000808281548110611846577f4e487b7100000000000000000000000000000000000000000000000000000000600052603260045260246000fd5b90600052602060002090600b0201600a0160006101000a81548160ff02191690831515021790555061187781610655565b611b3a565b600560003373ffffffffffffffffffffffffffffffffffffffff1673ffffffffffffffffffffffffffffffffffffffff168152602001908152602001600020600084815260200190815260200160002060009054906101000a900460ff161561191a576040517f08c379a000000000000000000000000000000000000000000000000000000000815260040161191190613003565b60405180910390fd5b6001600560003373ffffffffffffffffffffffffffffffffffffffff1673ffffffffffffffffffffffffffffffffffffffff168152602001908152602001600020600085815260200190815260200160002060006101000a81548160ff02191690831515021790555034600360003373ffffffffffffffffffffffffffffffffffffffff1673ffffffffffffffffffffffffffffffffffffffff16815260200190815260200160002060008282546119d2919061326e565b92505081905550600460003373ffffffffffffffffffffffffffffffffffffffff1673ffffffffffffffffffffffffffffffffffffffff16815260200190815260200160002060009054906101000a900460ff1615611a9357600160008481548110611a67577f4e487b7100000000000000000000000000000000000000000000000000000000600052603260045260246000fd5b90600052602060002090600b02016008016000828254611a87919061326e565b92505081905550611b35565b600360003373ffffffffffffffffffffffffffffffffffffffff1673ffffffffffffffffffffffffffffffffffffffff1681526020019081526020016000205460008481548110611b0d577f4e487b7100000000000000000000000000000000000000000000000000000000600052603260045260246000fd5b90600052602060002090600b02016007016000828254611b2d919061326e565b925050819055505b600191505b50919050565b60008142600160008381548110611b80577f4e487b7100000000000000000000000000000000000000000000000000000000600052603260045260246000fd5b90600052602060002090600b020160090154611b9c9190613386565b1015611c13576000808281548110611bdd577f4e487b7100000000000000000000000000000000000000000000000000000000600052603260045260246000fd5b90600052602060002090600b0201600a0160006101000a81548160ff021916908315150217905550611c0e81610655565b611ed1565b600560003373ffffffffffffffffffffffffffffffffffffffff1673ffffffffffffffffffffffffffffffffffffffff168152602001908152602001600020600084815260200190815260200160002060009054906101000a900460ff1615611cb1576040517f08c379a0000000000000000000000000000000000000000000000000000000008152600401611ca890613003565b60405180910390fd5b6001600560003373ffffffffffffffffffffffffffffffffffffffff1673ffffffffffffffffffffffffffffffffffffffff168152602001908152602001600020600085815260200190815260200160002060006101000a81548160ff02191690831515021790555034600360003373ffffffffffffffffffffffffffffffffffffffff1673ffffffffffffffffffffffffffffffffffffffff1681526020019081526020016000206000828254611d69919061326e565b92505081905550600460003373ffffffffffffffffffffffffffffffffffffffff1673ffffffffffffffffffffffffffffffffffffffff16815260200190815260200160002060009054906101000a900460ff1615611e2a57600160008481548110611dfe577f4e487b7100000000000000000000000000000000000000000000000000000000600052603260045260246000fd5b90600052602060002090600b02016006016000828254611e1e919061326e565b92505081905550611ecc565b600360003373ffffffffffffffffffffffffffffffffffffffff1673ffffffffffffffffffffffffffffffffffffffff1681526020019081526020016000205460008481548110611ea4577f4e487b7100000000000000000000000000000000000000000000000000000000600052603260045260246000fd5b90600052602060002090600b02016005016000828254611ec4919061326e565b925050819055505b600191505b50919050565b60008181548110611ee757600080fd5b90600052602060002090600b0201600091509050806000015490806001018054611f1090613442565b80601f0160208091040260200160405190810160405280929190818152602001828054611f3c90613442565b8015611f895780601f10611f5e57610100808354040283529160200191611f89565b820191906000526020600020905b815481529060010190602001808311611f6c57829003601f168201915b505050505090806002018054611f9e90613442565b80601f0160208091040260200160405190810160405280929190818152602001828054611fca90613442565b80156120175780601f10611fec57610100808354040283529160200191612017565b820191906000526020600020905b815481529060010190602001808311611ffa57829003601f168201915b5050505050908060030160009054906101000a900473ffffffffffffffffffffffffffffffffffffffff169080600401549080600501549080600601549080600701549080600801549080600901549080600a0160009054906101000a900460ff169080600a0160019054906101000a900460ff1690508c565b6060600260008373ffffffffffffffffffffffffffffffffffffffff1673ffffffffffffffffffffffffffffffffffffffff168152602001908152602001600020805480602002602001604051908101604052809291908181526020016000905b8282101561231b57838290600052602060002090600b0201604051806101800160405290816000820154815260200160018201805461213090613442565b80601f016020809104026020016040519081016040528092919081815260200182805461215c90613442565b80156121a95780601f1061217e576101008083540402835291602001916121a9565b820191906000526020600020905b81548152906001019060200180831161218c57829003601f168201915b505050505081526020016002820180546121c290613442565b80601f01602080910402602001604051908101604052809291908181526020018280546121ee90613442565b801561223b5780601f106122105761010080835404028352916020019161223b565b820191906000526020600020905b81548152906001019060200180831161221e57829003601f168201915b505050505081526020016003820160009054906101000a900473ffffffffffffffffffffffffffffffffffffffff1673ffffffffffffffffffffffffffffffffffffffff1673ffffffffffffffffffffffffffffffffffffffff168152602001600482015481526020016005820154815260200160068201548152602001600782015481526020016008820154815260200160098201548152602001600a820160009054906101000a900460ff16151515158152602001600a820160019054906101000a900460ff161515151581525050815260200190600101906120f2565b505050509050919050565b60046020528060005260406000206000915054906101000a900460ff1681565b60036020528060005260406000206000915090505481565b61236661289a565b600082815481106123a0577f4e487b7100000000000000000000000000000000000000000000000000000000600052603260045260246000fd5b90600052602060002090600b020160405180610180016040529081600082015481526020016001820180546123d490613442565b80601f016020809104026020016040519081016040528092919081815260200182805461240090613442565b801561244d5780601f106124225761010080835404028352916020019161244d565b820191906000526020600020905b81548152906001019060200180831161243057829003601f168201915b5050505050815260200160028201805461246690613442565b80601f016020809104026020016040519081016040528092919081815260200182805461249290613442565b80156124df5780601f106124b4576101008083540402835291602001916124df565b820191906000526020600020905b8154815290600101906020018083116124c257829003601f168201915b505050505081526020016003820160009054906101000a900473ffffffffffffffffffffffffffffffffffffffff1673ffffffffffffffffffffffffffffffffffffffff1673ffffffffffffffffffffffffffffffffffffffff168152602001600482015481526020016005820154815260200160068201548152602001600782015481526020016008820154815260200160098201548152602001600a820160009054906101000a900460ff16151515158152602001600a820160019054906101000a900460ff1615151515815250509050919050565b60606000805480602002602001604051908101604052809291908181526020016000905b8282101561280457838290600052602060002090600b0201604051806101800160405290816000820154815260200160018201805461261990613442565b80601f016020809104026020016040519081016040528092919081815260200182805461264590613442565b80156126925780601f1061266757610100808354040283529160200191612692565b820191906000526020600020905b81548152906001019060200180831161267557829003601f168201915b505050505081526020016002820180546126ab90613442565b80601f01602080910402602001604051908101604052809291908181526020018280546126d790613442565b80156127245780601f106126f957610100808354040283529160200191612724565b820191906000526020600020905b81548152906001019060200180831161270757829003601f168201915b505050505081526020016003820160009054906101000a900473ffffffffffffffffffffffffffffffffffffffff1673ffffffffffffffffffffffffffffffffffffffff1673ffffffffffffffffffffffffffffffffffffffff168152602001600482015481526020016005820154815260200160068201548152602001600782015481526020016008820154815260200160098201548152602001600a820160009054906101000a900460ff16151515158152602001600a820160019054906101000a900460ff161515151581525050815260200190600101906125db565b50505050905090565b34600360003373ffffffffffffffffffffffffffffffffffffffff1673ffffffffffffffffffffffffffffffffffffffff168152602001908152602001600020600082825461285c919061326e565b925050819055507f3d27d812b049caf41fcc29cadcf63d52ad2b9f285ff79d360653b0a29bd8dbb460405161289090613083565b60405180910390a1565b604051806101800160405280600081526020016060815260200160608152602001600073ffffffffffffffffffffffffffffffffffffffff1681526020016000815260200160008152602001600081526020016000815260200160008152602001600081526020016000151581526020016000151581525090565b82805461292190613442565b90600052602060002090601f016020900481019282612943576000855561298a565b82601f1061295c57805160ff191683800117855561298a565b8280016001018555821561298a579182015b8281111561298957825182559160200191906001019061296e565b5b509050612997919061299b565b5090565b5b808211156129b457600081600090555060010161299c565b5090565b6000813590506129c781613715565b92915050565b60008083601f8401126129df57600080fd5b8235905067ffffffffffffffff8111156129f857600080fd5b602083019150836001820283011115612a1057600080fd5b9250929050565b600081359050612a268161372c565b92915050565b600060208284031215612a3e57600080fd5b6000612a4c848285016129b8565b91505092915050565b60008060408385031215612a6857600080fd5b6000612a76858286016129b8565b9250506020612a8785828601612a17565b9150509250929050565b600080600080600060608688031215612aa957600080fd5b600086013567ffffffffffffffff811115612ac357600080fd5b612acf888289016129cd565b9550955050602086013567ffffffffffffffff811115612aee57600080fd5b612afa888289016129cd565b93509350506040612b0d88828901612a17565b9150509295509295909350565b600060208284031215612b2c57600080fd5b6000612b3a84828501612a17565b91505092915050565b6000612b4f8383612d92565b905092915050565b612b60816133ba565b82525050565b612b6f816133ba565b82525050565b6000612b8082613218565b612b8a818561323b565b935083602082028501612b9c85613208565b8060005b85811015612bd85784840389528151612bb98582612b43565b9450612bc48361322e565b925060208a01995050600181019050612ba0565b50829750879550505050505092915050565b612bf3816133cc565b82525050565b612c02816133cc565b82525050565b6000612c1382613223565b612c1d818561324c565b9350612c2d81856020860161340f565b612c368161354a565b840191505092915050565b6000612c4c82613223565b612c56818561325d565b9350612c6681856020860161340f565b612c6f8161354a565b840191505092915050565b6000612c87600d8361325d565b9150612c928261355b565b602082019050919050565b6000612caa60298361325d565b9150612cb582613584565b604082019050919050565b6000612ccd600f8361325d565b9150612cd8826135d3565b602082019050919050565b6000612cf0600e8361325d565b9150612cfb826135fc565b602082019050919050565b6000612d1360178361325d565b9150612d1e82613625565b602082019050919050565b6000612d3660218361325d565b9150612d418261364e565b604082019050919050565b6000612d59602b8361325d565b9150612d648261369d565b604082019050919050565b6000612d7c601c8361325d565b9150612d87826136ec565b602082019050919050565b600061018083016000830151612dab6000860182612fa8565b5060208301518482036020860152612dc38282612c08565b91505060408301518482036040860152612ddd8282612c08565b9150506060830151612df26060860182612b57565b506080830151612e056080860182612fa8565b5060a0830151612e1860a0860182612fa8565b5060c0830151612e2b60c0860182612fa8565b5060e0830151612e3e60e0860182612fa8565b50610100830151612e53610100860182612fa8565b50610120830151612e68610120860182612fa8565b50610140830151612e7d610140860182612bea565b50610160830151612e92610160860182612bea565b508091505092915050565b600061018083016000830151612eb66000860182612fa8565b5060208301518482036020860152612ece8282612c08565b91505060408301518482036040860152612ee88282612c08565b9150506060830151612efd6060860182612b57565b506080830151612f106080860182612fa8565b5060a0830151612f2360a0860182612fa8565b5060c0830151612f3660c0860182612fa8565b5060e0830151612f4960e0860182612fa8565b50610100830151612f5e610100860182612fa8565b50610120830151612f73610120860182612fa8565b50610140830151612f88610140860182612bea565b50610160830151612f9d610160860182612bea565b508091505092915050565b612fb1816133f8565b82525050565b612fc0816133f8565b82525050565b60006020820190508181036000830152612fe08184612b75565b905092915050565b6000602082019050612ffd6000830184612bf9565b92915050565b6000602082019050818103600083015261301c81612c7a565b9050919050565b6000602082019050818103600083015261303c81612c9d565b9050919050565b6000602082019050818103600083015261305c81612cc0565b9050919050565b6000602082019050818103600083015261307c81612ce3565b9050919050565b6000602082019050818103600083015261309c81612d06565b9050919050565b600060208201905081810360008301526130bc81612d29565b9050919050565b600060208201905081810360008301526130dc81612d4c565b9050919050565b600060208201905081810360008301526130fc81612d6f565b9050919050565b6000602082019050818103600083015261311d8184612e9d565b905092915050565b600060208201905061313a6000830184612fb7565b92915050565b600061018082019050613156600083018f612fb7565b8181036020830152613168818e612c41565b9050818103604083015261317c818d612c41565b905061318b606083018c612b66565b613198608083018b612fb7565b6131a560a083018a612fb7565b6131b260c0830189612fb7565b6131bf60e0830188612fb7565b6131cd610100830187612fb7565b6131db610120830186612fb7565b6131e9610140830185612bf9565b6131f7610160830184612bf9565b9d9c50505050505050505050505050565b6000819050602082019050919050565b600081519050919050565b600081519050919050565b6000602082019050919050565b600082825260208201905092915050565b600082825260208201905092915050565b600082825260208201905092915050565b6000613279826133f8565b9150613284836133f8565b9250827fffffffffffffffffffffffffffffffffffffffffffffffffffffffffffffffff038211156132b9576132b86134bd565b5b828201905092915050565b60006132cf82613402565b91506132da83613402565b92508260ff038211156132f0576132ef6134bd565b5b828201905092915050565b6000613306826133f8565b9150613311836133f8565b925082613321576133206134ec565b5b828204905092915050565b6000613337826133f8565b9150613342836133f8565b9250817fffffffffffffffffffffffffffffffffffffffffffffffffffffffffffffffff048311821515161561337b5761337a6134bd565b5b828202905092915050565b6000613391826133f8565b915061339c836133f8565b9250828210156133af576133ae6134bd565b5b828203905092915050565b60006133c5826133d8565b9050919050565b60008115159050919050565b600073ffffffffffffffffffffffffffffffffffffffff82169050919050565b6000819050919050565b600060ff82169050919050565b60005b8381101561342d578082015181840152602081019050613412565b8381111561343c576000848401525b50505050565b6000600282049050600182168061345a57607f821691505b6020821081141561346e5761346d61351b565b5b50919050565b600061347f826133f8565b91507fffffffffffffffffffffffffffffffffffffffffffffffffffffffffffffffff8214156134b2576134b16134bd565b5b600182019050919050565b7f4e487b7100000000000000000000000000000000000000000000000000000000600052601160045260246000fd5b7f4e487b7100000000000000000000000000000000000000000000000000000000600052601260045260246000fd5b7f4e487b7100000000000000000000000000000000000000000000000000000000600052602260045260246000fd5b6000601f19601f8301169050919050565b7f416c726561647920566f74656400000000000000000000000000000000000000600082015250565b7f5265717565737465722073686f756c64206265206120476f7665726e6d656e7460008201527f206f6666696369616c0000000000000000000000000000000000000000000000602082015250565b7f4e6f742045787069726564205965740000000000000000000000000000000000600082015250565b7f416c726561647920506173736564000000000000000000000000000000000000600082015250565b7f5468616e6b20796f7520666f7220646f6e6174696e6721000000000000000000600082015250565b7f4d696e696d756d20636f6e747269627574696f6e20697320302e31204d41544960008201527f4300000000000000000000000000000000000000000000000000000000000000602082015250565b7f4f6e6c7920476f76204f6666696369616c732063616e20637265617465206e6560008201527f77206f6666696369616c73000000000000000000000000000000000000000000602082015250565b7f4e6f7420656e6f7567682062616c616e636520746f207061796f757400000000600082015250565b61371e816133ba565b811461372957600080fd5b50565b613735816133f8565b811461374057600080fd5b5056fea2646970667358221220144772a8fad1fc2d3a50097d1f8b6437f5ea9d544c12c18879de953057b9c3b964736f6c63430008040033",
  "linkReferences": {},
  "deployedLinkReferences": {}
}