{
  "_format": "hh-sol-artifact-1",
  "contractName": "CharityDAO",
  "sourceName": "blockchain/contracts/CharityDAO.sol",
  "abi": [
    {
      "inputs": [
        {
          "internalType": "uint256",
          "name": "_globalBallotSeclusion",
          "type": "uint256"
        },
        {
          "internalType": "uint256",
          "name": "_globalDeadline",
          "type": "uint256"
        }
      ],
      "stateMutability": "nonpayable",
      "type": "constructor"
    },
    {
      "anonymous": false,
      "inputs": [
        {
          "indexed": false,
          "internalType": "string",
          "name": "message",
          "type": "string"
        }
      ],
      "name": "InfoMessage",
      "type": "event"
    },
    {
      "anonymous": false,
      "inputs": [
        {
          "indexed": false,
          "internalType": "string",
          "name": "message",
          "type": "string"
        }
      ],
      "name": "ThanksMessage",
      "type": "event"
    },
    {
      "stateMutability": "payable",
      "type": "fallback"
    },
    {
      "inputs": [
        {
          "internalType": "address",
          "name": "_member",
          "type": "address"
        }
      ],
      "name": "addAdmin",
      "outputs": [],
      "stateMutability": "nonpayable",
      "type": "function"
    },
    {
      "inputs": [
        {
          "internalType": "uint256",
          "name": "",
          "type": "uint256"
        }
      ],
      "name": "allProposals",
      "outputs": [
        {
          "internalType": "uint256",
          "name": "proposalID",
          "type": "uint256"
        },
        {
          "internalType": "uint256",
          "name": "proposalPrice",
          "type": "uint256"
        },
        {
          "internalType": "uint256",
          "name": "ballotSeclusion",
          "type": "uint256"
        },
        {
          "internalType": "uint256",
          "name": "voteDeadline",
          "type": "uint256"
        },
        {
          "components": [
            {
              "internalType": "uint256",
              "name": "forVotes",
              "type": "uint256"
            },
            {
              "internalType": "uint256",
              "name": "forVotesGov",
              "type": "uint256"
            },
            {
              "internalType": "uint256",
              "name": "againstVotes",
              "type": "uint256"
            },
            {
              "internalType": "uint256",
              "name": "againstVotesGov",
              "type": "uint256"
            }
          ],
          "internalType": "struct CharityDAO.Ballot",
          "name": "ballot",
          "type": "tuple"
        },
        {
          "internalType": "string",
          "name": "proposalName",
          "type": "string"
        },
        {
          "internalType": "string",
          "name": "proposalDesc",
          "type": "string"
        },
        {
          "internalType": "address payable",
          "name": "beneficiaryWallet",
          "type": "address"
        },
        {
          "internalType": "address",
          "name": "proposerWallet",
          "type": "address"
        },
        {
          "internalType": "bool",
          "name": "isProposedByAdmin",
          "type": "bool"
        },
        {
          "internalType": "bool",
          "name": "isApproved",
          "type": "bool"
        },
        {
          "internalType": "bool",
          "name": "isPassed",
          "type": "bool"
        }
      ],
      "stateMutability": "view",
      "type": "function"
    },
    {
      "inputs": [
        {
          "internalType": "bool",
          "name": "_isAnonymous",
          "type": "bool"
        }
      ],
      "name": "donate",
      "outputs": [],
      "stateMutability": "payable",
      "type": "function"
    },
    {
      "inputs": [
        {
          "internalType": "address",
          "name": "",
          "type": "address"
        }
      ],
      "name": "isAdmin",
      "outputs": [
        {
          "internalType": "bool",
          "name": "",
          "type": "bool"
        }
      ],
      "stateMutability": "view",
      "type": "function"
    },
    {
      "inputs": [
        {
          "internalType": "string",
          "name": "_proposalName",
          "type": "string"
        },
        {
          "internalType": "string",
          "name": "_proposalDesc",
          "type": "string"
        },
        {
          "internalType": "uint256",
          "name": "_proposalPrice",
          "type": "uint256"
        },
        {
          "internalType": "address payable",
          "name": "_beneficiaryWallet",
          "type": "address"
        }
      ],
      "name": "makeProposal",
      "outputs": [
        {
          "internalType": "bool",
          "name": "",
          "type": "bool"
        }
      ],
      "stateMutability": "nonpayable",
      "type": "function"
    },
    {
      "inputs": [
        {
          "internalType": "string",
          "name": "_pitch",
          "type": "string"
        }
      ],
      "name": "makeRightsDonationProposal",
      "outputs": [],
      "stateMutability": "nonpayable",
      "type": "function"
    },
    {
      "inputs": [
        {
          "internalType": "address",
          "name": "",
          "type": "address"
        },
        {
          "internalType": "uint256",
          "name": "",
          "type": "uint256"
        }
      ],
      "name": "myProposals",
      "outputs": [
        {
          "internalType": "uint256",
          "name": "proposalID",
          "type": "uint256"
        },
        {
          "internalType": "uint256",
          "name": "proposalPrice",
          "type": "uint256"
        },
        {
          "internalType": "uint256",
          "name": "ballotSeclusion",
          "type": "uint256"
        },
        {
          "internalType": "uint256",
          "name": "voteDeadline",
          "type": "uint256"
        },
        {
          "components": [
            {
              "internalType": "uint256",
              "name": "forVotes",
              "type": "uint256"
            },
            {
              "internalType": "uint256",
              "name": "forVotesGov",
              "type": "uint256"
            },
            {
              "internalType": "uint256",
              "name": "againstVotes",
              "type": "uint256"
            },
            {
              "internalType": "uint256",
              "name": "againstVotesGov",
              "type": "uint256"
            }
          ],
          "internalType": "struct CharityDAO.Ballot",
          "name": "ballot",
          "type": "tuple"
        },
        {
          "internalType": "string",
          "name": "proposalName",
          "type": "string"
        },
        {
          "internalType": "string",
          "name": "proposalDesc",
          "type": "string"
        },
        {
          "internalType": "address payable",
          "name": "beneficiaryWallet",
          "type": "address"
        },
        {
          "internalType": "address",
          "name": "proposerWallet",
          "type": "address"
        },
        {
          "internalType": "bool",
          "name": "isProposedByAdmin",
          "type": "bool"
        },
        {
          "internalType": "bool",
          "name": "isApproved",
          "type": "bool"
        },
        {
          "internalType": "bool",
          "name": "isPassed",
          "type": "bool"
        }
      ],
      "stateMutability": "view",
      "type": "function"
    },
    {
      "inputs": [
        {
          "internalType": "address",
          "name": "",
          "type": "address"
        }
      ],
      "name": "myVotingRightsRequest",
      "outputs": [
        {
          "internalType": "uint256",
          "name": "id",
          "type": "uint256"
        },
        {
          "internalType": "address",
          "name": "proposer",
          "type": "address"
        },
        {
          "internalType": "uint256",
          "name": "hasBeenDonated",
          "type": "uint256"
        },
        {
          "internalType": "string",
          "name": "pitch",
          "type": "string"
        }
      ],
      "stateMutability": "view",
      "type": "function"
    },
    {
      "inputs": [
        {
          "internalType": "address",
          "name": "_member",
          "type": "address"
        }
      ],
      "name": "removeAdmin",
      "outputs": [],
      "stateMutability": "nonpayable",
      "type": "function"
    },
    {
      "inputs": [
        {
          "internalType": "uint256",
          "name": "_id",
          "type": "uint256"
        },
        {
          "internalType": "uint256",
          "name": "_value",
          "type": "uint256"
        }
      ],
      "name": "setBallotSeclusionById",
      "outputs": [],
      "stateMutability": "nonpayable",
      "type": "function"
    },
    {
      "inputs": [
        {
          "internalType": "uint256",
          "name": "_value",
          "type": "uint256"
        }
      ],
      "name": "setGlobalBallotSeclusion",
      "outputs": [],
      "stateMutability": "nonpayable",
      "type": "function"
    },
    {
      "inputs": [
        {
          "internalType": "address",
          "name": "",
          "type": "address"
        }
      ],
      "name": "totalIndividualDonations",
      "outputs": [
        {
          "internalType": "uint256",
          "name": "",
          "type": "uint256"
        }
      ],
      "stateMutability": "view",
      "type": "function"
    },
    {
      "inputs": [
        {
          "internalType": "address",
          "name": "",
          "type": "address"
        }
      ],
      "name": "votingRights",
      "outputs": [
        {
          "internalType": "uint256",
          "name": "",
          "type": "uint256"
        }
      ],
      "stateMutability": "view",
      "type": "function"
    },
    {
      "inputs": [
        {
          "internalType": "uint256",
          "name": "",
          "type": "uint256"
        }
      ],
      "name": "votingRightsRequestQueue",
      "outputs": [
        {
          "internalType": "uint256",
          "name": "id",
          "type": "uint256"
        },
        {
          "internalType": "address",
          "name": "proposer",
          "type": "address"
        },
        {
          "internalType": "uint256",
          "name": "hasBeenDonated",
          "type": "uint256"
        },
        {
          "internalType": "string",
          "name": "pitch",
          "type": "string"
        }
      ],
      "stateMutability": "view",
      "type": "function"
    },
    {
      "stateMutability": "payable",
      "type": "receive"
    }
  ],
  "bytecode": "0x60806040523480156200001157600080fd5b5060405162002b5b38038062002b5b833981810160405281019062000037919062000128565b60648210801562000049575060008210155b6200008b576040517f08c379a0000000000000000000000000000000000000000000000000000000008152600401620000829062000190565b60405180910390fd5b81600081905550806001819055506000600281905550600060038190555060006004819055506001600560003373ffffffffffffffffffffffffffffffffffffffff1673ffffffffffffffffffffffffffffffffffffffff16815260200190815260200160002060006101000a81548160ff021916908315150217905550505062000236565b60008151905062000122816200021c565b92915050565b600080604083850312156200013c57600080fd5b60006200014c8582860162000111565b92505060206200015f8582860162000111565b9150509250929050565b600062000178602a83620001b2565b91506200018582620001cd565b604082019050919050565b60006020820190508181036000830152620001ab8162000169565b9050919050565b600082825260208201905092915050565b6000819050919050565b7f43616e6e6f742063726f7373203939252e2055736520612076616c756520626560008201527f747765656e20302d393900000000000000000000000000000000000000000000602082015250565b6200022781620001c3565b81146200023357600080fd5b50565b61291580620002466000396000f3fe6080604052600436106100e15760003560e01c8063583f5ba11161007f578063938351b811610059578063938351b814610502578063a8fef1001461054a578063d459156314610587578063fda4527a146105b0576101f3565b8063583f5ba11461045c578063704802751461049c5780638c67d420146104c5576101f3565b8063318670cb116100bb578063318670cb1461038f5780633bcfe167146103cf578063412fc32a146103f857806348985deb14610414576101f3565b80631785f53c1461030057806324d7806c1461032957806327b7c1ba14610366576101f3565b366101f35734600860003373ffffffffffffffffffffffffffffffffffffffff1673ffffffffffffffffffffffffffffffffffffffff16815260200190815260200160002060008282546101359190612346565b92505081905550346002600082825461014e9190612346565b92505081905550655af3107a400034610167919061239c565b600660003373ffffffffffffffffffffffffffffffffffffffff1673ffffffffffffffffffffffffffffffffffffffff16815260200190815260200160002060008282546101b59190612346565b925050819055507f3d27d812b049caf41fcc29cadcf63d52ad2b9f285ff79d360653b0a29bd8dbb46040516101e990612082565b60405180910390a1005b34600860003373ffffffffffffffffffffffffffffffffffffffff1673ffffffffffffffffffffffffffffffffffffffff16815260200190815260200160002060008282546102429190612346565b92505081905550346002600082825461025b9190612346565b92505081905550655af3107a400034610274919061239c565b600660003373ffffffffffffffffffffffffffffffffffffffff1673ffffffffffffffffffffffffffffffffffffffff16815260200190815260200160002060008282546102c29190612346565b925050819055507f3d27d812b049caf41fcc29cadcf63d52ad2b9f285ff79d360653b0a29bd8dbb46040516102f690612082565b60405180910390a1005b34801561030c57600080fd5b5061032760048036038101906103229190611c84565b6105ed565b005b34801561033557600080fd5b50610350600480360381019061034b9190611c84565b6106d4565b60405161035d9190612067565b60405180910390f35b34801561037257600080fd5b5061038d60048036038101906103889190611e17565b6106f4565b005b34801561039b57600080fd5b506103b660048036038101906103b19190611c84565b6108c3565b6040516103c694939291906121bd565b60405180910390f35b3480156103db57600080fd5b506103f660048036038101906103f19190611dad565b61099b565b005b610412600480360381019061040d9190611ce9565b610be3565b005b34801561042057600080fd5b5061043b60048036038101906104369190611cad565b610cc2565b6040516104539c9b9a99989796959493929190612209565b60405180910390f35b34801561046857600080fd5b50610483600480360381019061047e9190611dee565b610ee8565b60405161049394939291906121bd565b60405180910390f35b3480156104a857600080fd5b506104c360048036038101906104be9190611c84565b610fd0565b005b3480156104d157600080fd5b506104ec60048036038101906104e79190611d12565b6110b7565b6040516104f99190612067565b60405180910390f35b34801561050e57600080fd5b5061052960048036038101906105249190611dee565b611777565b6040516105419c9b9a99989796959493929190612209565b60405180910390f35b34801561055657600080fd5b50610571600480360381019061056c9190611c84565b611990565b60405161057e91906121a2565b60405180910390f35b34801561059357600080fd5b506105ae60048036038101906105a99190611dee565b6119a8565b005b3480156105bc57600080fd5b506105d760048036038101906105d29190611c84565b611ac3565b6040516105e491906121a2565b60405180910390f35b600560003373ffffffffffffffffffffffffffffffffffffffff1673ffffffffffffffffffffffffffffffffffffffff16815260200190815260200160002060009054906101000a900460ff16610679576040517f08c379a000000000000000000000000000000000000000000000000000000000815260040161067090612142565b60405180910390fd5b6000600560008373ffffffffffffffffffffffffffffffffffffffff1673ffffffffffffffffffffffffffffffffffffffff16815260200190815260200160002060006101000a81548160ff02191690831515021790555050565b60056020528060005260406000206000915054906101000a900460ff1681565b600560003373ffffffffffffffffffffffffffffffffffffffff1673ffffffffffffffffffffffffffffffffffffffff16815260200190815260200160002060009054906101000a900460ff16610780576040517f08c379a000000000000000000000000000000000000000000000000000000000815260040161077790612142565b60405180910390fd5b600b82815481106107ba577f4e487b7100000000000000000000000000000000000000000000000000000000600052603260045260246000fd5b90600052602060002090600c0201600b0160159054906101000a900460ff16610818576040517f08c379a000000000000000000000000000000000000000000000000000000000815260040161080f90612162565b60405180910390fd5b6000600b8381548110610854577f4e487b7100000000000000000000000000000000000000000000000000000000600052603260045260246000fd5b90600052602060002090600c0201905080600b0160159054906101000a900460ff166108b5576040517f08c379a00000000000000000000000000000000000000000000000000000000081526004016108ac90612122565b60405180910390fd5b818160020181905550505050565b60096020528060005260406000206000915090508060000154908060010160009054906101000a900473ffffffffffffffffffffffffffffffffffffffff169080600201549080600301805461091890612469565b80601f016020809104026020016040519081016040528092919081815260200182805461094490612469565b80156109915780601f1061096657610100808354040283529160200191610991565b820191906000526020600020905b81548152906001019060200180831161097457829003601f168201915b5050505050905084565b600560003373ffffffffffffffffffffffffffffffffffffffff1673ffffffffffffffffffffffffffffffffffffffff16815260200190815260200160002060009054906101000a900460ff1615610a28576040517f08c379a0000000000000000000000000000000000000000000000000000000008152600401610a1f906120a2565b60405180910390fd5b6000604051806080016040528060045481526020013373ffffffffffffffffffffffffffffffffffffffff16815260200160008152602001838152509050600a8190806001815401808255809150506001900390600052602060002090600402016000909190919091506000820151816000015560208201518160010160006101000a81548173ffffffffffffffffffffffffffffffffffffffff021916908373ffffffffffffffffffffffffffffffffffffffff160217905550604082015181600201556060820151816003019080519060200190610b09929190611adb565b50505080600960003373ffffffffffffffffffffffffffffffffffffffff1673ffffffffffffffffffffffffffffffffffffffff1681526020019081526020016000206000820151816000015560208201518160010160006101000a81548173ffffffffffffffffffffffffffffffffffffffff021916908373ffffffffffffffffffffffffffffffffffffffff160217905550604082015181600201556060820151816003019080519060200190610bc3929190611adb565b5090505060046000815480929190610bda906124cc565b91905055505050565b3460026000828254610bf59190612346565b9250508190555080610cbf5734600860003373ffffffffffffffffffffffffffffffffffffffff1673ffffffffffffffffffffffffffffffffffffffff1681526020019081526020016000206000828254610c509190612346565b92505081905550655af3107a400034610c69919061239c565b600660003373ffffffffffffffffffffffffffffffffffffffff1673ffffffffffffffffffffffffffffffffffffffff1681526020019081526020016000206000828254610cb79190612346565b925050819055505b50565b60076020528160005260406000208181548110610cde57600080fd5b90600052602060002090600c0201600091509150508060000154908060010154908060020154908060030154908060040160405180608001604052908160008201548152602001600182015481526020016002820154815260200160038201548152505090806008018054610d5290612469565b80601f0160208091040260200160405190810160405280929190818152602001828054610d7e90612469565b8015610dcb5780601f10610da057610100808354040283529160200191610dcb565b820191906000526020600020905b815481529060010190602001808311610dae57829003601f168201915b505050505090806009018054610de090612469565b80601f0160208091040260200160405190810160405280929190818152602001828054610e0c90612469565b8015610e595780601f10610e2e57610100808354040283529160200191610e59565b820191906000526020600020905b815481529060010190602001808311610e3c57829003601f168201915b50505050509080600a0160009054906101000a900473ffffffffffffffffffffffffffffffffffffffff169080600b0160009054906101000a900473ffffffffffffffffffffffffffffffffffffffff169080600b0160149054906101000a900460ff169080600b0160159054906101000a900460ff169080600b0160169054906101000a900460ff1690508c565b600a8181548110610ef857600080fd5b90600052602060002090600402016000915090508060000154908060010160009054906101000a900473ffffffffffffffffffffffffffffffffffffffff1690806002015490806003018054610f4d90612469565b80601f0160208091040260200160405190810160405280929190818152602001828054610f7990612469565b8015610fc65780601f10610f9b57610100808354040283529160200191610fc6565b820191906000526020600020905b815481529060010190602001808311610fa957829003601f168201915b5050505050905084565b600560003373ffffffffffffffffffffffffffffffffffffffff1673ffffffffffffffffffffffffffffffffffffffff16815260200190815260200160002060009054906101000a900460ff1661105c576040517f08c379a000000000000000000000000000000000000000000000000000000000815260040161105390612142565b60405180910390fd5b6001600560008373ffffffffffffffffffffffffffffffffffffffff1673ffffffffffffffffffffffffffffffffffffffff16815260200190815260200160002060006101000a81548160ff02191690831515021790555050565b600080600860003373ffffffffffffffffffffffffffffffffffffffff1673ffffffffffffffffffffffffffffffffffffffff168152602001908152602001600020541180611156575060011515600560003373ffffffffffffffffffffffffffffffffffffffff1673ffffffffffffffffffffffffffffffffffffffff16815260200190815260200160002060009054906101000a900460ff161515145b611195576040517f08c379a000000000000000000000000000000000000000000000000000000000815260040161118c90612102565b60405180910390fd5b6000600560003373ffffffffffffffffffffffffffffffffffffffff1673ffffffffffffffffffffffffffffffffffffffff16815260200190815260200160002060009054906101000a900460ff1690506000600560003373ffffffffffffffffffffffffffffffffffffffff1673ffffffffffffffffffffffffffffffffffffffff16815260200190815260200160002060009054906101000a900460ff16905060006040518061018001604052806003548152602001878152602001600054815260200160015481526020016040518060800160405280600081526020016000815260200160008152602001600081525081526020018b8b8080601f016020809104026020016040519081016040528093929190818152602001838380828437600081840152601f19601f82011690508083019250505050505050815260200189898080601f016020809104026020016040519081016040528093929190818152602001838380828437600081840152601f19601f8201169050808301925050505050505081526020018673ffffffffffffffffffffffffffffffffffffffff1681526020013373ffffffffffffffffffffffffffffffffffffffff16815260200184151581526020018315158152602001600015158152509050600b8190806001815401808255809150506001900390600052602060002090600c02016000909190919091506000820151816000015560208201518160010155604082015181600201556060820151816003015560808201518160040160008201518160000155602082015181600101556040820151816002015560608201518160030155505060a0820151816008019080519060200190611415929190611adb565b5060c0820151816009019080519060200190611432929190611adb565b5060e082015181600a0160006101000a81548173ffffffffffffffffffffffffffffffffffffffff021916908373ffffffffffffffffffffffffffffffffffffffff16021790555061010082015181600b0160006101000a81548173ffffffffffffffffffffffffffffffffffffffff021916908373ffffffffffffffffffffffffffffffffffffffff16021790555061012082015181600b0160146101000a81548160ff02191690831515021790555061014082015181600b0160156101000a81548160ff02191690831515021790555061016082015181600b0160166101000a81548160ff0219169083151502179055505050600760003373ffffffffffffffffffffffffffffffffffffffff1673ffffffffffffffffffffffffffffffffffffffff1681526020019081526020016000208190806001815401808255809150506001900390600052602060002090600c02016000909190919091506000820151816000015560208201518160010155604082015181600201556060820151816003015560808201518160040160008201518160000155602082015181600101556040820151816002015560608201518160030155505060a0820151816008019080519060200190611607929190611adb565b5060c0820151816009019080519060200190611624929190611adb565b5060e082015181600a0160006101000a81548173ffffffffffffffffffffffffffffffffffffffff021916908373ffffffffffffffffffffffffffffffffffffffff16021790555061010082015181600b0160006101000a81548173ffffffffffffffffffffffffffffffffffffffff021916908373ffffffffffffffffffffffffffffffffffffffff16021790555061012082015181600b0160146101000a81548160ff02191690831515021790555061014082015181600b0160156101000a81548160ff02191690831515021790555061016082015181600b0160166101000a81548160ff02191690831515021790555050506003600081548092919061172c906124cc565b91905055507fcbd46a911831c76d92578ceca757258656add2111ee59ac2ebb757df9708180b60405161175e90612182565b60405180910390a1600193505050509695505050505050565b600b818154811061178757600080fd5b90600052602060002090600c020160009150905080600001549080600101549080600201549080600301549080600401604051806080016040529081600082015481526020016001820154815260200160028201548152602001600382015481525050908060080180546117fa90612469565b80601f016020809104026020016040519081016040528092919081815260200182805461182690612469565b80156118735780601f1061184857610100808354040283529160200191611873565b820191906000526020600020905b81548152906001019060200180831161185657829003601f168201915b50505050509080600901805461188890612469565b80601f01602080910402602001604051908101604052809291908181526020018280546118b490612469565b80156119015780601f106118d657610100808354040283529160200191611901565b820191906000526020600020905b8154815290600101906020018083116118e457829003601f168201915b50505050509080600a0160009054906101000a900473ffffffffffffffffffffffffffffffffffffffff169080600b0160009054906101000a900473ffffffffffffffffffffffffffffffffffffffff169080600b0160149054906101000a900460ff169080600b0160159054906101000a900460ff169080600b0160169054906101000a900460ff1690508c565b60066020528060005260406000206000915090505481565b600560003373ffffffffffffffffffffffffffffffffffffffff1673ffffffffffffffffffffffffffffffffffffffff16815260200190815260200160002060009054906101000a900460ff16611a34576040517f08c379a0000000000000000000000000000000000000000000000000000000008152600401611a2b90612142565b60405180910390fd5b606481108015611a45575060008110155b611a84576040517f08c379a0000000000000000000000000000000000000000000000000000000008152600401611a7b906120e2565b60405180910390fd5b806000819055507fcbd46a911831c76d92578ceca757258656add2111ee59ac2ebb757df9708180b604051611ab8906120c2565b60405180910390a150565b60086020528060005260406000206000915090505481565b828054611ae790612469565b90600052602060002090601f016020900481019282611b095760008555611b50565b82601f10611b2257805160ff1916838001178555611b50565b82800160010185558215611b50579182015b82811115611b4f578251825591602001919060010190611b34565b5b509050611b5d9190611b61565b5090565b5b80821115611b7a576000816000905550600101611b62565b5090565b6000611b91611b8c846122f9565b6122d4565b905082815260208101848484011115611ba957600080fd5b611bb4848285612427565b509392505050565b600081359050611bcb81612883565b92915050565b600081359050611be08161289a565b92915050565b600081359050611bf5816128b1565b92915050565b60008083601f840112611c0d57600080fd5b8235905067ffffffffffffffff811115611c2657600080fd5b602083019150836001820283011115611c3e57600080fd5b9250929050565b600082601f830112611c5657600080fd5b8135611c66848260208601611b7e565b91505092915050565b600081359050611c7e816128c8565b92915050565b600060208284031215611c9657600080fd5b6000611ca484828501611bbc565b91505092915050565b60008060408385031215611cc057600080fd5b6000611cce85828601611bbc565b9250506020611cdf85828601611c6f565b9150509250929050565b600060208284031215611cfb57600080fd5b6000611d0984828501611be6565b91505092915050565b60008060008060008060808789031215611d2b57600080fd5b600087013567ffffffffffffffff811115611d4557600080fd5b611d5189828a01611bfb565b9650965050602087013567ffffffffffffffff811115611d7057600080fd5b611d7c89828a01611bfb565b94509450506040611d8f89828a01611c6f565b9250506060611da089828a01611bd1565b9150509295509295509295565b600060208284031215611dbf57600080fd5b600082013567ffffffffffffffff811115611dd957600080fd5b611de584828501611c45565b91505092915050565b600060208284031215611e0057600080fd5b6000611e0e84828501611c6f565b91505092915050565b60008060408385031215611e2a57600080fd5b6000611e3885828601611c6f565b9250506020611e4985828601611c6f565b9150509250929050565b611e5c816123df565b82525050565b611e6b816123cd565b82525050565b611e7a816123f1565b82525050565b6000611e8b8261232a565b611e958185612335565b9350611ea5818560208601612436565b611eae816125d1565b840191505092915050565b6000611ec6603883612335565b9150611ed1826125e2565b604082019050919050565b6000611ee9601483612335565b9150611ef482612631565b602082019050919050565b6000611f0c604983612335565b9150611f178261265a565b606082019050919050565b6000611f2f602a83612335565b9150611f3a826126cf565b604082019050919050565b6000611f52603c83612335565b9150611f5d8261271e565b604082019050919050565b6000611f75603d83612335565b9150611f808261276d565b604082019050919050565b6000611f98602a83612335565b9150611fa3826127bc565b604082019050919050565b6000611fbb601b83612335565b9150611fc68261280b565b602082019050919050565b6000611fde602e83612335565b9150611fe982612834565b604082019050919050565b60808201600082015161200a6000850182612049565b50602082015161201d6020850182612049565b5060408201516120306040850182612049565b5060608201516120436060850182612049565b50505050565b6120528161241d565b82525050565b6120618161241d565b82525050565b600060208201905061207c6000830184611e71565b92915050565b6000602082019050818103600083015261209b81611eb9565b9050919050565b600060208201905081810360008301526120bb81611edc565b9050919050565b600060208201905081810360008301526120db81611eff565b9050919050565b600060208201905081810360008301526120fb81611f22565b9050919050565b6000602082019050818103600083015261211b81611f45565b9050919050565b6000602082019050818103600083015261213b81611f68565b9050919050565b6000602082019050818103600083015261215b81611f8b565b9050919050565b6000602082019050818103600083015261217b81611fae565b9050919050565b6000602082019050818103600083015261219b81611fd1565b9050919050565b60006020820190506121b76000830184612058565b92915050565b60006080820190506121d26000830187612058565b6121df6020830186611e62565b6121ec6040830185612058565b81810360608301526121fe8184611e80565b905095945050505050565b60006101e08201905061221f600083018f612058565b61222c602083018e612058565b612239604083018d612058565b612246606083018c612058565b612253608083018b611ff4565b818103610100830152612266818a611e80565b905081810361012083015261227b8189611e80565b905061228b610140830188611e53565b612299610160830187611e62565b6122a7610180830186611e71565b6122b56101a0830185611e71565b6122c36101c0830184611e71565b9d9c50505050505050505050505050565b60006122de6122ef565b90506122ea828261249b565b919050565b6000604051905090565b600067ffffffffffffffff821115612314576123136125a2565b5b61231d826125d1565b9050602081019050919050565b600081519050919050565b600082825260208201905092915050565b60006123518261241d565b915061235c8361241d565b9250827fffffffffffffffffffffffffffffffffffffffffffffffffffffffffffffffff0382111561239157612390612515565b5b828201905092915050565b60006123a78261241d565b91506123b28361241d565b9250826123c2576123c1612544565b5b828204905092915050565b60006123d8826123fd565b9050919050565b60006123ea826123fd565b9050919050565b60008115159050919050565b600073ffffffffffffffffffffffffffffffffffffffff82169050919050565b6000819050919050565b82818337600083830152505050565b60005b83811015612454578082015181840152602081019050612439565b83811115612463576000848401525b50505050565b6000600282049050600182168061248157607f821691505b6020821081141561249557612494612573565b5b50919050565b6124a4826125d1565b810181811067ffffffffffffffff821117156124c3576124c26125a2565b5b80604052505050565b60006124d78261241d565b91507fffffffffffffffffffffffffffffffffffffffffffffffffffffffffffffffff82141561250a57612509612515565b5b600182019050919050565b7f4e487b7100000000000000000000000000000000000000000000000000000000600052601160045260246000fd5b7f4e487b7100000000000000000000000000000000000000000000000000000000600052601260045260246000fd5b7f4e487b7100000000000000000000000000000000000000000000000000000000600052602260045260246000fd5b7f4e487b7100000000000000000000000000000000000000000000000000000000600052604160045260246000fd5b6000601f19601f8301169050919050565b7f5468616e6b20796f7520666f7220646f6e6174696e672c20596f75206861766560008201527f20726563696576656420566f74696e6720526967687473210000000000000000602082015250565b7f41646d696e732063616e27742072657175657374000000000000000000000000600082015250565b7f4e657720476c6f62616c2056616c7565207365742e2057696c6c20626520757060008201527f646174656420696e20616c6c206e65772070726f706f73616c73206d6164652060208201527f6865726561667465720000000000000000000000000000000000000000000000604082015250565b7f43616e6e6f742063726f7373203939252e2055736520612076616c756520626560008201527f747765656e20302d393900000000000000000000000000000000000000000000602082015250565b7f4d757374206861766520646f6e61746564206f722073686f756c64206265206160008201527f6e2061646d696e20746f2063726561746520612070726f706f73616c00000000602082015250565b7f556e617070726f7665642070726f706f73616c732063616e6e6f7420756e646560008201527f72676f20612062616c6c6f74207365636c7573696f6e206368616e6765000000602082015250565b7f54686973206d6574686f642063616e206f6e6c792062652063616c6c6564206260008201527f7920616e2061646d696e00000000000000000000000000000000000000000000602082015250565b7f5468652070726f706f73616c2069736e277420617070726f7665640000000000600082015250565b7f596f75722050726f706f73616c20686173206265656e207375626d697474656460008201527f207375636365737366756c6c7921000000000000000000000000000000000000602082015250565b61288c816123cd565b811461289757600080fd5b50565b6128a3816123df565b81146128ae57600080fd5b50565b6128ba816123f1565b81146128c557600080fd5b50565b6128d18161241d565b81146128dc57600080fd5b5056fea264697066735822122073f255babaa26c487011e327897ea07e74318ebc57ff143cdb7791d3b7f78b5664736f6c63430008040033",
  "linkReferences": {},
  "deployedLinkReferences": {}
}