{
  "_format": "hh-sol-artifact-1",
  "contractName": "DAO",
  "sourceName": "blockchain/contracts/Contract.sol",
  "abi": [
    {
      "inputs": [],
      "stateMutability": "nonpayable",
      "type": "constructor"
    },
    {
      "anonymous": false,
      "inputs": [
        {
          "indexed": false,
          "internalType": "string",
          "name": "message",
          "type": "string"
        }
      ],
      "name": "ThanksMessage",
      "type": "event"
    },
    {
      "stateMutability": "payable",
      "type": "fallback"
    },
    {
      "inputs": [
        {
          "internalType": "address",
          "name": "_member",
          "type": "address"
        }
      ],
      "name": "addGovOfficial",
      "outputs": [],
      "stateMutability": "nonpayable",
      "type": "function"
    },
    {
      "inputs": [
        {
          "internalType": "uint256",
          "name": "",
          "type": "uint256"
        }
      ],
      "name": "allProposals",
      "outputs": [
        {
          "internalType": "uint256",
          "name": "proposalID",
          "type": "uint256"
        },
        {
          "internalType": "string",
          "name": "proposalName",
          "type": "string"
        },
        {
          "internalType": "string",
          "name": "proposalDesc",
          "type": "string"
        },
        {
          "internalType": "address",
          "name": "proposer",
          "type": "address"
        },
        {
          "internalType": "uint256",
          "name": "proposalAmount",
          "type": "uint256"
        },
        {
          "internalType": "uint256",
          "name": "forVotes",
          "type": "uint256"
        },
        {
          "internalType": "uint256",
          "name": "forGovVotes",
          "type": "uint256"
        },
        {
          "internalType": "uint256",
          "name": "againstVotes",
          "type": "uint256"
        },
        {
          "internalType": "uint256",
          "name": "againstGovVotes",
          "type": "uint256"
        },
        {
          "internalType": "uint256",
          "name": "voteDeadline",
          "type": "uint256"
        },
        {
          "internalType": "bool",
          "name": "isValid",
          "type": "bool"
        },
        {
          "internalType": "bool",
          "name": "isPassed",
          "type": "bool"
        }
      ],
      "stateMutability": "view",
      "type": "function"
    },
    {
      "inputs": [
        {
          "internalType": "uint256",
          "name": "_id",
          "type": "uint256"
        }
      ],
      "name": "countVotes",
      "outputs": [],
      "stateMutability": "nonpayable",
      "type": "function"
    },
    {
      "inputs": [],
      "name": "donate",
      "outputs": [],
      "stateMutability": "payable",
      "type": "function"
    },
    {
      "inputs": [
        {
          "internalType": "address",
          "name": "",
          "type": "address"
        }
      ],
      "name": "donationAmount",
      "outputs": [
        {
          "internalType": "uint256",
          "name": "",
          "type": "uint256"
        }
      ],
      "stateMutability": "view",
      "type": "function"
    },
    {
      "inputs": [],
      "name": "getAllProposals",
      "outputs": [
        {
          "components": [
            {
              "internalType": "uint256",
              "name": "proposalID",
              "type": "uint256"
            },
            {
              "internalType": "string",
              "name": "proposalName",
              "type": "string"
            },
            {
              "internalType": "string",
              "name": "proposalDesc",
              "type": "string"
            },
            {
              "internalType": "address",
              "name": "proposer",
              "type": "address"
            },
            {
              "internalType": "uint256",
              "name": "proposalAmount",
              "type": "uint256"
            },
            {
              "internalType": "uint256",
              "name": "forVotes",
              "type": "uint256"
            },
            {
              "internalType": "uint256",
              "name": "forGovVotes",
              "type": "uint256"
            },
            {
              "internalType": "uint256",
              "name": "againstVotes",
              "type": "uint256"
            },
            {
              "internalType": "uint256",
              "name": "againstGovVotes",
              "type": "uint256"
            },
            {
              "internalType": "uint256",
              "name": "voteDeadline",
              "type": "uint256"
            },
            {
              "internalType": "bool",
              "name": "isValid",
              "type": "bool"
            },
            {
              "internalType": "bool",
              "name": "isPassed",
              "type": "bool"
            }
          ],
          "internalType": "struct DAO.Proposal[]",
          "name": "",
          "type": "tuple[]"
        }
      ],
      "stateMutability": "view",
      "type": "function"
    },
    {
      "inputs": [],
      "name": "getBalance",
      "outputs": [
        {
          "internalType": "uint256",
          "name": "",
          "type": "uint256"
        }
      ],
      "stateMutability": "view",
      "type": "function"
    },
    {
      "inputs": [],
      "name": "getMyProposals",
      "outputs": [
        {
          "components": [
            {
              "internalType": "uint256",
              "name": "proposalID",
              "type": "uint256"
            },
            {
              "internalType": "string",
              "name": "proposalName",
              "type": "string"
            },
            {
              "internalType": "string",
              "name": "proposalDesc",
              "type": "string"
            },
            {
              "internalType": "address",
              "name": "proposer",
              "type": "address"
            },
            {
              "internalType": "uint256",
              "name": "proposalAmount",
              "type": "uint256"
            },
            {
              "internalType": "uint256",
              "name": "forVotes",
              "type": "uint256"
            },
            {
              "internalType": "uint256",
              "name": "forGovVotes",
              "type": "uint256"
            },
            {
              "internalType": "uint256",
              "name": "againstVotes",
              "type": "uint256"
            },
            {
              "internalType": "uint256",
              "name": "againstGovVotes",
              "type": "uint256"
            },
            {
              "internalType": "uint256",
              "name": "voteDeadline",
              "type": "uint256"
            },
            {
              "internalType": "bool",
              "name": "isValid",
              "type": "bool"
            },
            {
              "internalType": "bool",
              "name": "isPassed",
              "type": "bool"
            }
          ],
          "internalType": "struct DAO.Proposal[]",
          "name": "",
          "type": "tuple[]"
        }
      ],
      "stateMutability": "view",
      "type": "function"
    },
    {
      "inputs": [
        {
          "internalType": "uint256",
          "name": "_id",
          "type": "uint256"
        }
      ],
      "name": "getProposal",
      "outputs": [
        {
          "components": [
            {
              "internalType": "uint256",
              "name": "proposalID",
              "type": "uint256"
            },
            {
              "internalType": "string",
              "name": "proposalName",
              "type": "string"
            },
            {
              "internalType": "string",
              "name": "proposalDesc",
              "type": "string"
            },
            {
              "internalType": "address",
              "name": "proposer",
              "type": "address"
            },
            {
              "internalType": "uint256",
              "name": "proposalAmount",
              "type": "uint256"
            },
            {
              "internalType": "uint256",
              "name": "forVotes",
              "type": "uint256"
            },
            {
              "internalType": "uint256",
              "name": "forGovVotes",
              "type": "uint256"
            },
            {
              "internalType": "uint256",
              "name": "againstVotes",
              "type": "uint256"
            },
            {
              "internalType": "uint256",
              "name": "againstGovVotes",
              "type": "uint256"
            },
            {
              "internalType": "uint256",
              "name": "voteDeadline",
              "type": "uint256"
            },
            {
              "internalType": "bool",
              "name": "isValid",
              "type": "bool"
            },
            {
              "internalType": "bool",
              "name": "isPassed",
              "type": "bool"
            }
          ],
          "internalType": "struct DAO.Proposal",
          "name": "",
          "type": "tuple"
        }
      ],
      "stateMutability": "view",
      "type": "function"
    },
    {
      "inputs": [
        {
          "internalType": "address",
          "name": "_sender",
          "type": "address"
        }
      ],
      "name": "getProposalByAddress",
      "outputs": [
        {
          "components": [
            {
              "internalType": "uint256",
              "name": "proposalID",
              "type": "uint256"
            },
            {
              "internalType": "string",
              "name": "proposalName",
              "type": "string"
            },
            {
              "internalType": "string",
              "name": "proposalDesc",
              "type": "string"
            },
            {
              "internalType": "address",
              "name": "proposer",
              "type": "address"
            },
            {
              "internalType": "uint256",
              "name": "proposalAmount",
              "type": "uint256"
            },
            {
              "internalType": "uint256",
              "name": "forVotes",
              "type": "uint256"
            },
            {
              "internalType": "uint256",
              "name": "forGovVotes",
              "type": "uint256"
            },
            {
              "internalType": "uint256",
              "name": "againstVotes",
              "type": "uint256"
            },
            {
              "internalType": "uint256",
              "name": "againstGovVotes",
              "type": "uint256"
            },
            {
              "internalType": "uint256",
              "name": "voteDeadline",
              "type": "uint256"
            },
            {
              "internalType": "bool",
              "name": "isValid",
              "type": "bool"
            },
            {
              "internalType": "bool",
              "name": "isPassed",
              "type": "bool"
            }
          ],
          "internalType": "struct DAO.Proposal[]",
          "name": "",
          "type": "tuple[]"
        }
      ],
      "stateMutability": "view",
      "type": "function"
    },
    {
      "inputs": [
        {
          "internalType": "address",
          "name": "",
          "type": "address"
        }
      ],
      "name": "isGovOfficial",
      "outputs": [
        {
          "internalType": "bool",
          "name": "",
          "type": "bool"
        }
      ],
      "stateMutability": "view",
      "type": "function"
    },
    {
      "inputs": [
        {
          "internalType": "string",
          "name": "_proposalName",
          "type": "string"
        },
        {
          "internalType": "string",
          "name": "_proposalDesc",
          "type": "string"
        },
        {
          "internalType": "uint256",
          "name": "amount",
          "type": "uint256"
        }
      ],
      "name": "makeProposal",
      "outputs": [
        {
          "internalType": "bool",
          "name": "",
          "type": "bool"
        }
      ],
      "stateMutability": "payable",
      "type": "function"
    },
    {
      "inputs": [
        {
          "internalType": "address",
          "name": "",
          "type": "address"
        },
        {
          "internalType": "uint256",
          "name": "",
          "type": "uint256"
        }
      ],
      "name": "myProposals",
      "outputs": [
        {
          "internalType": "uint256",
          "name": "proposalID",
          "type": "uint256"
        },
        {
          "internalType": "string",
          "name": "proposalName",
          "type": "string"
        },
        {
          "internalType": "string",
          "name": "proposalDesc",
          "type": "string"
        },
        {
          "internalType": "address",
          "name": "proposer",
          "type": "address"
        },
        {
          "internalType": "uint256",
          "name": "proposalAmount",
          "type": "uint256"
        },
        {
          "internalType": "uint256",
          "name": "forVotes",
          "type": "uint256"
        },
        {
          "internalType": "uint256",
          "name": "forGovVotes",
          "type": "uint256"
        },
        {
          "internalType": "uint256",
          "name": "againstVotes",
          "type": "uint256"
        },
        {
          "internalType": "uint256",
          "name": "againstGovVotes",
          "type": "uint256"
        },
        {
          "internalType": "uint256",
          "name": "voteDeadline",
          "type": "uint256"
        },
        {
          "internalType": "bool",
          "name": "isValid",
          "type": "bool"
        },
        {
          "internalType": "bool",
          "name": "isPassed",
          "type": "bool"
        }
      ],
      "stateMutability": "view",
      "type": "function"
    },
    {
      "inputs": [
        {
          "internalType": "uint256",
          "name": "_id",
          "type": "uint256"
        }
      ],
      "name": "voteAgainst",
      "outputs": [
        {
          "internalType": "bool",
          "name": "value",
          "type": "bool"
        }
      ],
      "stateMutability": "payable",
      "type": "function"
    },
    {
      "inputs": [
        {
          "internalType": "uint256",
          "name": "_id",
          "type": "uint256"
        }
      ],
      "name": "voteFor",
      "outputs": [
        {
          "internalType": "bool",
          "name": "value",
          "type": "bool"
        }
      ],
      "stateMutability": "payable",
      "type": "function"
    },
    {
      "inputs": [],
      "name": "wipeBalance",
      "outputs": [],
      "stateMutability": "nonpayable",
      "type": "function"
    },
    {
      "stateMutability": "payable",
      "type": "receive"
    }
  ],
  "bytecode": "0x6080604052600060015534801561001557600080fd5b506001600460003373ffffffffffffffffffffffffffffffffffffffff1673ffffffffffffffffffffffffffffffffffffffff16815260200190815260200160002060006101000a81548160ff0219169083151502179055506133908061007d6000396000f3fe6080604052600436106100f75760003560e01c806386a505351161008a578063ae677d8c11610059578063ae677d8c1461046f578063c7f758a8146104ac578063cceb68f5146104e9578063ed88c68e1461051457610189565b806386a505351461037d578063938351b8146103ad578063997afb9d146103f5578063a2e7ba9e1461043257610189565b8063380e5e44116100c6578063380e5e44146102be57806348985deb146102ee57806371e8ff0114610336578063750e443a1461034d57610189565b8063089433ea1461021657806312065fe01461023f5780631840f0ca1461026a57806336ffa9051461029357610189565b366101895734600360003373ffffffffffffffffffffffffffffffffffffffff1673ffffffffffffffffffffffffffffffffffffffff168152602001908152602001600020600082825461014b9190612efd565b925050819055507f3d27d812b049caf41fcc29cadcf63d52ad2b9f285ff79d360653b0a29bd8dbb460405161017f90612d12565b60405180910390a1005b34600360003373ffffffffffffffffffffffffffffffffffffffff1673ffffffffffffffffffffffffffffffffffffffff16815260200190815260200160002060008282546101d89190612efd565b925050819055507f3d27d812b049caf41fcc29cadcf63d52ad2b9f285ff79d360653b0a29bd8dbb460405161020c90612d12565b60405180910390a1005b34801561022257600080fd5b5061023d60048036038101906102389190612741565b61051e565b005b34801561024b57600080fd5b50610254610605565b6040516102619190612db4565b60405180910390f35b34801561027657600080fd5b50610291600480360381019061028c919061282f565b61060d565b005b34801561029f57600080fd5b506102a8610d4a565b6040516102b59190612c95565b60405180910390f35b6102d860048036038101906102d391906127a6565b610fdd565b6040516102e59190612cb7565b60405180910390f35b3480156102fa57600080fd5b506103156004803603810190610310919061276a565b611440565b60405161032d9c9b9a99989796959493929190612dcf565b60405180910390f35b34801561034257600080fd5b5061034b611607565b005b6103676004803603810190610362919061282f565b611650565b6040516103749190612cb7565b60405180910390f35b6103976004803603810190610392919061282f565b61191e565b6040516103a49190612cb7565b60405180910390f35b3480156103b957600080fd5b506103d460048036038101906103cf919061282f565b611bec565b6040516103ec9c9b9a99989796959493929190612dcf565b60405180910390f35b34801561040157600080fd5b5061041c60048036038101906104179190612741565b611da6565b6040516104299190612c95565b60405180910390f35b34801561043e57600080fd5b5061045960048036038101906104549190612741565b61203b565b6040516104669190612cb7565b60405180910390f35b34801561047b57600080fd5b5061049660048036038101906104919190612741565b61205b565b6040516104a39190612db4565b60405180910390f35b3480156104b857600080fd5b506104d360048036038101906104ce919061282f565b612073565b6040516104e09190612d92565b60405180910390f35b3480156104f557600080fd5b506104fe6122cc565b60405161050b9190612c95565b60405180910390f35b61051c612522565b005b600460003373ffffffffffffffffffffffffffffffffffffffff1673ffffffffffffffffffffffffffffffffffffffff16815260200190815260200160002060009054906101000a900460ff166105aa576040517f08c379a00000000000000000000000000000000000000000000000000000000081526004016105a190612d52565b60405180910390fd5b6001600460008373ffffffffffffffffffffffffffffffffffffffff1673ffffffffffffffffffffffffffffffffffffffff16815260200190815260200160002060006101000a81548160ff02191690831515021790555050565b600047905090565b6000806000838154811061064a577f4e487b7100000000000000000000000000000000000000000000000000000000600052603260045260246000fd5b90600052602060002090600b020160040154471161069d576040517f08c379a000000000000000000000000000000000000000000000000000000000815260040161069490612d72565b60405180910390fd5b600083815481106106d7577f4e487b7100000000000000000000000000000000000000000000000000000000600052603260045260246000fd5b90600052602060002090600b0201600a0160019054906101000a900460ff1615610736576040517f08c379a000000000000000000000000000000000000000000000000000000000815260040161072d90612cf2565b60405180910390fd5b60008381548110610770577f4e487b7100000000000000000000000000000000000000000000000000000000600052603260045260246000fd5b90600052602060002090600b0201600a0160009054906101000a900460ff16156107cf576040517f08c379a00000000000000000000000000000000000000000000000000000000081526004016107c690612cd2565b60405180910390fd5b60008381548110610809577f4e487b7100000000000000000000000000000000000000000000000000000000600052603260045260246000fd5b90600052602060002090600b02016007015460008481548110610855577f4e487b7100000000000000000000000000000000000000000000000000000000600052603260045260246000fd5b90600052602060002090600b02016005015411156108815760078261087a9190612f53565b915061092f565b600083815481106108bb577f4e487b7100000000000000000000000000000000000000000000000000000000600052603260045260246000fd5b90600052602060002090600b02016007015460008481548110610907577f4e487b7100000000000000000000000000000000000000000000000000000000600052603260045260246000fd5b90600052602060002090600b0201600501541161092e5760078161092b9190612f53565b90505b5b60008381548110610969577f4e487b7100000000000000000000000000000000000000000000000000000000600052603260045260246000fd5b90600052602060002090600b020160080154600084815481106109b5577f4e487b7100000000000000000000000000000000000000000000000000000000600052603260045260246000fd5b90600052602060002090600b02016006015411156109e1576003826109da9190612f53565b9150610a8f565b60008381548110610a1b577f4e487b7100000000000000000000000000000000000000000000000000000000600052603260045260246000fd5b90600052602060002090600b02016008015460008481548110610a67577f4e487b7100000000000000000000000000000000000000000000000000000000600052603260045260246000fd5b90600052602060002090600b02016006015411610a8e57600381610a8b9190612f53565b90505b5b8060ff168260ff161115610c7e57600160008481548110610ad9577f4e487b7100000000000000000000000000000000000000000000000000000000600052603260045260246000fd5b90600052602060002090600b0201600a0160016101000a81548160ff0219169083151502179055506000808481548110610b3c577f4e487b7100000000000000000000000000000000000000000000000000000000600052603260045260246000fd5b90600052602060002090600b0201600a0160006101000a81548160ff02191690831515021790555060008381548110610b9e577f4e487b7100000000000000000000000000000000000000000000000000000000600052603260045260246000fd5b90600052602060002090600b020160030160009054906101000a900473ffffffffffffffffffffffffffffffffffffffff1673ffffffffffffffffffffffffffffffffffffffff166108fc6064605f60008781548110610c27577f4e487b7100000000000000000000000000000000000000000000000000000000600052603260045260246000fd5b90600052602060002090600b020160040154610c439190612fbb565b610c4d9190612f8a565b9081150290604051600060405180830381858888f19350505050158015610c78573d6000803e3d6000fd5b50610d45565b6000808481548110610cb9577f4e487b7100000000000000000000000000000000000000000000000000000000600052603260045260246000fd5b90600052602060002090600b0201600a0160016101000a81548160ff0219169083151502179055506000808481548110610d1c577f4e487b7100000000000000000000000000000000000000000000000000000000600052603260045260246000fd5b90600052602060002090600b0201600a0160006101000a81548160ff0219169083151502179055505b505050565b6060600260003273ffffffffffffffffffffffffffffffffffffffff1673ffffffffffffffffffffffffffffffffffffffff168152602001908152602001600020805480602002602001604051908101604052809291908181526020016000905b82821015610fd457838290600052602060002090600b02016040518061018001604052908160008201548152602001600182018054610de9906130d1565b80601f0160208091040260200160405190810160405280929190818152602001828054610e15906130d1565b8015610e625780601f10610e3757610100808354040283529160200191610e62565b820191906000526020600020905b815481529060010190602001808311610e4557829003601f168201915b50505050508152602001600282018054610e7b906130d1565b80601f0160208091040260200160405190810160405280929190818152602001828054610ea7906130d1565b8015610ef45780601f10610ec957610100808354040283529160200191610ef4565b820191906000526020600020905b815481529060010190602001808311610ed757829003601f168201915b505050505081526020016003820160009054906101000a900473ffffffffffffffffffffffffffffffffffffffff1673ffffffffffffffffffffffffffffffffffffffff1673ffffffffffffffffffffffffffffffffffffffff168152602001600482015481526020016005820154815260200160068201548152602001600782015481526020016008820154815260200160098201548152602001600a820160009054906101000a900460ff16151515158152602001600a820160019054906101000a900460ff16151515158152505081526020019060010190610dab565b50505050905090565b600067016345785d8a000034101561102a576040517f08c379a000000000000000000000000000000000000000000000000000000000815260040161102190612d32565b60405180910390fd5b6110326125af565b60015481600001818152505086868080601f016020809104026020016040519081016040528093929190818152602001838380828437600081840152601f19601f82011690508083019250505050505050816020018190525084848080601f016020809104026020016040519081016040528093929190818152602001838380828437600081840152601f19601f8201169050808301925050505050505081604001819052508281608001818152505032816060019073ffffffffffffffffffffffffffffffffffffffff16908173ffffffffffffffffffffffffffffffffffffffff168152505060008160a001818152505060008160e001818152505060b44261113d9190612efd565b8161012001818152505060018161014001901515908115158152505060008161016001901515908115158152505060008190806001815401808255809150506001900390600052602060002090600b02016000909190919091506000820151816000015560208201518160010190805190602001906111bd92919061262a565b5060408201518160020190805190602001906111da92919061262a565b5060608201518160030160006101000a81548173ffffffffffffffffffffffffffffffffffffffff021916908373ffffffffffffffffffffffffffffffffffffffff1602179055506080820151816004015560a0820151816005015560c0820151816006015560e082015181600701556101008201518160080155610120820151816009015561014082015181600a0160006101000a81548160ff02191690831515021790555061016082015181600a0160016101000a81548160ff0219169083151502179055505050600260003273ffffffffffffffffffffffffffffffffffffffff1673ffffffffffffffffffffffffffffffffffffffff1681526020019081526020016000208190806001815401808255809150506001900390600052602060002090600b020160009091909190915060008201518160000155602082015181600101908051906020019061133392919061262a565b50604082015181600201908051906020019061135092919061262a565b5060608201518160030160006101000a81548173ffffffffffffffffffffffffffffffffffffffff021916908373ffffffffffffffffffffffffffffffffffffffff1602179055506080820151816004015560a0820151816005015560c0820151816006015560e082015181600701556101008201518160080155610120820151816009015561014082015181600a0160006101000a81548160ff02191690831515021790555061016082015181600a0160016101000a81548160ff02191690831515021790555050506001600081548092919061142d90613103565b9190505550600191505095945050505050565b6002602052816000526040600020818154811061145c57600080fd5b90600052602060002090600b020160009150915050806000015490806001018054611486906130d1565b80601f01602080910402602001604051908101604052809291908181526020018280546114b2906130d1565b80156114ff5780601f106114d4576101008083540402835291602001916114ff565b820191906000526020600020905b8154815290600101906020018083116114e257829003601f168201915b505050505090806002018054611514906130d1565b80601f0160208091040260200160405190810160405280929190818152602001828054611540906130d1565b801561158d5780601f106115625761010080835404028352916020019161158d565b820191906000526020600020905b81548152906001019060200180831161157057829003601f168201915b5050505050908060030160009054906101000a900473ffffffffffffffffffffffffffffffffffffffff169080600401549080600501549080600601549080600701549080600801549080600901549080600a0160009054906101000a900460ff169080600a0160019054906101000a900460ff1690508c565b3373ffffffffffffffffffffffffffffffffffffffff166108fc479081150290604051600060405180830381858888f1935050505015801561164d573d6000803e3d6000fd5b50565b60008142600160008381548110611690577f4e487b7100000000000000000000000000000000000000000000000000000000600052603260045260246000fd5b90600052602060002090600b0201600901546116ac9190613015565b10156117235760008082815481106116ed577f4e487b7100000000000000000000000000000000000000000000000000000000600052603260045260246000fd5b90600052602060002090600b0201600a0160006101000a81548160ff02191690831515021790555061171e8161060d565b611918565b34600360003373ffffffffffffffffffffffffffffffffffffffff1673ffffffffffffffffffffffffffffffffffffffff16815260200190815260200160002060008282546117729190612efd565b92505081905550600460003373ffffffffffffffffffffffffffffffffffffffff1673ffffffffffffffffffffffffffffffffffffffff16815260200190815260200160002060009054906101000a900460ff161561187157600360003373ffffffffffffffffffffffffffffffffffffffff1673ffffffffffffffffffffffffffffffffffffffff1681526020019081526020016000205460008481548110611845577f4e487b7100000000000000000000000000000000000000000000000000000000600052603260045260246000fd5b90600052602060002090600b020160080160008282546118659190612efd565b92505081905550611913565b600360003373ffffffffffffffffffffffffffffffffffffffff1673ffffffffffffffffffffffffffffffffffffffff16815260200190815260200160002054600084815481106118eb577f4e487b7100000000000000000000000000000000000000000000000000000000600052603260045260246000fd5b90600052602060002090600b0201600701600082825461190b9190612efd565b925050819055505b600191505b50919050565b6000814260016000838154811061195e577f4e487b7100000000000000000000000000000000000000000000000000000000600052603260045260246000fd5b90600052602060002090600b02016009015461197a9190613015565b10156119f15760008082815481106119bb577f4e487b7100000000000000000000000000000000000000000000000000000000600052603260045260246000fd5b90600052602060002090600b0201600a0160006101000a81548160ff0219169083151502179055506119ec8161060d565b611be6565b34600360003373ffffffffffffffffffffffffffffffffffffffff1673ffffffffffffffffffffffffffffffffffffffff1681526020019081526020016000206000828254611a409190612efd565b92505081905550600460003373ffffffffffffffffffffffffffffffffffffffff1673ffffffffffffffffffffffffffffffffffffffff16815260200190815260200160002060009054906101000a900460ff1615611b3f57600360003373ffffffffffffffffffffffffffffffffffffffff1673ffffffffffffffffffffffffffffffffffffffff1681526020019081526020016000205460008481548110611b13577f4e487b7100000000000000000000000000000000000000000000000000000000600052603260045260246000fd5b90600052602060002090600b02016006016000828254611b339190612efd565b92505081905550611be1565b600360003373ffffffffffffffffffffffffffffffffffffffff1673ffffffffffffffffffffffffffffffffffffffff1681526020019081526020016000205460008481548110611bb9577f4e487b7100000000000000000000000000000000000000000000000000000000600052603260045260246000fd5b90600052602060002090600b02016005016000828254611bd99190612efd565b925050819055505b600191505b50919050565b60008181548110611bfc57600080fd5b90600052602060002090600b0201600091509050806000015490806001018054611c25906130d1565b80601f0160208091040260200160405190810160405280929190818152602001828054611c51906130d1565b8015611c9e5780601f10611c7357610100808354040283529160200191611c9e565b820191906000526020600020905b815481529060010190602001808311611c8157829003601f168201915b505050505090806002018054611cb3906130d1565b80601f0160208091040260200160405190810160405280929190818152602001828054611cdf906130d1565b8015611d2c5780601f10611d0157610100808354040283529160200191611d2c565b820191906000526020600020905b815481529060010190602001808311611d0f57829003601f168201915b5050505050908060030160009054906101000a900473ffffffffffffffffffffffffffffffffffffffff169080600401549080600501549080600601549080600701549080600801549080600901549080600a0160009054906101000a900460ff169080600a0160019054906101000a900460ff1690508c565b6060600260008373ffffffffffffffffffffffffffffffffffffffff1673ffffffffffffffffffffffffffffffffffffffff168152602001908152602001600020805480602002602001604051908101604052809291908181526020016000905b8282101561203057838290600052602060002090600b02016040518061018001604052908160008201548152602001600182018054611e45906130d1565b80601f0160208091040260200160405190810160405280929190818152602001828054611e71906130d1565b8015611ebe5780601f10611e9357610100808354040283529160200191611ebe565b820191906000526020600020905b815481529060010190602001808311611ea157829003601f168201915b50505050508152602001600282018054611ed7906130d1565b80601f0160208091040260200160405190810160405280929190818152602001828054611f03906130d1565b8015611f505780601f10611f2557610100808354040283529160200191611f50565b820191906000526020600020905b815481529060010190602001808311611f3357829003601f168201915b505050505081526020016003820160009054906101000a900473ffffffffffffffffffffffffffffffffffffffff1673ffffffffffffffffffffffffffffffffffffffff1673ffffffffffffffffffffffffffffffffffffffff168152602001600482015481526020016005820154815260200160068201548152602001600782015481526020016008820154815260200160098201548152602001600a820160009054906101000a900460ff16151515158152602001600a820160019054906101000a900460ff16151515158152505081526020019060010190611e07565b505050509050919050565b60046020528060005260406000206000915054906101000a900460ff1681565b60036020528060005260406000206000915090505481565b61207b6125af565b600082815481106120b5577f4e487b7100000000000000000000000000000000000000000000000000000000600052603260045260246000fd5b90600052602060002090600b020160405180610180016040529081600082015481526020016001820180546120e9906130d1565b80601f0160208091040260200160405190810160405280929190818152602001828054612115906130d1565b80156121625780601f1061213757610100808354040283529160200191612162565b820191906000526020600020905b81548152906001019060200180831161214557829003601f168201915b5050505050815260200160028201805461217b906130d1565b80601f01602080910402602001604051908101604052809291908181526020018280546121a7906130d1565b80156121f45780601f106121c9576101008083540402835291602001916121f4565b820191906000526020600020905b8154815290600101906020018083116121d757829003601f168201915b505050505081526020016003820160009054906101000a900473ffffffffffffffffffffffffffffffffffffffff1673ffffffffffffffffffffffffffffffffffffffff1673ffffffffffffffffffffffffffffffffffffffff168152602001600482015481526020016005820154815260200160068201548152602001600782015481526020016008820154815260200160098201548152602001600a820160009054906101000a900460ff16151515158152602001600a820160019054906101000a900460ff1615151515815250509050919050565b60606000805480602002602001604051908101604052809291908181526020016000905b8282101561251957838290600052602060002090600b0201604051806101800160405290816000820154815260200160018201805461232e906130d1565b80601f016020809104026020016040519081016040528092919081815260200182805461235a906130d1565b80156123a75780601f1061237c576101008083540402835291602001916123a7565b820191906000526020600020905b81548152906001019060200180831161238a57829003601f168201915b505050505081526020016002820180546123c0906130d1565b80601f01602080910402602001604051908101604052809291908181526020018280546123ec906130d1565b80156124395780601f1061240e57610100808354040283529160200191612439565b820191906000526020600020905b81548152906001019060200180831161241c57829003601f168201915b505050505081526020016003820160009054906101000a900473ffffffffffffffffffffffffffffffffffffffff1673ffffffffffffffffffffffffffffffffffffffff1673ffffffffffffffffffffffffffffffffffffffff168152602001600482015481526020016005820154815260200160068201548152602001600782015481526020016008820154815260200160098201548152602001600a820160009054906101000a900460ff16151515158152602001600a820160019054906101000a900460ff161515151581525050815260200190600101906122f0565b50505050905090565b34600360003373ffffffffffffffffffffffffffffffffffffffff1673ffffffffffffffffffffffffffffffffffffffff16815260200190815260200160002060008282546125719190612efd565b925050819055507f3d27d812b049caf41fcc29cadcf63d52ad2b9f285ff79d360653b0a29bd8dbb46040516125a590612d12565b60405180910390a1565b604051806101800160405280600081526020016060815260200160608152602001600073ffffffffffffffffffffffffffffffffffffffff1681526020016000815260200160008152602001600081526020016000815260200160008152602001600081526020016000151581526020016000151581525090565b828054612636906130d1565b90600052602060002090601f016020900481019282612658576000855561269f565b82601f1061267157805160ff191683800117855561269f565b8280016001018555821561269f579182015b8281111561269e578251825591602001919060010190612683565b5b5090506126ac91906126b0565b5090565b5b808211156126c95760008160009055506001016126b1565b5090565b6000813590506126dc8161332c565b92915050565b60008083601f8401126126f457600080fd5b8235905067ffffffffffffffff81111561270d57600080fd5b60208301915083600182028301111561272557600080fd5b9250929050565b60008135905061273b81613343565b92915050565b60006020828403121561275357600080fd5b6000612761848285016126cd565b91505092915050565b6000806040838503121561277d57600080fd5b600061278b858286016126cd565b925050602061279c8582860161272c565b9150509250929050565b6000806000806000606086880312156127be57600080fd5b600086013567ffffffffffffffff8111156127d857600080fd5b6127e4888289016126e2565b9550955050602086013567ffffffffffffffff81111561280357600080fd5b61280f888289016126e2565b935093505060406128228882890161272c565b9150509295509295909350565b60006020828403121561284157600080fd5b600061284f8482850161272c565b91505092915050565b60006128648383612a61565b905092915050565b61287581613049565b82525050565b61288481613049565b82525050565b600061289582612ea7565b61289f8185612eca565b9350836020820285016128b185612e97565b8060005b858110156128ed57848403895281516128ce8582612858565b94506128d983612ebd565b925060208a019950506001810190506128b5565b50829750879550505050505092915050565b6129088161305b565b82525050565b6129178161305b565b82525050565b600061292882612eb2565b6129328185612edb565b935061294281856020860161309e565b61294b816131d9565b840191505092915050565b600061296182612eb2565b61296b8185612eec565b935061297b81856020860161309e565b612984816131d9565b840191505092915050565b600061299c600f83612eec565b91506129a7826131ea565b602082019050919050565b60006129bf600e83612eec565b91506129ca82613213565b602082019050919050565b60006129e2601783612eec565b91506129ed8261323c565b602082019050919050565b6000612a05602183612eec565b9150612a1082613265565b604082019050919050565b6000612a28602b83612eec565b9150612a33826132b4565b604082019050919050565b6000612a4b601c83612eec565b9150612a5682613303565b602082019050919050565b600061018083016000830151612a7a6000860182612c77565b5060208301518482036020860152612a92828261291d565b91505060408301518482036040860152612aac828261291d565b9150506060830151612ac1606086018261286c565b506080830151612ad46080860182612c77565b5060a0830151612ae760a0860182612c77565b5060c0830151612afa60c0860182612c77565b5060e0830151612b0d60e0860182612c77565b50610100830151612b22610100860182612c77565b50610120830151612b37610120860182612c77565b50610140830151612b4c6101408601826128ff565b50610160830151612b616101608601826128ff565b508091505092915050565b600061018083016000830151612b856000860182612c77565b5060208301518482036020860152612b9d828261291d565b91505060408301518482036040860152612bb7828261291d565b9150506060830151612bcc606086018261286c565b506080830151612bdf6080860182612c77565b5060a0830151612bf260a0860182612c77565b5060c0830151612c0560c0860182612c77565b5060e0830151612c1860e0860182612c77565b50610100830151612c2d610100860182612c77565b50610120830151612c42610120860182612c77565b50610140830151612c576101408601826128ff565b50610160830151612c6c6101608601826128ff565b508091505092915050565b612c8081613087565b82525050565b612c8f81613087565b82525050565b60006020820190508181036000830152612caf818461288a565b905092915050565b6000602082019050612ccc600083018461290e565b92915050565b60006020820190508181036000830152612ceb8161298f565b9050919050565b60006020820190508181036000830152612d0b816129b2565b9050919050565b60006020820190508181036000830152612d2b816129d5565b9050919050565b60006020820190508181036000830152612d4b816129f8565b9050919050565b60006020820190508181036000830152612d6b81612a1b565b9050919050565b60006020820190508181036000830152612d8b81612a3e565b9050919050565b60006020820190508181036000830152612dac8184612b6c565b905092915050565b6000602082019050612dc96000830184612c86565b92915050565b600061018082019050612de5600083018f612c86565b8181036020830152612df7818e612956565b90508181036040830152612e0b818d612956565b9050612e1a606083018c61287b565b612e27608083018b612c86565b612e3460a083018a612c86565b612e4160c0830189612c86565b612e4e60e0830188612c86565b612e5c610100830187612c86565b612e6a610120830186612c86565b612e7861014083018561290e565b612e8661016083018461290e565b9d9c50505050505050505050505050565b6000819050602082019050919050565b600081519050919050565b600081519050919050565b6000602082019050919050565b600082825260208201905092915050565b600082825260208201905092915050565b600082825260208201905092915050565b6000612f0882613087565b9150612f1383613087565b9250827fffffffffffffffffffffffffffffffffffffffffffffffffffffffffffffffff03821115612f4857612f4761314c565b5b828201905092915050565b6000612f5e82613091565b9150612f6983613091565b92508260ff03821115612f7f57612f7e61314c565b5b828201905092915050565b6000612f9582613087565b9150612fa083613087565b925082612fb057612faf61317b565b5b828204905092915050565b6000612fc682613087565b9150612fd183613087565b9250817fffffffffffffffffffffffffffffffffffffffffffffffffffffffffffffffff048311821515161561300a5761300961314c565b5b828202905092915050565b600061302082613087565b915061302b83613087565b92508282101561303e5761303d61314c565b5b828203905092915050565b600061305482613067565b9050919050565b60008115159050919050565b600073ffffffffffffffffffffffffffffffffffffffff82169050919050565b6000819050919050565b600060ff82169050919050565b60005b838110156130bc5780820151818401526020810190506130a1565b838111156130cb576000848401525b50505050565b600060028204905060018216806130e957607f821691505b602082108114156130fd576130fc6131aa565b5b50919050565b600061310e82613087565b91507fffffffffffffffffffffffffffffffffffffffffffffffffffffffffffffffff8214156131415761314061314c565b5b600182019050919050565b7f4e487b7100000000000000000000000000000000000000000000000000000000600052601160045260246000fd5b7f4e487b7100000000000000000000000000000000000000000000000000000000600052601260045260246000fd5b7f4e487b7100000000000000000000000000000000000000000000000000000000600052602260045260246000fd5b6000601f19601f8301169050919050565b7f4e6f742045787069726564205965740000000000000000000000000000000000600082015250565b7f416c726561647920506173736564000000000000000000000000000000000000600082015250565b7f5468616e6b20796f7520666f7220646f6e6174696e6721000000000000000000600082015250565b7f4d696e696d756d20636f6e747269627574696f6e20697320302e31204d41544960008201527f4300000000000000000000000000000000000000000000000000000000000000602082015250565b7f4f6e6c7920476f76204f6666696369616c732063616e20637265617465206e6560008201527f77206f6666696369616c73000000000000000000000000000000000000000000602082015250565b7f4e6f7420656e6f7567682062616c616e636520746f207061796f757400000000600082015250565b61333581613049565b811461334057600080fd5b50565b61334c81613087565b811461335757600080fd5b5056fea2646970667358221220730187dae948b6f027d4e776cd5af1e226b9b00dd9f417db79b83e67804b60a764736f6c63430008040033",
  "linkReferences": {},
  "deployedLinkReferences": {}
}