{
  "_format": "hh-sol-artifact-1",
  "contractName": "DAO",
  "sourceName": "blockchain/contracts/Contract.sol",
  "abi": [
    {
      "anonymous": false,
      "inputs": [
        {
          "indexed": false,
          "internalType": "string",
          "name": "message",
          "type": "string"
        }
      ],
      "name": "ThanksMessage",
      "type": "event"
    },
    {
      "stateMutability": "payable",
      "type": "fallback"
    },
    {
      "inputs": [
        {
          "internalType": "uint256",
          "name": "",
          "type": "uint256"
        }
      ],
      "name": "allProposals",
      "outputs": [
        {
          "internalType": "uint256",
          "name": "proposalID",
          "type": "uint256"
        },
        {
          "internalType": "string",
          "name": "proposalName",
          "type": "string"
        },
        {
          "internalType": "string",
          "name": "proposalDesc",
          "type": "string"
        },
        {
          "internalType": "address",
          "name": "proposer",
          "type": "address"
        },
        {
          "internalType": "uint256",
          "name": "proposalAmount",
          "type": "uint256"
        },
        {
          "internalType": "uint256",
          "name": "forVotes",
          "type": "uint256"
        },
        {
          "internalType": "uint256",
          "name": "againstVotes",
          "type": "uint256"
        },
        {
          "internalType": "uint256",
          "name": "voteDeadline",
          "type": "uint256"
        },
        {
          "internalType": "bool",
          "name": "isValid",
          "type": "bool"
        },
        {
          "internalType": "bool",
          "name": "isPassed",
          "type": "bool"
        },
        {
          "internalType": "bool",
          "name": "isPaid",
          "type": "bool"
        }
      ],
      "stateMutability": "view",
      "type": "function"
    },
    {
      "inputs": [
        {
          "internalType": "uint256",
          "name": "_id",
          "type": "uint256"
        }
      ],
      "name": "countVotes",
      "outputs": [],
      "stateMutability": "nonpayable",
      "type": "function"
    },
    {
      "inputs": [
        {
          "internalType": "address",
          "name": "",
          "type": "address"
        }
      ],
      "name": "donationAmount",
      "outputs": [
        {
          "internalType": "uint256",
          "name": "",
          "type": "uint256"
        }
      ],
      "stateMutability": "view",
      "type": "function"
    },
    {
      "inputs": [],
      "name": "getAllProposals",
      "outputs": [
        {
          "components": [
            {
              "internalType": "uint256",
              "name": "proposalID",
              "type": "uint256"
            },
            {
              "internalType": "string",
              "name": "proposalName",
              "type": "string"
            },
            {
              "internalType": "string",
              "name": "proposalDesc",
              "type": "string"
            },
            {
              "internalType": "address",
              "name": "proposer",
              "type": "address"
            },
            {
              "internalType": "uint256",
              "name": "proposalAmount",
              "type": "uint256"
            },
            {
              "internalType": "uint256",
              "name": "forVotes",
              "type": "uint256"
            },
            {
              "internalType": "uint256",
              "name": "againstVotes",
              "type": "uint256"
            },
            {
              "internalType": "uint256",
              "name": "voteDeadline",
              "type": "uint256"
            },
            {
              "internalType": "bool",
              "name": "isValid",
              "type": "bool"
            },
            {
              "internalType": "bool",
              "name": "isPassed",
              "type": "bool"
            },
            {
              "internalType": "bool",
              "name": "isPaid",
              "type": "bool"
            }
          ],
          "internalType": "struct DAO.Proposal[]",
          "name": "",
          "type": "tuple[]"
        }
      ],
      "stateMutability": "view",
      "type": "function"
    },
    {
      "inputs": [],
      "name": "getMyProposals",
      "outputs": [
        {
          "components": [
            {
              "internalType": "uint256",
              "name": "proposalID",
              "type": "uint256"
            },
            {
              "internalType": "string",
              "name": "proposalName",
              "type": "string"
            },
            {
              "internalType": "string",
              "name": "proposalDesc",
              "type": "string"
            },
            {
              "internalType": "address",
              "name": "proposer",
              "type": "address"
            },
            {
              "internalType": "uint256",
              "name": "proposalAmount",
              "type": "uint256"
            },
            {
              "internalType": "uint256",
              "name": "forVotes",
              "type": "uint256"
            },
            {
              "internalType": "uint256",
              "name": "againstVotes",
              "type": "uint256"
            },
            {
              "internalType": "uint256",
              "name": "voteDeadline",
              "type": "uint256"
            },
            {
              "internalType": "bool",
              "name": "isValid",
              "type": "bool"
            },
            {
              "internalType": "bool",
              "name": "isPassed",
              "type": "bool"
            },
            {
              "internalType": "bool",
              "name": "isPaid",
              "type": "bool"
            }
          ],
          "internalType": "struct DAO.Proposal[]",
          "name": "",
          "type": "tuple[]"
        }
      ],
      "stateMutability": "view",
      "type": "function"
    },
    {
      "inputs": [
        {
          "internalType": "uint256",
          "name": "_id",
          "type": "uint256"
        }
      ],
      "name": "getProposal",
      "outputs": [
        {
          "components": [
            {
              "internalType": "uint256",
              "name": "proposalID",
              "type": "uint256"
            },
            {
              "internalType": "string",
              "name": "proposalName",
              "type": "string"
            },
            {
              "internalType": "string",
              "name": "proposalDesc",
              "type": "string"
            },
            {
              "internalType": "address",
              "name": "proposer",
              "type": "address"
            },
            {
              "internalType": "uint256",
              "name": "proposalAmount",
              "type": "uint256"
            },
            {
              "internalType": "uint256",
              "name": "forVotes",
              "type": "uint256"
            },
            {
              "internalType": "uint256",
              "name": "againstVotes",
              "type": "uint256"
            },
            {
              "internalType": "uint256",
              "name": "voteDeadline",
              "type": "uint256"
            },
            {
              "internalType": "bool",
              "name": "isValid",
              "type": "bool"
            },
            {
              "internalType": "bool",
              "name": "isPassed",
              "type": "bool"
            },
            {
              "internalType": "bool",
              "name": "isPaid",
              "type": "bool"
            }
          ],
          "internalType": "struct DAO.Proposal",
          "name": "",
          "type": "tuple"
        }
      ],
      "stateMutability": "view",
      "type": "function"
    },
    {
      "inputs": [
        {
          "internalType": "address",
          "name": "_sender",
          "type": "address"
        }
      ],
      "name": "getProposalByAddress",
      "outputs": [
        {
          "components": [
            {
              "internalType": "uint256",
              "name": "proposalID",
              "type": "uint256"
            },
            {
              "internalType": "string",
              "name": "proposalName",
              "type": "string"
            },
            {
              "internalType": "string",
              "name": "proposalDesc",
              "type": "string"
            },
            {
              "internalType": "address",
              "name": "proposer",
              "type": "address"
            },
            {
              "internalType": "uint256",
              "name": "proposalAmount",
              "type": "uint256"
            },
            {
              "internalType": "uint256",
              "name": "forVotes",
              "type": "uint256"
            },
            {
              "internalType": "uint256",
              "name": "againstVotes",
              "type": "uint256"
            },
            {
              "internalType": "uint256",
              "name": "voteDeadline",
              "type": "uint256"
            },
            {
              "internalType": "bool",
              "name": "isValid",
              "type": "bool"
            },
            {
              "internalType": "bool",
              "name": "isPassed",
              "type": "bool"
            },
            {
              "internalType": "bool",
              "name": "isPaid",
              "type": "bool"
            }
          ],
          "internalType": "struct DAO.Proposal[]",
          "name": "",
          "type": "tuple[]"
        }
      ],
      "stateMutability": "view",
      "type": "function"
    },
    {
      "inputs": [
        {
          "internalType": "string",
          "name": "_proposalName",
          "type": "string"
        },
        {
          "internalType": "string",
          "name": "_proposalDesc",
          "type": "string"
        },
        {
          "internalType": "uint256",
          "name": "amount",
          "type": "uint256"
        }
      ],
      "name": "makeProposal",
      "outputs": [
        {
          "internalType": "bool",
          "name": "",
          "type": "bool"
        }
      ],
      "stateMutability": "payable",
      "type": "function"
    },
    {
      "inputs": [
        {
          "internalType": "address",
          "name": "",
          "type": "address"
        },
        {
          "internalType": "uint256",
          "name": "",
          "type": "uint256"
        }
      ],
      "name": "myProposals",
      "outputs": [
        {
          "internalType": "uint256",
          "name": "proposalID",
          "type": "uint256"
        },
        {
          "internalType": "string",
          "name": "proposalName",
          "type": "string"
        },
        {
          "internalType": "string",
          "name": "proposalDesc",
          "type": "string"
        },
        {
          "internalType": "address",
          "name": "proposer",
          "type": "address"
        },
        {
          "internalType": "uint256",
          "name": "proposalAmount",
          "type": "uint256"
        },
        {
          "internalType": "uint256",
          "name": "forVotes",
          "type": "uint256"
        },
        {
          "internalType": "uint256",
          "name": "againstVotes",
          "type": "uint256"
        },
        {
          "internalType": "uint256",
          "name": "voteDeadline",
          "type": "uint256"
        },
        {
          "internalType": "bool",
          "name": "isValid",
          "type": "bool"
        },
        {
          "internalType": "bool",
          "name": "isPassed",
          "type": "bool"
        },
        {
          "internalType": "bool",
          "name": "isPaid",
          "type": "bool"
        }
      ],
      "stateMutability": "view",
      "type": "function"
    },
    {
      "inputs": [
        {
          "internalType": "uint256",
          "name": "_id",
          "type": "uint256"
        }
      ],
      "name": "voteAgainst",
      "outputs": [
        {
          "internalType": "bool",
          "name": "",
          "type": "bool"
        }
      ],
      "stateMutability": "payable",
      "type": "function"
    },
    {
      "inputs": [
        {
          "internalType": "uint256",
          "name": "_id",
          "type": "uint256"
        }
      ],
      "name": "voteFor",
      "outputs": [
        {
          "internalType": "bool",
          "name": "",
          "type": "bool"
        }
      ],
      "stateMutability": "payable",
      "type": "function"
    },
    {
      "stateMutability": "payable",
      "type": "receive"
    }
  ],
  "bytecode": "0x60806040526000805534801561001457600080fd5b50612d52806100246000396000f3fe6080604052600436106100a05760003560e01c806386a505351161006457806386a50535146102ba578063938351b8146102ea578063997afb9d14610331578063ae677d8c1461036e578063c7f758a8146103ab578063cceb68f5146103e857610132565b80631840f0ca146101bf57806336ffa905146101e8578063380e5e441461021357806348985deb14610243578063750e443a1461028a57610132565b366101325734600360003373ffffffffffffffffffffffffffffffffffffffff1673ffffffffffffffffffffffffffffffffffffffff16815260200190815260200160002060008282546100f49190612900565b925050819055507f3d27d812b049caf41fcc29cadcf63d52ad2b9f285ff79d360653b0a29bd8dbb460405161012890612764565b60405180910390a1005b34600360003373ffffffffffffffffffffffffffffffffffffffff1673ffffffffffffffffffffffffffffffffffffffff16815260200190815260200160002060008282546101819190612900565b925050819055507f3d27d812b049caf41fcc29cadcf63d52ad2b9f285ff79d360653b0a29bd8dbb46040516101b590612764565b60405180910390a1005b3480156101cb57600080fd5b506101e660048036038101906101e19190612228565b610413565b005b3480156101f457600080fd5b506101fd610a7c565b60405161020a9190612687565b60405180910390f35b61022d6004803603810190610228919061219f565b610d16565b60405161023a91906126a9565b60405180910390f35b34801561024f57600080fd5b5061026a60048036038101906102659190612163565b6111a1565b6040516102819b9a999897969594939291906127e1565b60405180910390f35b6102a4600480360381019061029f9190612228565b61136f565b6040516102b191906126a9565b60405180910390f35b6102d460048036038101906102cf9190612228565b6114f5565b6040516102e191906126a9565b60405180910390f35b3480156102f657600080fd5b50610311600480360381019061030c9190612228565b61167b565b6040516103289b9a999897969594939291906127e1565b60405180910390f35b34801561033d57600080fd5b506103586004803603810190610353919061213a565b61183c565b6040516103659190612687565b60405180910390f35b34801561037a57600080fd5b506103956004803603810190610390919061213a565b611ad8565b6040516103a291906127c6565b60405180910390f35b3480156103b757600080fd5b506103d260048036038101906103cd9190612228565b611af0565b6040516103df91906127a4565b60405180910390f35b3480156103f457600080fd5b506103fd611d50565b60405161040a9190612687565b60405180910390f35b6002818154811061044d577f4e487b7100000000000000000000000000000000000000000000000000000000600052603260045260246000fd5b90600052602060002090600902016004015447116104a0576040517f08c379a000000000000000000000000000000000000000000000000000000000815260040161049790612784565b60405180910390fd5b600281815481106104da577f4e487b7100000000000000000000000000000000000000000000000000000000600052603260045260246000fd5b906000526020600020906009020160080160019054906101000a900460ff16610538576040517f08c379a000000000000000000000000000000000000000000000000000000000815260040161052f90612744565b60405180910390fd5b60028181548110610572577f4e487b7100000000000000000000000000000000000000000000000000000000600052603260045260246000fd5b906000526020600020906009020160080160029054906101000a900460ff166105d0576040517f08c379a00000000000000000000000000000000000000000000000000000000081526004016105c790612724565b60405180910390fd5b6002818154811061060a577f4e487b7100000000000000000000000000000000000000000000000000000000600052603260045260246000fd5b906000526020600020906009020160080160009054906101000a900460ff16610668576040517f08c379a000000000000000000000000000000000000000000000000000000000815260040161065f906126e4565b60405180910390fd5b600281815481106106a2577f4e487b7100000000000000000000000000000000000000000000000000000000600052603260045260246000fd5b906000526020600020906009020160060154600282815481106106ee577f4e487b7100000000000000000000000000000000000000000000000000000000600052603260045260246000fd5b906000526020600020906009020160050154111561094c57600160028281548110610742577f4e487b7100000000000000000000000000000000000000000000000000000000600052603260045260246000fd5b906000526020600020906009020160080160016101000a81548160ff0219169083151502179055506001600282815481106107a6577f4e487b7100000000000000000000000000000000000000000000000000000000600052603260045260246000fd5b906000526020600020906009020160080160026101000a81548160ff02191690831515021790555060006002828154811061080a577f4e487b7100000000000000000000000000000000000000000000000000000000600052603260045260246000fd5b906000526020600020906009020160080160006101000a81548160ff0219169083151502179055506002818154811061086c577f4e487b7100000000000000000000000000000000000000000000000000000000600052603260045260246000fd5b906000526020600020906009020160030160009054906101000a900473ffffffffffffffffffffffffffffffffffffffff1673ffffffffffffffffffffffffffffffffffffffff166108fc6064605f600285815481106108f5577f4e487b7100000000000000000000000000000000000000000000000000000000600052603260045260246000fd5b9060005260206000209060090201600401546109119190612987565b61091b9190612956565b9081150290604051600060405180830381858888f19350505050158015610946573d6000803e3d6000fd5b50610a79565b600060028281548110610988577f4e487b7100000000000000000000000000000000000000000000000000000000600052603260045260246000fd5b906000526020600020906009020160080160016101000a81548160ff0219169083151502179055506001600282815481106109ec577f4e487b7100000000000000000000000000000000000000000000000000000000600052603260045260246000fd5b906000526020600020906009020160080160026101000a81548160ff021916908315150217905550600060028281548110610a50577f4e487b7100000000000000000000000000000000000000000000000000000000600052603260045260246000fd5b906000526020600020906009020160080160006101000a81548160ff0219169083151502179055505b50565b6060600160003273ffffffffffffffffffffffffffffffffffffffff1673ffffffffffffffffffffffffffffffffffffffff168152602001908152602001600020805480602002602001604051908101604052809291908181526020016000905b82821015610d0d57838290600052602060002090600902016040518061016001604052908160008201548152602001600182018054610b1b90612a90565b80601f0160208091040260200160405190810160405280929190818152602001828054610b4790612a90565b8015610b945780601f10610b6957610100808354040283529160200191610b94565b820191906000526020600020905b815481529060010190602001808311610b7757829003601f168201915b50505050508152602001600282018054610bad90612a90565b80601f0160208091040260200160405190810160405280929190818152602001828054610bd990612a90565b8015610c265780601f10610bfb57610100808354040283529160200191610c26565b820191906000526020600020905b815481529060010190602001808311610c0957829003601f168201915b505050505081526020016003820160009054906101000a900473ffffffffffffffffffffffffffffffffffffffff1673ffffffffffffffffffffffffffffffffffffffff1673ffffffffffffffffffffffffffffffffffffffff168152602001600482015481526020016005820154815260200160068201548152602001600782015481526020016008820160009054906101000a900460ff161515151581526020016008820160019054906101000a900460ff161515151581526020016008820160029054906101000a900460ff16151515158152505081526020019060010190610add565b50505050905090565b6000670de0b6b3a7640000341015610d63576040517f08c379a0000000000000000000000000000000000000000000000000000000008152600401610d5a90612704565b60405180910390fd5b610d6b611fad565b60005481600001818152505086868080601f016020809104026020016040519081016040528093929190818152602001838380828437600081840152601f19601f82011690508083019250505050505050816020018190525084848080601f016020809104026020016040519081016040528093929190818152602001838380828437600081840152601f19601f8201169050808301925050505050505081604001819052508281608001818152505032816060019073ffffffffffffffffffffffffffffffffffffffff16908173ffffffffffffffffffffffffffffffffffffffff168152505060008160a001818152505060008160c00181815250506206978042610e789190612900565b8160e00181815250506001816101000190151590811515815250506000816101200190151590811515815250506000816101400190151590811515815250506002819080600181540180825580915050600190039060005260206000209060090201600090919091909150600082015181600001556020820151816001019080519060200190610f09929190612023565b506040820151816002019080519060200190610f26929190612023565b5060608201518160030160006101000a81548173ffffffffffffffffffffffffffffffffffffffff021916908373ffffffffffffffffffffffffffffffffffffffff1602179055506080820151816004015560a0820151816005015560c0820151816006015560e082015181600701556101008201518160080160006101000a81548160ff0219169083151502179055506101208201518160080160016101000a81548160ff0219169083151502179055506101408201518160080160026101000a81548160ff0219169083151502179055505050600160003273ffffffffffffffffffffffffffffffffffffffff1673ffffffffffffffffffffffffffffffffffffffff16815260200190815260200160002081908060018154018082558091505060019003906000526020600020906009020160009091909190915060008201518160000155602082015181600101908051906020019061108a929190612023565b5060408201518160020190805190602001906110a7929190612023565b5060608201518160030160006101000a81548173ffffffffffffffffffffffffffffffffffffffff021916908373ffffffffffffffffffffffffffffffffffffffff1602179055506080820151816004015560a0820151816005015560c0820151816006015560e082015181600701556101008201518160080160006101000a81548160ff0219169083151502179055506101208201518160080160016101000a81548160ff0219169083151502179055506101408201518160080160026101000a81548160ff021916908315150217905550505060008081548092919061118e90612ac2565b9190505550600191505095945050505050565b600160205281600052604060002081815481106111bd57600080fd5b9060005260206000209060090201600091509150508060000154908060010180546111e790612a90565b80601f016020809104026020016040519081016040528092919081815260200182805461121390612a90565b80156112605780601f1061123557610100808354040283529160200191611260565b820191906000526020600020905b81548152906001019060200180831161124357829003601f168201915b50505050509080600201805461127590612a90565b80601f01602080910402602001604051908101604052809291908181526020018280546112a190612a90565b80156112ee5780601f106112c3576101008083540402835291602001916112ee565b820191906000526020600020905b8154815290600101906020018083116112d157829003601f168201915b5050505050908060030160009054906101000a900473ffffffffffffffffffffffffffffffffffffffff16908060040154908060050154908060060154908060070154908060080160009054906101000a900460ff16908060080160019054906101000a900460ff16908060080160029054906101000a900460ff1690508b565b600081426001600283815481106113af577f4e487b7100000000000000000000000000000000000000000000000000000000600052603260045260246000fd5b9060005260206000209060090201600701546113cb91906129e1565b10156114435760006002828154811061140d577f4e487b7100000000000000000000000000000000000000000000000000000000600052603260045260246000fd5b906000526020600020906009020160080160006101000a81548160ff02191690831515021790555061143e81610413565b6114ef565b6001341015611487576040517f08c379a000000000000000000000000000000000000000000000000000000000815260040161147e906126c4565b60405180910390fd5b6001600284815481106114c3577f4e487b7100000000000000000000000000000000000000000000000000000000600052603260045260246000fd5b906000526020600020906009020160060160008282546114e39190612900565b92505081905550600191505b50919050565b60008142600160028381548110611535577f4e487b7100000000000000000000000000000000000000000000000000000000600052603260045260246000fd5b90600052602060002090600902016007015461155191906129e1565b10156115c957600060028281548110611593577f4e487b7100000000000000000000000000000000000000000000000000000000600052603260045260246000fd5b906000526020600020906009020160080160006101000a81548160ff0219169083151502179055506115c481610413565b611675565b600134101561160d576040517f08c379a0000000000000000000000000000000000000000000000000000000008152600401611604906126c4565b60405180910390fd5b600160028481548110611649577f4e487b7100000000000000000000000000000000000000000000000000000000600052603260045260246000fd5b906000526020600020906009020160050160008282546116699190612900565b92505081905550600191505b50919050565b6002818154811061168b57600080fd5b90600052602060002090600902016000915090508060000154908060010180546116b490612a90565b80601f01602080910402602001604051908101604052809291908181526020018280546116e090612a90565b801561172d5780601f106117025761010080835404028352916020019161172d565b820191906000526020600020905b81548152906001019060200180831161171057829003601f168201915b50505050509080600201805461174290612a90565b80601f016020809104026020016040519081016040528092919081815260200182805461176e90612a90565b80156117bb5780601f10611790576101008083540402835291602001916117bb565b820191906000526020600020905b81548152906001019060200180831161179e57829003601f168201915b5050505050908060030160009054906101000a900473ffffffffffffffffffffffffffffffffffffffff16908060040154908060050154908060060154908060070154908060080160009054906101000a900460ff16908060080160019054906101000a900460ff16908060080160029054906101000a900460ff1690508b565b6060600160008373ffffffffffffffffffffffffffffffffffffffff1673ffffffffffffffffffffffffffffffffffffffff168152602001908152602001600020805480602002602001604051908101604052809291908181526020016000905b82821015611acd578382906000526020600020906009020160405180610160016040529081600082015481526020016001820180546118db90612a90565b80601f016020809104026020016040519081016040528092919081815260200182805461190790612a90565b80156119545780601f1061192957610100808354040283529160200191611954565b820191906000526020600020905b81548152906001019060200180831161193757829003601f168201915b5050505050815260200160028201805461196d90612a90565b80601f016020809104026020016040519081016040528092919081815260200182805461199990612a90565b80156119e65780601f106119bb576101008083540402835291602001916119e6565b820191906000526020600020905b8154815290600101906020018083116119c957829003601f168201915b505050505081526020016003820160009054906101000a900473ffffffffffffffffffffffffffffffffffffffff1673ffffffffffffffffffffffffffffffffffffffff1673ffffffffffffffffffffffffffffffffffffffff168152602001600482015481526020016005820154815260200160068201548152602001600782015481526020016008820160009054906101000a900460ff161515151581526020016008820160019054906101000a900460ff161515151581526020016008820160029054906101000a900460ff1615151515815250508152602001906001019061189d565b505050509050919050565b60036020528060005260406000206000915090505481565b611af8611fad565b60028281548110611b32577f4e487b7100000000000000000000000000000000000000000000000000000000600052603260045260246000fd5b90600052602060002090600902016040518061016001604052908160008201548152602001600182018054611b6690612a90565b80601f0160208091040260200160405190810160405280929190818152602001828054611b9290612a90565b8015611bdf5780601f10611bb457610100808354040283529160200191611bdf565b820191906000526020600020905b815481529060010190602001808311611bc257829003601f168201915b50505050508152602001600282018054611bf890612a90565b80601f0160208091040260200160405190810160405280929190818152602001828054611c2490612a90565b8015611c715780601f10611c4657610100808354040283529160200191611c71565b820191906000526020600020905b815481529060010190602001808311611c5457829003601f168201915b505050505081526020016003820160009054906101000a900473ffffffffffffffffffffffffffffffffffffffff1673ffffffffffffffffffffffffffffffffffffffff1673ffffffffffffffffffffffffffffffffffffffff168152602001600482015481526020016005820154815260200160068201548152602001600782015481526020016008820160009054906101000a900460ff161515151581526020016008820160019054906101000a900460ff161515151581526020016008820160029054906101000a900460ff1615151515815250509050919050565b60606002805480602002602001604051908101604052809291908181526020016000905b82821015611fa457838290600052602060002090600902016040518061016001604052908160008201548152602001600182018054611db290612a90565b80601f0160208091040260200160405190810160405280929190818152602001828054611dde90612a90565b8015611e2b5780601f10611e0057610100808354040283529160200191611e2b565b820191906000526020600020905b815481529060010190602001808311611e0e57829003601f168201915b50505050508152602001600282018054611e4490612a90565b80601f0160208091040260200160405190810160405280929190818152602001828054611e7090612a90565b8015611ebd5780601f10611e9257610100808354040283529160200191611ebd565b820191906000526020600020905b815481529060010190602001808311611ea057829003601f168201915b505050505081526020016003820160009054906101000a900473ffffffffffffffffffffffffffffffffffffffff1673ffffffffffffffffffffffffffffffffffffffff1673ffffffffffffffffffffffffffffffffffffffff168152602001600482015481526020016005820154815260200160068201548152602001600782015481526020016008820160009054906101000a900460ff161515151581526020016008820160019054906101000a900460ff161515151581526020016008820160029054906101000a900460ff16151515158152505081526020019060010190611d74565b50505050905090565b604051806101600160405280600081526020016060815260200160608152602001600073ffffffffffffffffffffffffffffffffffffffff168152602001600081526020016000815260200160008152602001600081526020016000151581526020016000151581526020016000151581525090565b82805461202f90612a90565b90600052602060002090601f0160209004810192826120515760008555612098565b82601f1061206a57805160ff1916838001178555612098565b82800160010185558215612098579182015b8281111561209757825182559160200191906001019061207c565b5b5090506120a591906120a9565b5090565b5b808211156120c25760008160009055506001016120aa565b5090565b6000813590506120d581612cee565b92915050565b60008083601f8401126120ed57600080fd5b8235905067ffffffffffffffff81111561210657600080fd5b60208301915083600182028301111561211e57600080fd5b9250929050565b60008135905061213481612d05565b92915050565b60006020828403121561214c57600080fd5b600061215a848285016120c6565b91505092915050565b6000806040838503121561217657600080fd5b6000612184858286016120c6565b925050602061219585828601612125565b9150509250929050565b6000806000806000606086880312156121b757600080fd5b600086013567ffffffffffffffff8111156121d157600080fd5b6121dd888289016120db565b9550955050602086013567ffffffffffffffff8111156121fc57600080fd5b612208888289016120db565b9350935050604061221b88828901612125565b9150509295509295909350565b60006020828403121561223a57600080fd5b600061224884828501612125565b91505092915050565b600061225d838361247d565b905092915050565b61226e81612a15565b82525050565b61227d81612a15565b82525050565b600061228e826128aa565b61229881856128cd565b9350836020820285016122aa8561289a565b8060005b858110156122e657848403895281516122c78582612251565b94506122d2836128c0565b925060208a019950506001810190506122ae565b50829750879550505050505092915050565b61230181612a27565b82525050565b61231081612a27565b82525050565b6000612321826128b5565b61232b81856128de565b935061233b818560208601612a5d565b61234481612b98565b840191505092915050565b600061235a826128b5565b61236481856128ef565b9350612374818560208601612a5d565b61237d81612b98565b840191505092915050565b6000612395602c836128ef565b91506123a082612ba9565b604082019050919050565b60006123b8600f836128ef565b91506123c382612bf8565b602082019050919050565b60006123db601f836128ef565b91506123e682612c21565b602082019050919050565b60006123fe601d836128ef565b915061240982612c4a565b602082019050919050565b6000612421600e836128ef565b915061242c82612c73565b602082019050919050565b60006124446017836128ef565b915061244f82612c9c565b602082019050919050565b6000612467601c836128ef565b915061247282612cc5565b602082019050919050565b6000610160830160008301516124966000860182612669565b50602083015184820360208601526124ae8282612316565b915050604083015184820360408601526124c88282612316565b91505060608301516124dd6060860182612265565b5060808301516124f06080860182612669565b5060a083015161250360a0860182612669565b5060c083015161251660c0860182612669565b5060e083015161252960e0860182612669565b5061010083015161253e6101008601826122f8565b506101208301516125536101208601826122f8565b506101408301516125686101408601826122f8565b508091505092915050565b60006101608301600083015161258c6000860182612669565b50602083015184820360208601526125a48282612316565b915050604083015184820360408601526125be8282612316565b91505060608301516125d36060860182612265565b5060808301516125e66080860182612669565b5060a08301516125f960a0860182612669565b5060c083015161260c60c0860182612669565b5060e083015161261f60e0860182612669565b506101008301516126346101008601826122f8565b506101208301516126496101208601826122f8565b5061014083015161265e6101408601826122f8565b508091505092915050565b61267281612a53565b82525050565b61268181612a53565b82525050565b600060208201905081810360008301526126a18184612283565b905092915050565b60006020820190506126be6000830184612307565b92915050565b600060208201905081810360008301526126dd81612388565b9050919050565b600060208201905081810360008301526126fd816123ab565b9050919050565b6000602082019050818103600083015261271d816123ce565b9050919050565b6000602082019050818103600083015261273d816123f1565b9050919050565b6000602082019050818103600083015261275d81612414565b9050919050565b6000602082019050818103600083015261277d81612437565b9050919050565b6000602082019050818103600083015261279d8161245a565b9050919050565b600060208201905081810360008301526127be8184612573565b905092915050565b60006020820190506127db6000830184612678565b92915050565b6000610160820190506127f7600083018e612678565b8181036020830152612809818d61234f565b9050818103604083015261281d818c61234f565b905061282c606083018b612274565b612839608083018a612678565b61284660a0830189612678565b61285360c0830188612678565b61286060e0830187612678565b61286e610100830186612307565b61287c610120830185612307565b61288a610140830184612307565b9c9b505050505050505050505050565b6000819050602082019050919050565b600081519050919050565b600081519050919050565b6000602082019050919050565b600082825260208201905092915050565b600082825260208201905092915050565b600082825260208201905092915050565b600061290b82612a53565b915061291683612a53565b9250827fffffffffffffffffffffffffffffffffffffffffffffffffffffffffffffffff0382111561294b5761294a612b0b565b5b828201905092915050565b600061296182612a53565b915061296c83612a53565b92508261297c5761297b612b3a565b5b828204905092915050565b600061299282612a53565b915061299d83612a53565b9250817fffffffffffffffffffffffffffffffffffffffffffffffffffffffffffffffff04831182151516156129d6576129d5612b0b565b5b828202905092915050565b60006129ec82612a53565b91506129f783612a53565b925082821015612a0a57612a09612b0b565b5b828203905092915050565b6000612a2082612a33565b9050919050565b60008115159050919050565b600073ffffffffffffffffffffffffffffffffffffffff82169050919050565b6000819050919050565b60005b83811015612a7b578082015181840152602081019050612a60565b83811115612a8a576000848401525b50505050565b60006002820490506001821680612aa857607f821691505b60208210811415612abc57612abb612b69565b5b50919050565b6000612acd82612a53565b91507fffffffffffffffffffffffffffffffffffffffffffffffffffffffffffffffff821415612b0057612aff612b0b565b5b600182019050919050565b7f4e487b7100000000000000000000000000000000000000000000000000000000600052601160045260246000fd5b7f4e487b7100000000000000000000000000000000000000000000000000000000600052601260045260246000fd5b7f4e487b7100000000000000000000000000000000000000000000000000000000600052602260045260246000fd5b6000601f19601f8301169050919050565b7f506c6561736520646f6e6174652061746c656173742031204d4154494320626560008201527f666f726520766f74696e67210000000000000000000000000000000000000000602082015250565b7f4e6f742045787069726564205965740000000000000000000000000000000000600082015250565b7f4d696e696d756d20636f6e747269627574696f6e2069732031204d4154494300600082015250565b7f416c72656164792050616964206f722050726f706f73616c206c6f7374000000600082015250565b7f416c726561647920506173736564000000000000000000000000000000000000600082015250565b7f5468616e6b20796f7520666f7220646f6e6174696e6721000000000000000000600082015250565b7f4e6f7420656e6f7567682062616c616e636520746f207061796f757400000000600082015250565b612cf781612a15565b8114612d0257600080fd5b50565b612d0e81612a53565b8114612d1957600080fd5b5056fea2646970667358221220c9c3014478ce04f99c0d09ab4ee1d29ff328a7257d75075b649115b76f24642964736f6c63430008040033",
  "linkReferences": {},
  "deployedLinkReferences": {}
}