{
  "_format": "hh-sol-artifact-1",
  "contractName": "DAO",
  "sourceName": "blockchain/contracts/Contract.sol",
  "abi": [
    {
      "anonymous": false,
      "inputs": [
        {
          "indexed": false,
          "internalType": "string",
          "name": "message",
          "type": "string"
        }
      ],
      "name": "ThanksMessage",
      "type": "event"
    },
    {
      "stateMutability": "payable",
      "type": "fallback"
    },
    {
      "inputs": [
        {
          "internalType": "uint256",
          "name": "",
          "type": "uint256"
        }
      ],
      "name": "allProposals",
      "outputs": [
        {
          "internalType": "uint256",
          "name": "proposalID",
          "type": "uint256"
        },
        {
          "internalType": "string",
          "name": "proposalName",
          "type": "string"
        },
        {
          "internalType": "string",
          "name": "proposalDesc",
          "type": "string"
        },
        {
          "internalType": "address",
          "name": "proposer",
          "type": "address"
        },
        {
          "internalType": "uint256",
          "name": "proposalAmount",
          "type": "uint256"
        },
        {
          "internalType": "uint256",
          "name": "forVotes",
          "type": "uint256"
        },
        {
          "internalType": "uint256",
          "name": "againstVotes",
          "type": "uint256"
        },
        {
          "internalType": "uint256",
          "name": "voteDeadline",
          "type": "uint256"
        },
        {
          "internalType": "bool",
          "name": "isValid",
          "type": "bool"
        },
        {
          "internalType": "bool",
          "name": "isPassed",
          "type": "bool"
        },
        {
          "internalType": "bool",
          "name": "isPaid",
          "type": "bool"
        }
      ],
      "stateMutability": "view",
      "type": "function"
    },
    {
      "inputs": [
        {
          "internalType": "uint256",
          "name": "_id",
          "type": "uint256"
        }
      ],
      "name": "countVotes",
      "outputs": [],
      "stateMutability": "nonpayable",
      "type": "function"
    },
    {
      "inputs": [
        {
          "internalType": "address",
          "name": "",
          "type": "address"
        }
      ],
      "name": "donationAmount",
      "outputs": [
        {
          "internalType": "uint256",
          "name": "",
          "type": "uint256"
        }
      ],
      "stateMutability": "view",
      "type": "function"
    },
    {
      "inputs": [],
      "name": "getAllProposals",
      "outputs": [
        {
          "components": [
            {
              "internalType": "uint256",
              "name": "proposalID",
              "type": "uint256"
            },
            {
              "internalType": "string",
              "name": "proposalName",
              "type": "string"
            },
            {
              "internalType": "string",
              "name": "proposalDesc",
              "type": "string"
            },
            {
              "internalType": "address",
              "name": "proposer",
              "type": "address"
            },
            {
              "internalType": "uint256",
              "name": "proposalAmount",
              "type": "uint256"
            },
            {
              "internalType": "uint256",
              "name": "forVotes",
              "type": "uint256"
            },
            {
              "internalType": "uint256",
              "name": "againstVotes",
              "type": "uint256"
            },
            {
              "internalType": "uint256",
              "name": "voteDeadline",
              "type": "uint256"
            },
            {
              "internalType": "bool",
              "name": "isValid",
              "type": "bool"
            },
            {
              "internalType": "bool",
              "name": "isPassed",
              "type": "bool"
            },
            {
              "internalType": "bool",
              "name": "isPaid",
              "type": "bool"
            }
          ],
          "internalType": "struct DAO.Proposal[]",
          "name": "",
          "type": "tuple[]"
        }
      ],
      "stateMutability": "view",
      "type": "function"
    },
    {
      "inputs": [],
      "name": "getMyProposals",
      "outputs": [
        {
          "components": [
            {
              "internalType": "uint256",
              "name": "proposalID",
              "type": "uint256"
            },
            {
              "internalType": "string",
              "name": "proposalName",
              "type": "string"
            },
            {
              "internalType": "string",
              "name": "proposalDesc",
              "type": "string"
            },
            {
              "internalType": "address",
              "name": "proposer",
              "type": "address"
            },
            {
              "internalType": "uint256",
              "name": "proposalAmount",
              "type": "uint256"
            },
            {
              "internalType": "uint256",
              "name": "forVotes",
              "type": "uint256"
            },
            {
              "internalType": "uint256",
              "name": "againstVotes",
              "type": "uint256"
            },
            {
              "internalType": "uint256",
              "name": "voteDeadline",
              "type": "uint256"
            },
            {
              "internalType": "bool",
              "name": "isValid",
              "type": "bool"
            },
            {
              "internalType": "bool",
              "name": "isPassed",
              "type": "bool"
            },
            {
              "internalType": "bool",
              "name": "isPaid",
              "type": "bool"
            }
          ],
          "internalType": "struct DAO.Proposal[]",
          "name": "",
          "type": "tuple[]"
        }
      ],
      "stateMutability": "view",
      "type": "function"
    },
    {
      "inputs": [
        {
          "internalType": "uint256",
          "name": "_id",
          "type": "uint256"
        }
      ],
      "name": "getProposal",
      "outputs": [
        {
          "components": [
            {
              "internalType": "uint256",
              "name": "proposalID",
              "type": "uint256"
            },
            {
              "internalType": "string",
              "name": "proposalName",
              "type": "string"
            },
            {
              "internalType": "string",
              "name": "proposalDesc",
              "type": "string"
            },
            {
              "internalType": "address",
              "name": "proposer",
              "type": "address"
            },
            {
              "internalType": "uint256",
              "name": "proposalAmount",
              "type": "uint256"
            },
            {
              "internalType": "uint256",
              "name": "forVotes",
              "type": "uint256"
            },
            {
              "internalType": "uint256",
              "name": "againstVotes",
              "type": "uint256"
            },
            {
              "internalType": "uint256",
              "name": "voteDeadline",
              "type": "uint256"
            },
            {
              "internalType": "bool",
              "name": "isValid",
              "type": "bool"
            },
            {
              "internalType": "bool",
              "name": "isPassed",
              "type": "bool"
            },
            {
              "internalType": "bool",
              "name": "isPaid",
              "type": "bool"
            }
          ],
          "internalType": "struct DAO.Proposal",
          "name": "",
          "type": "tuple"
        }
      ],
      "stateMutability": "view",
      "type": "function"
    },
    {
      "inputs": [
        {
          "internalType": "address",
          "name": "_sender",
          "type": "address"
        }
      ],
      "name": "getProposalByAddress",
      "outputs": [
        {
          "components": [
            {
              "internalType": "uint256",
              "name": "proposalID",
              "type": "uint256"
            },
            {
              "internalType": "string",
              "name": "proposalName",
              "type": "string"
            },
            {
              "internalType": "string",
              "name": "proposalDesc",
              "type": "string"
            },
            {
              "internalType": "address",
              "name": "proposer",
              "type": "address"
            },
            {
              "internalType": "uint256",
              "name": "proposalAmount",
              "type": "uint256"
            },
            {
              "internalType": "uint256",
              "name": "forVotes",
              "type": "uint256"
            },
            {
              "internalType": "uint256",
              "name": "againstVotes",
              "type": "uint256"
            },
            {
              "internalType": "uint256",
              "name": "voteDeadline",
              "type": "uint256"
            },
            {
              "internalType": "bool",
              "name": "isValid",
              "type": "bool"
            },
            {
              "internalType": "bool",
              "name": "isPassed",
              "type": "bool"
            },
            {
              "internalType": "bool",
              "name": "isPaid",
              "type": "bool"
            }
          ],
          "internalType": "struct DAO.Proposal[]",
          "name": "",
          "type": "tuple[]"
        }
      ],
      "stateMutability": "view",
      "type": "function"
    },
    {
      "inputs": [
        {
          "internalType": "string",
          "name": "_proposalName",
          "type": "string"
        },
        {
          "internalType": "string",
          "name": "_proposalDesc",
          "type": "string"
        },
        {
          "internalType": "uint256",
          "name": "amount",
          "type": "uint256"
        }
      ],
      "name": "makeProposal",
      "outputs": [
        {
          "internalType": "bool",
          "name": "",
          "type": "bool"
        }
      ],
      "stateMutability": "payable",
      "type": "function"
    },
    {
      "inputs": [
        {
          "internalType": "address",
          "name": "",
          "type": "address"
        },
        {
          "internalType": "uint256",
          "name": "",
          "type": "uint256"
        }
      ],
      "name": "myProposals",
      "outputs": [
        {
          "internalType": "uint256",
          "name": "proposalID",
          "type": "uint256"
        },
        {
          "internalType": "string",
          "name": "proposalName",
          "type": "string"
        },
        {
          "internalType": "string",
          "name": "proposalDesc",
          "type": "string"
        },
        {
          "internalType": "address",
          "name": "proposer",
          "type": "address"
        },
        {
          "internalType": "uint256",
          "name": "proposalAmount",
          "type": "uint256"
        },
        {
          "internalType": "uint256",
          "name": "forVotes",
          "type": "uint256"
        },
        {
          "internalType": "uint256",
          "name": "againstVotes",
          "type": "uint256"
        },
        {
          "internalType": "uint256",
          "name": "voteDeadline",
          "type": "uint256"
        },
        {
          "internalType": "bool",
          "name": "isValid",
          "type": "bool"
        },
        {
          "internalType": "bool",
          "name": "isPassed",
          "type": "bool"
        },
        {
          "internalType": "bool",
          "name": "isPaid",
          "type": "bool"
        }
      ],
      "stateMutability": "view",
      "type": "function"
    },
    {
      "inputs": [
        {
          "internalType": "uint256",
          "name": "_id",
          "type": "uint256"
        }
      ],
      "name": "voteAgainst",
      "outputs": [
        {
          "internalType": "bool",
          "name": "",
          "type": "bool"
        }
      ],
      "stateMutability": "nonpayable",
      "type": "function"
    },
    {
      "inputs": [
        {
          "internalType": "uint256",
          "name": "_id",
          "type": "uint256"
        }
      ],
      "name": "voteFor",
      "outputs": [
        {
          "internalType": "bool",
          "name": "",
          "type": "bool"
        }
      ],
      "stateMutability": "nonpayable",
      "type": "function"
    },
    {
      "stateMutability": "payable",
      "type": "receive"
    }
  ],
  "bytecode": "0x60806040526000805534801561001457600080fd5b50612de9806100246000396000f3fe6080604052600436106100a05760003560e01c806386a505351161006457806386a50535146102c7578063938351b814610304578063997afb9d1461034b578063ae677d8c14610388578063c7f758a8146103c5578063cceb68f51461040257610132565b80631840f0ca146101bf57806336ffa905146101e8578063380e5e441461021357806348985deb14610243578063750e443a1461028a57610132565b366101325734600360003373ffffffffffffffffffffffffffffffffffffffff1673ffffffffffffffffffffffffffffffffffffffff16815260200190815260200160002060008282546100f49190612997565b925050819055507f3d27d812b049caf41fcc29cadcf63d52ad2b9f285ff79d360653b0a29bd8dbb4604051610128906127db565b60405180910390a1005b34600360003373ffffffffffffffffffffffffffffffffffffffff1673ffffffffffffffffffffffffffffffffffffffff16815260200190815260200160002060008282546101819190612997565b925050819055507f3d27d812b049caf41fcc29cadcf63d52ad2b9f285ff79d360653b0a29bd8dbb46040516101b5906127db565b60405180910390a1005b3480156101cb57600080fd5b506101e660048036038101906101e191906122bf565b61042d565b005b3480156101f457600080fd5b506101fd610a96565b60405161020a919061271e565b60405180910390f35b61022d60048036038101906102289190612236565b610d30565b60405161023a9190612740565b60405180910390f35b34801561024f57600080fd5b5061026a600480360381019061026591906121fa565b6111ba565b6040516102819b9a99989796959493929190612878565b60405180910390f35b34801561029657600080fd5b506102b160048036038101906102ac91906122bf565b611388565b6040516102be9190612740565b60405180910390f35b3480156102d357600080fd5b506102ee60048036038101906102e991906122bf565b61154d565b6040516102fb9190612740565b60405180910390f35b34801561031057600080fd5b5061032b600480360381019061032691906122bf565b611712565b6040516103429b9a99989796959493929190612878565b60405180910390f35b34801561035757600080fd5b50610372600480360381019061036d91906121d1565b6118d3565b60405161037f919061271e565b60405180910390f35b34801561039457600080fd5b506103af60048036038101906103aa91906121d1565b611b6f565b6040516103bc919061285d565b60405180910390f35b3480156103d157600080fd5b506103ec60048036038101906103e791906122bf565b611b87565b6040516103f9919061283b565b60405180910390f35b34801561040e57600080fd5b50610417611de7565b604051610424919061271e565b60405180910390f35b60028181548110610467577f4e487b7100000000000000000000000000000000000000000000000000000000600052603260045260246000fd5b90600052602060002090600902016004015447116104ba576040517f08c379a00000000000000000000000000000000000000000000000000000000081526004016104b19061281b565b60405180910390fd5b600281815481106104f4577f4e487b7100000000000000000000000000000000000000000000000000000000600052603260045260246000fd5b906000526020600020906009020160080160019054906101000a900460ff16610552576040517f08c379a0000000000000000000000000000000000000000000000000000000008152600401610549906127bb565b60405180910390fd5b6002818154811061058c577f4e487b7100000000000000000000000000000000000000000000000000000000600052603260045260246000fd5b906000526020600020906009020160080160029054906101000a900460ff166105ea576040517f08c379a00000000000000000000000000000000000000000000000000000000081526004016105e19061279b565b60405180910390fd5b60028181548110610624577f4e487b7100000000000000000000000000000000000000000000000000000000600052603260045260246000fd5b906000526020600020906009020160080160009054906101000a900460ff16610682576040517f08c379a00000000000000000000000000000000000000000000000000000000081526004016106799061277b565b60405180910390fd5b600281815481106106bc577f4e487b7100000000000000000000000000000000000000000000000000000000600052603260045260246000fd5b90600052602060002090600902016006015460028281548110610708577f4e487b7100000000000000000000000000000000000000000000000000000000600052603260045260246000fd5b90600052602060002090600902016005015411156109665760016002828154811061075c577f4e487b7100000000000000000000000000000000000000000000000000000000600052603260045260246000fd5b906000526020600020906009020160080160016101000a81548160ff0219169083151502179055506001600282815481106107c0577f4e487b7100000000000000000000000000000000000000000000000000000000600052603260045260246000fd5b906000526020600020906009020160080160026101000a81548160ff021916908315150217905550600060028281548110610824577f4e487b7100000000000000000000000000000000000000000000000000000000600052603260045260246000fd5b906000526020600020906009020160080160006101000a81548160ff02191690831515021790555060028181548110610886577f4e487b7100000000000000000000000000000000000000000000000000000000600052603260045260246000fd5b906000526020600020906009020160030160009054906101000a900473ffffffffffffffffffffffffffffffffffffffff1673ffffffffffffffffffffffffffffffffffffffff166108fc6064605f6002858154811061090f577f4e487b7100000000000000000000000000000000000000000000000000000000600052603260045260246000fd5b90600052602060002090600902016004015461092b9190612a1e565b61093591906129ed565b9081150290604051600060405180830381858888f19350505050158015610960573d6000803e3d6000fd5b50610a93565b6000600282815481106109a2577f4e487b7100000000000000000000000000000000000000000000000000000000600052603260045260246000fd5b906000526020600020906009020160080160016101000a81548160ff021916908315150217905550600160028281548110610a06577f4e487b7100000000000000000000000000000000000000000000000000000000600052603260045260246000fd5b906000526020600020906009020160080160026101000a81548160ff021916908315150217905550600060028281548110610a6a577f4e487b7100000000000000000000000000000000000000000000000000000000600052603260045260246000fd5b906000526020600020906009020160080160006101000a81548160ff0219169083151502179055505b50565b6060600160003273ffffffffffffffffffffffffffffffffffffffff1673ffffffffffffffffffffffffffffffffffffffff168152602001908152602001600020805480602002602001604051908101604052809291908181526020016000905b82821015610d2757838290600052602060002090600902016040518061016001604052908160008201548152602001600182018054610b3590612b27565b80601f0160208091040260200160405190810160405280929190818152602001828054610b6190612b27565b8015610bae5780601f10610b8357610100808354040283529160200191610bae565b820191906000526020600020905b815481529060010190602001808311610b9157829003601f168201915b50505050508152602001600282018054610bc790612b27565b80601f0160208091040260200160405190810160405280929190818152602001828054610bf390612b27565b8015610c405780601f10610c1557610100808354040283529160200191610c40565b820191906000526020600020905b815481529060010190602001808311610c2357829003601f168201915b505050505081526020016003820160009054906101000a900473ffffffffffffffffffffffffffffffffffffffff1673ffffffffffffffffffffffffffffffffffffffff1673ffffffffffffffffffffffffffffffffffffffff168152602001600482015481526020016005820154815260200160068201548152602001600782015481526020016008820160009054906101000a900460ff161515151581526020016008820160019054906101000a900460ff161515151581526020016008820160029054906101000a900460ff16151515158152505081526020019060010190610af7565b50505050905090565b600066038d7ea4c68000341015610d7c576040517f08c379a0000000000000000000000000000000000000000000000000000000008152600401610d73906127fb565b60405180910390fd5b610d84612044565b60005481600001818152505086868080601f016020809104026020016040519081016040528093929190818152602001838380828437600081840152601f19601f82011690508083019250505050505050816020018190525084848080601f016020809104026020016040519081016040528093929190818152602001838380828437600081840152601f19601f8201169050808301925050505050505081604001819052508281608001818152505032816060019073ffffffffffffffffffffffffffffffffffffffff16908173ffffffffffffffffffffffffffffffffffffffff168152505060008160a001818152505060008160c00181815250506206978042610e919190612997565b8160e00181815250506001816101000190151590811515815250506000816101200190151590811515815250506000816101400190151590811515815250506002819080600181540180825580915050600190039060005260206000209060090201600090919091909150600082015181600001556020820151816001019080519060200190610f229291906120ba565b506040820151816002019080519060200190610f3f9291906120ba565b5060608201518160030160006101000a81548173ffffffffffffffffffffffffffffffffffffffff021916908373ffffffffffffffffffffffffffffffffffffffff1602179055506080820151816004015560a0820151816005015560c0820151816006015560e082015181600701556101008201518160080160006101000a81548160ff0219169083151502179055506101208201518160080160016101000a81548160ff0219169083151502179055506101408201518160080160026101000a81548160ff0219169083151502179055505050600160003273ffffffffffffffffffffffffffffffffffffffff1673ffffffffffffffffffffffffffffffffffffffff1681526020019081526020016000208190806001815401808255809150506001900390600052602060002090600902016000909190919091506000820151816000015560208201518160010190805190602001906110a39291906120ba565b5060408201518160020190805190602001906110c09291906120ba565b5060608201518160030160006101000a81548173ffffffffffffffffffffffffffffffffffffffff021916908373ffffffffffffffffffffffffffffffffffffffff1602179055506080820151816004015560a0820151816005015560c0820151816006015560e082015181600701556101008201518160080160006101000a81548160ff0219169083151502179055506101208201518160080160016101000a81548160ff0219169083151502179055506101408201518160080160026101000a81548160ff02191690831515021790555050506000808154809291906111a790612b59565b9190505550600191505095945050505050565b600160205281600052604060002081815481106111d657600080fd5b90600052602060002090600902016000915091505080600001549080600101805461120090612b27565b80601f016020809104026020016040519081016040528092919081815260200182805461122c90612b27565b80156112795780601f1061124e57610100808354040283529160200191611279565b820191906000526020600020905b81548152906001019060200180831161125c57829003601f168201915b50505050509080600201805461128e90612b27565b80601f01602080910402602001604051908101604052809291908181526020018280546112ba90612b27565b80156113075780601f106112dc57610100808354040283529160200191611307565b820191906000526020600020905b8154815290600101906020018083116112ea57829003601f168201915b5050505050908060030160009054906101000a900473ffffffffffffffffffffffffffffffffffffffff16908060040154908060050154908060060154908060070154908060080160009054906101000a900460ff16908060080160019054906101000a900460ff16908060080160029054906101000a900460ff1690508b565b600081426001600283815481106113c8577f4e487b7100000000000000000000000000000000000000000000000000000000600052603260045260246000fd5b9060005260206000209060090201600701546113e49190612a78565b101561145c57600060028281548110611426577f4e487b7100000000000000000000000000000000000000000000000000000000600052603260045260246000fd5b906000526020600020906009020160080160006101000a81548160ff0219169083151502179055506114578161042d565b611547565b6000600360003373ffffffffffffffffffffffffffffffffffffffff1673ffffffffffffffffffffffffffffffffffffffff1681526020019081526020016000205410156114df576040517f08c379a00000000000000000000000000000000000000000000000000000000081526004016114d69061275b565b60405180910390fd5b60016002848154811061151b577f4e487b7100000000000000000000000000000000000000000000000000000000600052603260045260246000fd5b9060005260206000209060090201600601600082825461153b9190612997565b92505081905550600191505b50919050565b6000814260016002838154811061158d577f4e487b7100000000000000000000000000000000000000000000000000000000600052603260045260246000fd5b9060005260206000209060090201600701546115a99190612a78565b1015611621576000600282815481106115eb577f4e487b7100000000000000000000000000000000000000000000000000000000600052603260045260246000fd5b906000526020600020906009020160080160006101000a81548160ff02191690831515021790555061161c8161042d565b61170c565b6000600360003373ffffffffffffffffffffffffffffffffffffffff1673ffffffffffffffffffffffffffffffffffffffff1681526020019081526020016000205410156116a4576040517f08c379a000000000000000000000000000000000000000000000000000000000815260040161169b9061275b565b60405180910390fd5b6001600284815481106116e0577f4e487b7100000000000000000000000000000000000000000000000000000000600052603260045260246000fd5b906000526020600020906009020160050160008282546117009190612997565b92505081905550600191505b50919050565b6002818154811061172257600080fd5b906000526020600020906009020160009150905080600001549080600101805461174b90612b27565b80601f016020809104026020016040519081016040528092919081815260200182805461177790612b27565b80156117c45780601f10611799576101008083540402835291602001916117c4565b820191906000526020600020905b8154815290600101906020018083116117a757829003601f168201915b5050505050908060020180546117d990612b27565b80601f016020809104026020016040519081016040528092919081815260200182805461180590612b27565b80156118525780601f1061182757610100808354040283529160200191611852565b820191906000526020600020905b81548152906001019060200180831161183557829003601f168201915b5050505050908060030160009054906101000a900473ffffffffffffffffffffffffffffffffffffffff16908060040154908060050154908060060154908060070154908060080160009054906101000a900460ff16908060080160019054906101000a900460ff16908060080160029054906101000a900460ff1690508b565b6060600160008373ffffffffffffffffffffffffffffffffffffffff1673ffffffffffffffffffffffffffffffffffffffff168152602001908152602001600020805480602002602001604051908101604052809291908181526020016000905b82821015611b645783829060005260206000209060090201604051806101600160405290816000820154815260200160018201805461197290612b27565b80601f016020809104026020016040519081016040528092919081815260200182805461199e90612b27565b80156119eb5780601f106119c0576101008083540402835291602001916119eb565b820191906000526020600020905b8154815290600101906020018083116119ce57829003601f168201915b50505050508152602001600282018054611a0490612b27565b80601f0160208091040260200160405190810160405280929190818152602001828054611a3090612b27565b8015611a7d5780601f10611a5257610100808354040283529160200191611a7d565b820191906000526020600020905b815481529060010190602001808311611a6057829003601f168201915b505050505081526020016003820160009054906101000a900473ffffffffffffffffffffffffffffffffffffffff1673ffffffffffffffffffffffffffffffffffffffff1673ffffffffffffffffffffffffffffffffffffffff168152602001600482015481526020016005820154815260200160068201548152602001600782015481526020016008820160009054906101000a900460ff161515151581526020016008820160019054906101000a900460ff161515151581526020016008820160029054906101000a900460ff16151515158152505081526020019060010190611934565b505050509050919050565b60036020528060005260406000206000915090505481565b611b8f612044565b60028281548110611bc9577f4e487b7100000000000000000000000000000000000000000000000000000000600052603260045260246000fd5b90600052602060002090600902016040518061016001604052908160008201548152602001600182018054611bfd90612b27565b80601f0160208091040260200160405190810160405280929190818152602001828054611c2990612b27565b8015611c765780601f10611c4b57610100808354040283529160200191611c76565b820191906000526020600020905b815481529060010190602001808311611c5957829003601f168201915b50505050508152602001600282018054611c8f90612b27565b80601f0160208091040260200160405190810160405280929190818152602001828054611cbb90612b27565b8015611d085780601f10611cdd57610100808354040283529160200191611d08565b820191906000526020600020905b815481529060010190602001808311611ceb57829003601f168201915b505050505081526020016003820160009054906101000a900473ffffffffffffffffffffffffffffffffffffffff1673ffffffffffffffffffffffffffffffffffffffff1673ffffffffffffffffffffffffffffffffffffffff168152602001600482015481526020016005820154815260200160068201548152602001600782015481526020016008820160009054906101000a900460ff161515151581526020016008820160019054906101000a900460ff161515151581526020016008820160029054906101000a900460ff1615151515815250509050919050565b60606002805480602002602001604051908101604052809291908181526020016000905b8282101561203b57838290600052602060002090600902016040518061016001604052908160008201548152602001600182018054611e4990612b27565b80601f0160208091040260200160405190810160405280929190818152602001828054611e7590612b27565b8015611ec25780601f10611e9757610100808354040283529160200191611ec2565b820191906000526020600020905b815481529060010190602001808311611ea557829003601f168201915b50505050508152602001600282018054611edb90612b27565b80601f0160208091040260200160405190810160405280929190818152602001828054611f0790612b27565b8015611f545780601f10611f2957610100808354040283529160200191611f54565b820191906000526020600020905b815481529060010190602001808311611f3757829003601f168201915b505050505081526020016003820160009054906101000a900473ffffffffffffffffffffffffffffffffffffffff1673ffffffffffffffffffffffffffffffffffffffff1673ffffffffffffffffffffffffffffffffffffffff168152602001600482015481526020016005820154815260200160068201548152602001600782015481526020016008820160009054906101000a900460ff161515151581526020016008820160019054906101000a900460ff161515151581526020016008820160029054906101000a900460ff16151515158152505081526020019060010190611e0b565b50505050905090565b604051806101600160405280600081526020016060815260200160608152602001600073ffffffffffffffffffffffffffffffffffffffff168152602001600081526020016000815260200160008152602001600081526020016000151581526020016000151581526020016000151581525090565b8280546120c690612b27565b90600052602060002090601f0160209004810192826120e8576000855561212f565b82601f1061210157805160ff191683800117855561212f565b8280016001018555821561212f579182015b8281111561212e578251825591602001919060010190612113565b5b50905061213c9190612140565b5090565b5b80821115612159576000816000905550600101612141565b5090565b60008135905061216c81612d85565b92915050565b60008083601f84011261218457600080fd5b8235905067ffffffffffffffff81111561219d57600080fd5b6020830191508360018202830111156121b557600080fd5b9250929050565b6000813590506121cb81612d9c565b92915050565b6000602082840312156121e357600080fd5b60006121f18482850161215d565b91505092915050565b6000806040838503121561220d57600080fd5b600061221b8582860161215d565b925050602061222c858286016121bc565b9150509250929050565b60008060008060006060868803121561224e57600080fd5b600086013567ffffffffffffffff81111561226857600080fd5b61227488828901612172565b9550955050602086013567ffffffffffffffff81111561229357600080fd5b61229f88828901612172565b935093505060406122b2888289016121bc565b9150509295509295909350565b6000602082840312156122d157600080fd5b60006122df848285016121bc565b91505092915050565b60006122f48383612514565b905092915050565b61230581612aac565b82525050565b61231481612aac565b82525050565b600061232582612941565b61232f8185612964565b93508360208202850161234185612931565b8060005b8581101561237d578484038952815161235e85826122e8565b945061236983612957565b925060208a01995050600181019050612345565b50829750879550505050505092915050565b61239881612abe565b82525050565b6123a781612abe565b82525050565b60006123b88261294c565b6123c28185612975565b93506123d2818560208601612af4565b6123db81612c2f565b840191505092915050565b60006123f18261294c565b6123fb8185612986565b935061240b818560208601612af4565b61241481612c2f565b840191505092915050565b600061242c601c83612986565b915061243782612c40565b602082019050919050565b600061244f600f83612986565b915061245a82612c69565b602082019050919050565b6000612472601d83612986565b915061247d82612c92565b602082019050919050565b6000612495600e83612986565b91506124a082612cbb565b602082019050919050565b60006124b8601783612986565b91506124c382612ce4565b602082019050919050565b60006124db602183612986565b91506124e682612d0d565b604082019050919050565b60006124fe601c83612986565b915061250982612d5c565b602082019050919050565b60006101608301600083015161252d6000860182612700565b506020830151848203602086015261254582826123ad565b9150506040830151848203604086015261255f82826123ad565b915050606083015161257460608601826122fc565b5060808301516125876080860182612700565b5060a083015161259a60a0860182612700565b5060c08301516125ad60c0860182612700565b5060e08301516125c060e0860182612700565b506101008301516125d561010086018261238f565b506101208301516125ea61012086018261238f565b506101408301516125ff61014086018261238f565b508091505092915050565b6000610160830160008301516126236000860182612700565b506020830151848203602086015261263b82826123ad565b9150506040830151848203604086015261265582826123ad565b915050606083015161266a60608601826122fc565b50608083015161267d6080860182612700565b5060a083015161269060a0860182612700565b5060c08301516126a360c0860182612700565b5060e08301516126b660e0860182612700565b506101008301516126cb61010086018261238f565b506101208301516126e061012086018261238f565b506101408301516126f561014086018261238f565b508091505092915050565b61270981612aea565b82525050565b61271881612aea565b82525050565b60006020820190508181036000830152612738818461231a565b905092915050565b6000602082019050612755600083018461239e565b92915050565b600060208201905081810360008301526127748161241f565b9050919050565b6000602082019050818103600083015261279481612442565b9050919050565b600060208201905081810360008301526127b481612465565b9050919050565b600060208201905081810360008301526127d481612488565b9050919050565b600060208201905081810360008301526127f4816124ab565b9050919050565b60006020820190508181036000830152612814816124ce565b9050919050565b60006020820190508181036000830152612834816124f1565b9050919050565b60006020820190508181036000830152612855818461260a565b905092915050565b6000602082019050612872600083018461270f565b92915050565b60006101608201905061288e600083018e61270f565b81810360208301526128a0818d6123e6565b905081810360408301526128b4818c6123e6565b90506128c3606083018b61230b565b6128d0608083018a61270f565b6128dd60a083018961270f565b6128ea60c083018861270f565b6128f760e083018761270f565b61290561010083018661239e565b61291361012083018561239e565b61292161014083018461239e565b9c9b505050505050505050505050565b6000819050602082019050919050565b600081519050919050565b600081519050919050565b6000602082019050919050565b600082825260208201905092915050565b600082825260208201905092915050565b600082825260208201905092915050565b60006129a282612aea565b91506129ad83612aea565b9250827fffffffffffffffffffffffffffffffffffffffffffffffffffffffffffffffff038211156129e2576129e1612ba2565b5b828201905092915050565b60006129f882612aea565b9150612a0383612aea565b925082612a1357612a12612bd1565b5b828204905092915050565b6000612a2982612aea565b9150612a3483612aea565b9250817fffffffffffffffffffffffffffffffffffffffffffffffffffffffffffffffff0483118215151615612a6d57612a6c612ba2565b5b828202905092915050565b6000612a8382612aea565b9150612a8e83612aea565b925082821015612aa157612aa0612ba2565b5b828203905092915050565b6000612ab782612aca565b9050919050565b60008115159050919050565b600073ffffffffffffffffffffffffffffffffffffffff82169050919050565b6000819050919050565b60005b83811015612b12578082015181840152602081019050612af7565b83811115612b21576000848401525b50505050565b60006002820490506001821680612b3f57607f821691505b60208210811415612b5357612b52612c00565b5b50919050565b6000612b6482612aea565b91507fffffffffffffffffffffffffffffffffffffffffffffffffffffffffffffffff821415612b9757612b96612ba2565b5b600182019050919050565b7f4e487b7100000000000000000000000000000000000000000000000000000000600052601160045260246000fd5b7f4e487b7100000000000000000000000000000000000000000000000000000000600052601260045260246000fd5b7f4e487b7100000000000000000000000000000000000000000000000000000000600052602260045260246000fd5b6000601f19601f8301169050919050565b7f506c6561736520646f6e617465206265666f726520766f74696e672100000000600082015250565b7f4e6f742045787069726564205965740000000000000000000000000000000000600082015250565b7f416c72656164792050616964206f722050726f706f73616c206c6f7374000000600082015250565b7f416c726561647920506173736564000000000000000000000000000000000000600082015250565b7f5468616e6b20796f7520666f7220646f6e6174696e6721000000000000000000600082015250565b7f4d696e696d756d20636f6e747269627574696f6e20697320302e30303120455460008201527f4800000000000000000000000000000000000000000000000000000000000000602082015250565b7f4e6f7420656e6f7567682062616c616e636520746f207061796f757400000000600082015250565b612d8e81612aac565b8114612d9957600080fd5b50565b612da581612aea565b8114612db057600080fd5b5056fea2646970667358221220a45d155e9972d5dc8a6613afce031de1298566dcc2b6d849d79bfbb4d578fd5364736f6c63430008040033",
  "linkReferences": {},
  "deployedLinkReferences": {}
}