{
  "_format": "hh-sol-artifact-1",
  "contractName": "DAO",
  "sourceName": "blockchain/contracts/Contract.sol",
  "abi": [
    {
      "inputs": [],
      "stateMutability": "nonpayable",
      "type": "constructor"
    },
    {
      "anonymous": false,
      "inputs": [
        {
          "indexed": false,
          "internalType": "string",
          "name": "message",
          "type": "string"
        }
      ],
      "name": "ThanksMessage",
      "type": "event"
    },
    {
      "stateMutability": "payable",
      "type": "fallback"
    },
    {
      "inputs": [
        {
          "internalType": "address",
          "name": "_member",
          "type": "address"
        }
      ],
      "name": "addGovOfficial",
      "outputs": [],
      "stateMutability": "nonpayable",
      "type": "function"
    },
    {
      "inputs": [
        {
          "internalType": "uint256",
          "name": "",
          "type": "uint256"
        }
      ],
      "name": "allProposals",
      "outputs": [
        {
          "internalType": "uint256",
          "name": "proposalID",
          "type": "uint256"
        },
        {
          "internalType": "string",
          "name": "proposalName",
          "type": "string"
        },
        {
          "internalType": "string",
          "name": "proposalDesc",
          "type": "string"
        },
        {
          "internalType": "address",
          "name": "proposer",
          "type": "address"
        },
        {
          "internalType": "uint256",
          "name": "proposalAmount",
          "type": "uint256"
        },
        {
          "internalType": "uint256",
          "name": "forVotes",
          "type": "uint256"
        },
        {
          "internalType": "uint256",
          "name": "forGovVotes",
          "type": "uint256"
        },
        {
          "internalType": "uint256",
          "name": "againstVotes",
          "type": "uint256"
        },
        {
          "internalType": "uint256",
          "name": "againstGovVotes",
          "type": "uint256"
        },
        {
          "internalType": "uint256",
          "name": "voteDeadline",
          "type": "uint256"
        },
        {
          "internalType": "bool",
          "name": "isValid",
          "type": "bool"
        },
        {
          "internalType": "bool",
          "name": "isPassed",
          "type": "bool"
        }
      ],
      "stateMutability": "view",
      "type": "function"
    },
    {
      "inputs": [
        {
          "internalType": "uint256",
          "name": "_id",
          "type": "uint256"
        }
      ],
      "name": "countVotes",
      "outputs": [],
      "stateMutability": "nonpayable",
      "type": "function"
    },
    {
      "inputs": [],
      "name": "donate",
      "outputs": [],
      "stateMutability": "payable",
      "type": "function"
    },
    {
      "inputs": [
        {
          "internalType": "address",
          "name": "",
          "type": "address"
        }
      ],
      "name": "donationAmount",
      "outputs": [
        {
          "internalType": "uint256",
          "name": "",
          "type": "uint256"
        }
      ],
      "stateMutability": "view",
      "type": "function"
    },
    {
      "inputs": [],
      "name": "getAllProposals",
      "outputs": [
        {
          "components": [
            {
              "internalType": "uint256",
              "name": "proposalID",
              "type": "uint256"
            },
            {
              "internalType": "string",
              "name": "proposalName",
              "type": "string"
            },
            {
              "internalType": "string",
              "name": "proposalDesc",
              "type": "string"
            },
            {
              "internalType": "address",
              "name": "proposer",
              "type": "address"
            },
            {
              "internalType": "uint256",
              "name": "proposalAmount",
              "type": "uint256"
            },
            {
              "internalType": "uint256",
              "name": "forVotes",
              "type": "uint256"
            },
            {
              "internalType": "uint256",
              "name": "forGovVotes",
              "type": "uint256"
            },
            {
              "internalType": "uint256",
              "name": "againstVotes",
              "type": "uint256"
            },
            {
              "internalType": "uint256",
              "name": "againstGovVotes",
              "type": "uint256"
            },
            {
              "internalType": "uint256",
              "name": "voteDeadline",
              "type": "uint256"
            },
            {
              "internalType": "bool",
              "name": "isValid",
              "type": "bool"
            },
            {
              "internalType": "bool",
              "name": "isPassed",
              "type": "bool"
            }
          ],
          "internalType": "struct DAO.Proposal[]",
          "name": "",
          "type": "tuple[]"
        }
      ],
      "stateMutability": "view",
      "type": "function"
    },
    {
      "inputs": [],
      "name": "getBalance",
      "outputs": [
        {
          "internalType": "uint256",
          "name": "",
          "type": "uint256"
        }
      ],
      "stateMutability": "view",
      "type": "function"
    },
    {
      "inputs": [],
      "name": "getMyProposals",
      "outputs": [
        {
          "components": [
            {
              "internalType": "uint256",
              "name": "proposalID",
              "type": "uint256"
            },
            {
              "internalType": "string",
              "name": "proposalName",
              "type": "string"
            },
            {
              "internalType": "string",
              "name": "proposalDesc",
              "type": "string"
            },
            {
              "internalType": "address",
              "name": "proposer",
              "type": "address"
            },
            {
              "internalType": "uint256",
              "name": "proposalAmount",
              "type": "uint256"
            },
            {
              "internalType": "uint256",
              "name": "forVotes",
              "type": "uint256"
            },
            {
              "internalType": "uint256",
              "name": "forGovVotes",
              "type": "uint256"
            },
            {
              "internalType": "uint256",
              "name": "againstVotes",
              "type": "uint256"
            },
            {
              "internalType": "uint256",
              "name": "againstGovVotes",
              "type": "uint256"
            },
            {
              "internalType": "uint256",
              "name": "voteDeadline",
              "type": "uint256"
            },
            {
              "internalType": "bool",
              "name": "isValid",
              "type": "bool"
            },
            {
              "internalType": "bool",
              "name": "isPassed",
              "type": "bool"
            }
          ],
          "internalType": "struct DAO.Proposal[]",
          "name": "",
          "type": "tuple[]"
        }
      ],
      "stateMutability": "view",
      "type": "function"
    },
    {
      "inputs": [
        {
          "internalType": "uint256",
          "name": "_id",
          "type": "uint256"
        }
      ],
      "name": "getProposal",
      "outputs": [
        {
          "components": [
            {
              "internalType": "uint256",
              "name": "proposalID",
              "type": "uint256"
            },
            {
              "internalType": "string",
              "name": "proposalName",
              "type": "string"
            },
            {
              "internalType": "string",
              "name": "proposalDesc",
              "type": "string"
            },
            {
              "internalType": "address",
              "name": "proposer",
              "type": "address"
            },
            {
              "internalType": "uint256",
              "name": "proposalAmount",
              "type": "uint256"
            },
            {
              "internalType": "uint256",
              "name": "forVotes",
              "type": "uint256"
            },
            {
              "internalType": "uint256",
              "name": "forGovVotes",
              "type": "uint256"
            },
            {
              "internalType": "uint256",
              "name": "againstVotes",
              "type": "uint256"
            },
            {
              "internalType": "uint256",
              "name": "againstGovVotes",
              "type": "uint256"
            },
            {
              "internalType": "uint256",
              "name": "voteDeadline",
              "type": "uint256"
            },
            {
              "internalType": "bool",
              "name": "isValid",
              "type": "bool"
            },
            {
              "internalType": "bool",
              "name": "isPassed",
              "type": "bool"
            }
          ],
          "internalType": "struct DAO.Proposal",
          "name": "",
          "type": "tuple"
        }
      ],
      "stateMutability": "view",
      "type": "function"
    },
    {
      "inputs": [
        {
          "internalType": "address",
          "name": "_sender",
          "type": "address"
        }
      ],
      "name": "getProposalByAddress",
      "outputs": [
        {
          "components": [
            {
              "internalType": "uint256",
              "name": "proposalID",
              "type": "uint256"
            },
            {
              "internalType": "string",
              "name": "proposalName",
              "type": "string"
            },
            {
              "internalType": "string",
              "name": "proposalDesc",
              "type": "string"
            },
            {
              "internalType": "address",
              "name": "proposer",
              "type": "address"
            },
            {
              "internalType": "uint256",
              "name": "proposalAmount",
              "type": "uint256"
            },
            {
              "internalType": "uint256",
              "name": "forVotes",
              "type": "uint256"
            },
            {
              "internalType": "uint256",
              "name": "forGovVotes",
              "type": "uint256"
            },
            {
              "internalType": "uint256",
              "name": "againstVotes",
              "type": "uint256"
            },
            {
              "internalType": "uint256",
              "name": "againstGovVotes",
              "type": "uint256"
            },
            {
              "internalType": "uint256",
              "name": "voteDeadline",
              "type": "uint256"
            },
            {
              "internalType": "bool",
              "name": "isValid",
              "type": "bool"
            },
            {
              "internalType": "bool",
              "name": "isPassed",
              "type": "bool"
            }
          ],
          "internalType": "struct DAO.Proposal[]",
          "name": "",
          "type": "tuple[]"
        }
      ],
      "stateMutability": "view",
      "type": "function"
    },
    {
      "inputs": [
        {
          "internalType": "address",
          "name": "",
          "type": "address"
        }
      ],
      "name": "isGovOfficial",
      "outputs": [
        {
          "internalType": "bool",
          "name": "",
          "type": "bool"
        }
      ],
      "stateMutability": "view",
      "type": "function"
    },
    {
      "inputs": [
        {
          "internalType": "string",
          "name": "_proposalName",
          "type": "string"
        },
        {
          "internalType": "string",
          "name": "_proposalDesc",
          "type": "string"
        },
        {
          "internalType": "uint256",
          "name": "amount",
          "type": "uint256"
        }
      ],
      "name": "makeProposal",
      "outputs": [
        {
          "internalType": "bool",
          "name": "",
          "type": "bool"
        }
      ],
      "stateMutability": "payable",
      "type": "function"
    },
    {
      "inputs": [
        {
          "internalType": "address",
          "name": "",
          "type": "address"
        },
        {
          "internalType": "uint256",
          "name": "",
          "type": "uint256"
        }
      ],
      "name": "myProposals",
      "outputs": [
        {
          "internalType": "uint256",
          "name": "proposalID",
          "type": "uint256"
        },
        {
          "internalType": "string",
          "name": "proposalName",
          "type": "string"
        },
        {
          "internalType": "string",
          "name": "proposalDesc",
          "type": "string"
        },
        {
          "internalType": "address",
          "name": "proposer",
          "type": "address"
        },
        {
          "internalType": "uint256",
          "name": "proposalAmount",
          "type": "uint256"
        },
        {
          "internalType": "uint256",
          "name": "forVotes",
          "type": "uint256"
        },
        {
          "internalType": "uint256",
          "name": "forGovVotes",
          "type": "uint256"
        },
        {
          "internalType": "uint256",
          "name": "againstVotes",
          "type": "uint256"
        },
        {
          "internalType": "uint256",
          "name": "againstGovVotes",
          "type": "uint256"
        },
        {
          "internalType": "uint256",
          "name": "voteDeadline",
          "type": "uint256"
        },
        {
          "internalType": "bool",
          "name": "isValid",
          "type": "bool"
        },
        {
          "internalType": "bool",
          "name": "isPassed",
          "type": "bool"
        }
      ],
      "stateMutability": "view",
      "type": "function"
    },
    {
      "inputs": [
        {
          "internalType": "uint256",
          "name": "_id",
          "type": "uint256"
        }
      ],
      "name": "voteAgainst",
      "outputs": [
        {
          "internalType": "bool",
          "name": "value",
          "type": "bool"
        }
      ],
      "stateMutability": "payable",
      "type": "function"
    },
    {
      "inputs": [
        {
          "internalType": "uint256",
          "name": "_id",
          "type": "uint256"
        }
      ],
      "name": "voteFor",
      "outputs": [
        {
          "internalType": "bool",
          "name": "value",
          "type": "bool"
        }
      ],
      "stateMutability": "payable",
      "type": "function"
    },
    {
      "inputs": [],
      "name": "wipeBalance",
      "outputs": [],
      "stateMutability": "nonpayable",
      "type": "function"
    },
    {
      "stateMutability": "payable",
      "type": "receive"
    }
  ],
  "bytecode": "0x6080604052600060015534801561001557600080fd5b506001600460003373ffffffffffffffffffffffffffffffffffffffff1673ffffffffffffffffffffffffffffffffffffffff16815260200190815260200160002060006101000a81548160ff02191690831515021790555061336a8061007d6000396000f3fe6080604052600436106100f75760003560e01c806386a505351161008a578063ae677d8c11610059578063ae677d8c1461046f578063c7f758a8146104ac578063cceb68f5146104e9578063ed88c68e1461051457610189565b806386a505351461037d578063938351b8146103ad578063997afb9d146103f5578063a2e7ba9e1461043257610189565b8063380e5e44116100c6578063380e5e44146102be57806348985deb146102ee57806371e8ff0114610336578063750e443a1461034d57610189565b8063089433ea1461021657806312065fe01461023f5780631840f0ca1461026a57806336ffa9051461029357610189565b366101895734600360003373ffffffffffffffffffffffffffffffffffffffff1673ffffffffffffffffffffffffffffffffffffffff168152602001908152602001600020600082825461014b9190612ed7565b925050819055507f3d27d812b049caf41fcc29cadcf63d52ad2b9f285ff79d360653b0a29bd8dbb460405161017f90612cec565b60405180910390a1005b34600360003373ffffffffffffffffffffffffffffffffffffffff1673ffffffffffffffffffffffffffffffffffffffff16815260200190815260200160002060008282546101d89190612ed7565b925050819055507f3d27d812b049caf41fcc29cadcf63d52ad2b9f285ff79d360653b0a29bd8dbb460405161020c90612cec565b60405180910390a1005b34801561022257600080fd5b5061023d6004803603810190610238919061271b565b61051e565b005b34801561024b57600080fd5b50610254610605565b6040516102619190612d8e565b60405180910390f35b34801561027657600080fd5b50610291600480360381019061028c9190612809565b61060d565b005b34801561029f57600080fd5b506102a8610d4a565b6040516102b59190612c6f565b60405180910390f35b6102d860048036038101906102d39190612780565b610fdd565b6040516102e59190612c91565b60405180910390f35b3480156102fa57600080fd5b5061031560048036038101906103109190612744565b611496565b60405161032d9c9b9a99989796959493929190612da9565b60405180910390f35b34801561034257600080fd5b5061034b61165d565b005b61036760048036038101906103629190612809565b6116a6565b6040516103749190612c91565b60405180910390f35b61039760048036038101906103929190612809565b611936565b6040516103a49190612c91565b60405180910390f35b3480156103b957600080fd5b506103d460048036038101906103cf9190612809565b611bc6565b6040516103ec9c9b9a99989796959493929190612da9565b60405180910390f35b34801561040157600080fd5b5061041c6004803603810190610417919061271b565b611d80565b6040516104299190612c6f565b60405180910390f35b34801561043e57600080fd5b506104596004803603810190610454919061271b565b612015565b6040516104669190612c91565b60405180910390f35b34801561047b57600080fd5b506104966004803603810190610491919061271b565b612035565b6040516104a39190612d8e565b60405180910390f35b3480156104b857600080fd5b506104d360048036038101906104ce9190612809565b61204d565b6040516104e09190612d6c565b60405180910390f35b3480156104f557600080fd5b506104fe6122a6565b60405161050b9190612c6f565b60405180910390f35b61051c6124fc565b005b600460003373ffffffffffffffffffffffffffffffffffffffff1673ffffffffffffffffffffffffffffffffffffffff16815260200190815260200160002060009054906101000a900460ff166105aa576040517f08c379a00000000000000000000000000000000000000000000000000000000081526004016105a190612d2c565b60405180910390fd5b6001600460008373ffffffffffffffffffffffffffffffffffffffff1673ffffffffffffffffffffffffffffffffffffffff16815260200190815260200160002060006101000a81548160ff02191690831515021790555050565b600047905090565b6000806000838154811061064a577f4e487b7100000000000000000000000000000000000000000000000000000000600052603260045260246000fd5b90600052602060002090600b020160040154471161069d576040517f08c379a000000000000000000000000000000000000000000000000000000000815260040161069490612d4c565b60405180910390fd5b600083815481106106d7577f4e487b7100000000000000000000000000000000000000000000000000000000600052603260045260246000fd5b90600052602060002090600b0201600a0160019054906101000a900460ff1615610736576040517f08c379a000000000000000000000000000000000000000000000000000000000815260040161072d90612ccc565b60405180910390fd5b60008381548110610770577f4e487b7100000000000000000000000000000000000000000000000000000000600052603260045260246000fd5b90600052602060002090600b0201600a0160009054906101000a900460ff16156107cf576040517f08c379a00000000000000000000000000000000000000000000000000000000081526004016107c690612cac565b60405180910390fd5b60008381548110610809577f4e487b7100000000000000000000000000000000000000000000000000000000600052603260045260246000fd5b90600052602060002090600b02016007015460008481548110610855577f4e487b7100000000000000000000000000000000000000000000000000000000600052603260045260246000fd5b90600052602060002090600b02016005015411156108815760078261087a9190612f2d565b915061092f565b600083815481106108bb577f4e487b7100000000000000000000000000000000000000000000000000000000600052603260045260246000fd5b90600052602060002090600b02016007015460008481548110610907577f4e487b7100000000000000000000000000000000000000000000000000000000600052603260045260246000fd5b90600052602060002090600b0201600501541161092e5760078161092b9190612f2d565b90505b5b60008381548110610969577f4e487b7100000000000000000000000000000000000000000000000000000000600052603260045260246000fd5b90600052602060002090600b020160080154600084815481106109b5577f4e487b7100000000000000000000000000000000000000000000000000000000600052603260045260246000fd5b90600052602060002090600b02016006015411156109e1576003826109da9190612f2d565b9150610a8f565b60008381548110610a1b577f4e487b7100000000000000000000000000000000000000000000000000000000600052603260045260246000fd5b90600052602060002090600b02016008015460008481548110610a67577f4e487b7100000000000000000000000000000000000000000000000000000000600052603260045260246000fd5b90600052602060002090600b02016006015411610a8e57600381610a8b9190612f2d565b90505b5b8060ff168260ff161115610c7e57600160008481548110610ad9577f4e487b7100000000000000000000000000000000000000000000000000000000600052603260045260246000fd5b90600052602060002090600b0201600a0160016101000a81548160ff0219169083151502179055506000808481548110610b3c577f4e487b7100000000000000000000000000000000000000000000000000000000600052603260045260246000fd5b90600052602060002090600b0201600a0160006101000a81548160ff02191690831515021790555060008381548110610b9e577f4e487b7100000000000000000000000000000000000000000000000000000000600052603260045260246000fd5b90600052602060002090600b020160030160009054906101000a900473ffffffffffffffffffffffffffffffffffffffff1673ffffffffffffffffffffffffffffffffffffffff166108fc6064605f60008781548110610c27577f4e487b7100000000000000000000000000000000000000000000000000000000600052603260045260246000fd5b90600052602060002090600b020160040154610c439190612f95565b610c4d9190612f64565b9081150290604051600060405180830381858888f19350505050158015610c78573d6000803e3d6000fd5b50610d45565b6000808481548110610cb9577f4e487b7100000000000000000000000000000000000000000000000000000000600052603260045260246000fd5b90600052602060002090600b0201600a0160016101000a81548160ff0219169083151502179055506000808481548110610d1c577f4e487b7100000000000000000000000000000000000000000000000000000000600052603260045260246000fd5b90600052602060002090600b0201600a0160006101000a81548160ff0219169083151502179055505b505050565b6060600260003273ffffffffffffffffffffffffffffffffffffffff1673ffffffffffffffffffffffffffffffffffffffff168152602001908152602001600020805480602002602001604051908101604052809291908181526020016000905b82821015610fd457838290600052602060002090600b02016040518061018001604052908160008201548152602001600182018054610de9906130ab565b80601f0160208091040260200160405190810160405280929190818152602001828054610e15906130ab565b8015610e625780601f10610e3757610100808354040283529160200191610e62565b820191906000526020600020905b815481529060010190602001808311610e4557829003601f168201915b50505050508152602001600282018054610e7b906130ab565b80601f0160208091040260200160405190810160405280929190818152602001828054610ea7906130ab565b8015610ef45780601f10610ec957610100808354040283529160200191610ef4565b820191906000526020600020905b815481529060010190602001808311610ed757829003601f168201915b505050505081526020016003820160009054906101000a900473ffffffffffffffffffffffffffffffffffffffff1673ffffffffffffffffffffffffffffffffffffffff1673ffffffffffffffffffffffffffffffffffffffff168152602001600482015481526020016005820154815260200160068201548152602001600782015481526020016008820154815260200160098201548152602001600a820160009054906101000a900460ff16151515158152602001600a820160019054906101000a900460ff16151515158152505081526020019060010190610dab565b50505050905090565b600067016345785d8a000034101561102a576040517f08c379a000000000000000000000000000000000000000000000000000000000815260040161102190612d0c565b60405180910390fd5b34600360003373ffffffffffffffffffffffffffffffffffffffff1673ffffffffffffffffffffffffffffffffffffffff16815260200190815260200160002060008282546110799190612ed7565b92505081905550611088612589565b60015481600001818152505086868080601f016020809104026020016040519081016040528093929190818152602001838380828437600081840152601f19601f82011690508083019250505050505050816020018190525084848080601f016020809104026020016040519081016040528093929190818152602001838380828437600081840152601f19601f8201169050808301925050505050505081604001819052508281608001818152505032816060019073ffffffffffffffffffffffffffffffffffffffff16908173ffffffffffffffffffffffffffffffffffffffff168152505060008160a001818152505060008160e001818152505060f0426111939190612ed7565b8161012001818152505060018161014001901515908115158152505060008161016001901515908115158152505060008190806001815401808255809150506001900390600052602060002090600b0201600090919091909150600082015181600001556020820151816001019080519060200190611213929190612604565b506040820151816002019080519060200190611230929190612604565b5060608201518160030160006101000a81548173ffffffffffffffffffffffffffffffffffffffff021916908373ffffffffffffffffffffffffffffffffffffffff1602179055506080820151816004015560a0820151816005015560c0820151816006015560e082015181600701556101008201518160080155610120820151816009015561014082015181600a0160006101000a81548160ff02191690831515021790555061016082015181600a0160016101000a81548160ff0219169083151502179055505050600260003273ffffffffffffffffffffffffffffffffffffffff1673ffffffffffffffffffffffffffffffffffffffff1681526020019081526020016000208190806001815401808255809150506001900390600052602060002090600b0201600090919091909150600082015181600001556020820151816001019080519060200190611389929190612604565b5060408201518160020190805190602001906113a6929190612604565b5060608201518160030160006101000a81548173ffffffffffffffffffffffffffffffffffffffff021916908373ffffffffffffffffffffffffffffffffffffffff1602179055506080820151816004015560a0820151816005015560c0820151816006015560e082015181600701556101008201518160080155610120820151816009015561014082015181600a0160006101000a81548160ff02191690831515021790555061016082015181600a0160016101000a81548160ff021916908315150217905550505060016000815480929190611483906130dd565b9190505550600191505095945050505050565b600260205281600052604060002081815481106114b257600080fd5b90600052602060002090600b0201600091509150508060000154908060010180546114dc906130ab565b80601f0160208091040260200160405190810160405280929190818152602001828054611508906130ab565b80156115555780601f1061152a57610100808354040283529160200191611555565b820191906000526020600020905b81548152906001019060200180831161153857829003601f168201915b50505050509080600201805461156a906130ab565b80601f0160208091040260200160405190810160405280929190818152602001828054611596906130ab565b80156115e35780601f106115b8576101008083540402835291602001916115e3565b820191906000526020600020905b8154815290600101906020018083116115c657829003601f168201915b5050505050908060030160009054906101000a900473ffffffffffffffffffffffffffffffffffffffff169080600401549080600501549080600601549080600701549080600801549080600901549080600a0160009054906101000a900460ff169080600a0160019054906101000a900460ff1690508c565b3373ffffffffffffffffffffffffffffffffffffffff166108fc479081150290604051600060405180830381858888f193505050501580156116a3573d6000803e3d6000fd5b50565b600081426001600083815481106116e6577f4e487b7100000000000000000000000000000000000000000000000000000000600052603260045260246000fd5b90600052602060002090600b0201600901546117029190612fef565b1015611779576000808281548110611743577f4e487b7100000000000000000000000000000000000000000000000000000000600052603260045260246000fd5b90600052602060002090600b0201600a0160006101000a81548160ff0219169083151502179055506117748161060d565b611930565b34600360003373ffffffffffffffffffffffffffffffffffffffff1673ffffffffffffffffffffffffffffffffffffffff16815260200190815260200160002060008282546117c89190612ed7565b92505081905550600460003373ffffffffffffffffffffffffffffffffffffffff1673ffffffffffffffffffffffffffffffffffffffff16815260200190815260200160002060009054906101000a900460ff16156118895760016000848154811061185d577f4e487b7100000000000000000000000000000000000000000000000000000000600052603260045260246000fd5b90600052602060002090600b0201600801600082825461187d9190612ed7565b9250508190555061192b565b600360003373ffffffffffffffffffffffffffffffffffffffff1673ffffffffffffffffffffffffffffffffffffffff1681526020019081526020016000205460008481548110611903577f4e487b7100000000000000000000000000000000000000000000000000000000600052603260045260246000fd5b90600052602060002090600b020160070160008282546119239190612ed7565b925050819055505b600191505b50919050565b60008142600160008381548110611976577f4e487b7100000000000000000000000000000000000000000000000000000000600052603260045260246000fd5b90600052602060002090600b0201600901546119929190612fef565b1015611a095760008082815481106119d3577f4e487b7100000000000000000000000000000000000000000000000000000000600052603260045260246000fd5b90600052602060002090600b0201600a0160006101000a81548160ff021916908315150217905550611a048161060d565b611bc0565b34600360003373ffffffffffffffffffffffffffffffffffffffff1673ffffffffffffffffffffffffffffffffffffffff1681526020019081526020016000206000828254611a589190612ed7565b92505081905550600460003373ffffffffffffffffffffffffffffffffffffffff1673ffffffffffffffffffffffffffffffffffffffff16815260200190815260200160002060009054906101000a900460ff1615611b1957600160008481548110611aed577f4e487b7100000000000000000000000000000000000000000000000000000000600052603260045260246000fd5b90600052602060002090600b02016006016000828254611b0d9190612ed7565b92505081905550611bbb565b600360003373ffffffffffffffffffffffffffffffffffffffff1673ffffffffffffffffffffffffffffffffffffffff1681526020019081526020016000205460008481548110611b93577f4e487b7100000000000000000000000000000000000000000000000000000000600052603260045260246000fd5b90600052602060002090600b02016005016000828254611bb39190612ed7565b925050819055505b600191505b50919050565b60008181548110611bd657600080fd5b90600052602060002090600b0201600091509050806000015490806001018054611bff906130ab565b80601f0160208091040260200160405190810160405280929190818152602001828054611c2b906130ab565b8015611c785780601f10611c4d57610100808354040283529160200191611c78565b820191906000526020600020905b815481529060010190602001808311611c5b57829003601f168201915b505050505090806002018054611c8d906130ab565b80601f0160208091040260200160405190810160405280929190818152602001828054611cb9906130ab565b8015611d065780601f10611cdb57610100808354040283529160200191611d06565b820191906000526020600020905b815481529060010190602001808311611ce957829003601f168201915b5050505050908060030160009054906101000a900473ffffffffffffffffffffffffffffffffffffffff169080600401549080600501549080600601549080600701549080600801549080600901549080600a0160009054906101000a900460ff169080600a0160019054906101000a900460ff1690508c565b6060600260008373ffffffffffffffffffffffffffffffffffffffff1673ffffffffffffffffffffffffffffffffffffffff168152602001908152602001600020805480602002602001604051908101604052809291908181526020016000905b8282101561200a57838290600052602060002090600b02016040518061018001604052908160008201548152602001600182018054611e1f906130ab565b80601f0160208091040260200160405190810160405280929190818152602001828054611e4b906130ab565b8015611e985780601f10611e6d57610100808354040283529160200191611e98565b820191906000526020600020905b815481529060010190602001808311611e7b57829003601f168201915b50505050508152602001600282018054611eb1906130ab565b80601f0160208091040260200160405190810160405280929190818152602001828054611edd906130ab565b8015611f2a5780601f10611eff57610100808354040283529160200191611f2a565b820191906000526020600020905b815481529060010190602001808311611f0d57829003601f168201915b505050505081526020016003820160009054906101000a900473ffffffffffffffffffffffffffffffffffffffff1673ffffffffffffffffffffffffffffffffffffffff1673ffffffffffffffffffffffffffffffffffffffff168152602001600482015481526020016005820154815260200160068201548152602001600782015481526020016008820154815260200160098201548152602001600a820160009054906101000a900460ff16151515158152602001600a820160019054906101000a900460ff16151515158152505081526020019060010190611de1565b505050509050919050565b60046020528060005260406000206000915054906101000a900460ff1681565b60036020528060005260406000206000915090505481565b612055612589565b6000828154811061208f577f4e487b7100000000000000000000000000000000000000000000000000000000600052603260045260246000fd5b90600052602060002090600b020160405180610180016040529081600082015481526020016001820180546120c3906130ab565b80601f01602080910402602001604051908101604052809291908181526020018280546120ef906130ab565b801561213c5780601f106121115761010080835404028352916020019161213c565b820191906000526020600020905b81548152906001019060200180831161211f57829003601f168201915b50505050508152602001600282018054612155906130ab565b80601f0160208091040260200160405190810160405280929190818152602001828054612181906130ab565b80156121ce5780601f106121a3576101008083540402835291602001916121ce565b820191906000526020600020905b8154815290600101906020018083116121b157829003601f168201915b505050505081526020016003820160009054906101000a900473ffffffffffffffffffffffffffffffffffffffff1673ffffffffffffffffffffffffffffffffffffffff1673ffffffffffffffffffffffffffffffffffffffff168152602001600482015481526020016005820154815260200160068201548152602001600782015481526020016008820154815260200160098201548152602001600a820160009054906101000a900460ff16151515158152602001600a820160019054906101000a900460ff1615151515815250509050919050565b60606000805480602002602001604051908101604052809291908181526020016000905b828210156124f357838290600052602060002090600b02016040518061018001604052908160008201548152602001600182018054612308906130ab565b80601f0160208091040260200160405190810160405280929190818152602001828054612334906130ab565b80156123815780601f1061235657610100808354040283529160200191612381565b820191906000526020600020905b81548152906001019060200180831161236457829003601f168201915b5050505050815260200160028201805461239a906130ab565b80601f01602080910402602001604051908101604052809291908181526020018280546123c6906130ab565b80156124135780601f106123e857610100808354040283529160200191612413565b820191906000526020600020905b8154815290600101906020018083116123f657829003601f168201915b505050505081526020016003820160009054906101000a900473ffffffffffffffffffffffffffffffffffffffff1673ffffffffffffffffffffffffffffffffffffffff1673ffffffffffffffffffffffffffffffffffffffff168152602001600482015481526020016005820154815260200160068201548152602001600782015481526020016008820154815260200160098201548152602001600a820160009054906101000a900460ff16151515158152602001600a820160019054906101000a900460ff161515151581525050815260200190600101906122ca565b50505050905090565b34600360003373ffffffffffffffffffffffffffffffffffffffff1673ffffffffffffffffffffffffffffffffffffffff168152602001908152602001600020600082825461254b9190612ed7565b925050819055507f3d27d812b049caf41fcc29cadcf63d52ad2b9f285ff79d360653b0a29bd8dbb460405161257f90612cec565b60405180910390a1565b604051806101800160405280600081526020016060815260200160608152602001600073ffffffffffffffffffffffffffffffffffffffff1681526020016000815260200160008152602001600081526020016000815260200160008152602001600081526020016000151581526020016000151581525090565b828054612610906130ab565b90600052602060002090601f0160209004810192826126325760008555612679565b82601f1061264b57805160ff1916838001178555612679565b82800160010185558215612679579182015b8281111561267857825182559160200191906001019061265d565b5b509050612686919061268a565b5090565b5b808211156126a357600081600090555060010161268b565b5090565b6000813590506126b681613306565b92915050565b60008083601f8401126126ce57600080fd5b8235905067ffffffffffffffff8111156126e757600080fd5b6020830191508360018202830111156126ff57600080fd5b9250929050565b6000813590506127158161331d565b92915050565b60006020828403121561272d57600080fd5b600061273b848285016126a7565b91505092915050565b6000806040838503121561275757600080fd5b6000612765858286016126a7565b925050602061277685828601612706565b9150509250929050565b60008060008060006060868803121561279857600080fd5b600086013567ffffffffffffffff8111156127b257600080fd5b6127be888289016126bc565b9550955050602086013567ffffffffffffffff8111156127dd57600080fd5b6127e9888289016126bc565b935093505060406127fc88828901612706565b9150509295509295909350565b60006020828403121561281b57600080fd5b600061282984828501612706565b91505092915050565b600061283e8383612a3b565b905092915050565b61284f81613023565b82525050565b61285e81613023565b82525050565b600061286f82612e81565b6128798185612ea4565b93508360208202850161288b85612e71565b8060005b858110156128c757848403895281516128a88582612832565b94506128b383612e97565b925060208a0199505060018101905061288f565b50829750879550505050505092915050565b6128e281613035565b82525050565b6128f181613035565b82525050565b600061290282612e8c565b61290c8185612eb5565b935061291c818560208601613078565b612925816131b3565b840191505092915050565b600061293b82612e8c565b6129458185612ec6565b9350612955818560208601613078565b61295e816131b3565b840191505092915050565b6000612976600f83612ec6565b9150612981826131c4565b602082019050919050565b6000612999600e83612ec6565b91506129a4826131ed565b602082019050919050565b60006129bc601783612ec6565b91506129c782613216565b602082019050919050565b60006129df602183612ec6565b91506129ea8261323f565b604082019050919050565b6000612a02602b83612ec6565b9150612a0d8261328e565b604082019050919050565b6000612a25601c83612ec6565b9150612a30826132dd565b602082019050919050565b600061018083016000830151612a546000860182612c51565b5060208301518482036020860152612a6c82826128f7565b91505060408301518482036040860152612a8682826128f7565b9150506060830151612a9b6060860182612846565b506080830151612aae6080860182612c51565b5060a0830151612ac160a0860182612c51565b5060c0830151612ad460c0860182612c51565b5060e0830151612ae760e0860182612c51565b50610100830151612afc610100860182612c51565b50610120830151612b11610120860182612c51565b50610140830151612b266101408601826128d9565b50610160830151612b3b6101608601826128d9565b508091505092915050565b600061018083016000830151612b5f6000860182612c51565b5060208301518482036020860152612b7782826128f7565b91505060408301518482036040860152612b9182826128f7565b9150506060830151612ba66060860182612846565b506080830151612bb96080860182612c51565b5060a0830151612bcc60a0860182612c51565b5060c0830151612bdf60c0860182612c51565b5060e0830151612bf260e0860182612c51565b50610100830151612c07610100860182612c51565b50610120830151612c1c610120860182612c51565b50610140830151612c316101408601826128d9565b50610160830151612c466101608601826128d9565b508091505092915050565b612c5a81613061565b82525050565b612c6981613061565b82525050565b60006020820190508181036000830152612c898184612864565b905092915050565b6000602082019050612ca660008301846128e8565b92915050565b60006020820190508181036000830152612cc581612969565b9050919050565b60006020820190508181036000830152612ce58161298c565b9050919050565b60006020820190508181036000830152612d05816129af565b9050919050565b60006020820190508181036000830152612d25816129d2565b9050919050565b60006020820190508181036000830152612d45816129f5565b9050919050565b60006020820190508181036000830152612d6581612a18565b9050919050565b60006020820190508181036000830152612d868184612b46565b905092915050565b6000602082019050612da36000830184612c60565b92915050565b600061018082019050612dbf600083018f612c60565b8181036020830152612dd1818e612930565b90508181036040830152612de5818d612930565b9050612df4606083018c612855565b612e01608083018b612c60565b612e0e60a083018a612c60565b612e1b60c0830189612c60565b612e2860e0830188612c60565b612e36610100830187612c60565b612e44610120830186612c60565b612e526101408301856128e8565b612e606101608301846128e8565b9d9c50505050505050505050505050565b6000819050602082019050919050565b600081519050919050565b600081519050919050565b6000602082019050919050565b600082825260208201905092915050565b600082825260208201905092915050565b600082825260208201905092915050565b6000612ee282613061565b9150612eed83613061565b9250827fffffffffffffffffffffffffffffffffffffffffffffffffffffffffffffffff03821115612f2257612f21613126565b5b828201905092915050565b6000612f388261306b565b9150612f438361306b565b92508260ff03821115612f5957612f58613126565b5b828201905092915050565b6000612f6f82613061565b9150612f7a83613061565b925082612f8a57612f89613155565b5b828204905092915050565b6000612fa082613061565b9150612fab83613061565b9250817fffffffffffffffffffffffffffffffffffffffffffffffffffffffffffffffff0483118215151615612fe457612fe3613126565b5b828202905092915050565b6000612ffa82613061565b915061300583613061565b92508282101561301857613017613126565b5b828203905092915050565b600061302e82613041565b9050919050565b60008115159050919050565b600073ffffffffffffffffffffffffffffffffffffffff82169050919050565b6000819050919050565b600060ff82169050919050565b60005b8381101561309657808201518184015260208101905061307b565b838111156130a5576000848401525b50505050565b600060028204905060018216806130c357607f821691505b602082108114156130d7576130d6613184565b5b50919050565b60006130e882613061565b91507fffffffffffffffffffffffffffffffffffffffffffffffffffffffffffffffff82141561311b5761311a613126565b5b600182019050919050565b7f4e487b7100000000000000000000000000000000000000000000000000000000600052601160045260246000fd5b7f4e487b7100000000000000000000000000000000000000000000000000000000600052601260045260246000fd5b7f4e487b7100000000000000000000000000000000000000000000000000000000600052602260045260246000fd5b6000601f19601f8301169050919050565b7f4e6f742045787069726564205965740000000000000000000000000000000000600082015250565b7f416c726561647920506173736564000000000000000000000000000000000000600082015250565b7f5468616e6b20796f7520666f7220646f6e6174696e6721000000000000000000600082015250565b7f4d696e696d756d20636f6e747269627574696f6e20697320302e31204d41544960008201527f4300000000000000000000000000000000000000000000000000000000000000602082015250565b7f4f6e6c7920476f76204f6666696369616c732063616e20637265617465206e6560008201527f77206f6666696369616c73000000000000000000000000000000000000000000602082015250565b7f4e6f7420656e6f7567682062616c616e636520746f207061796f757400000000600082015250565b61330f81613023565b811461331a57600080fd5b50565b61332681613061565b811461333157600080fd5b5056fea2646970667358221220680b32413b2b0dc30d6e4e063c867d9d79908727dc17eacca1f7ca69c864d01864736f6c63430008040033",
  "linkReferences": {},
  "deployedLinkReferences": {}
}